:100000000C9466000C9420100C944D100C948E00EF
:100010000C948E000C948E000C948E000C94A10F06
:100020000C948E000C948E000C948E000C948E0018
:100030000C948E000C948E000C948E000C948E0008
:100040000C947A100C948E000C94BC0B0C940A0C3B
:100050000C948E000C948E000C948E000C948E00E8
:100060000C948E000C948E000200000000240027E7
:10007000002A0000000000250028002B00000000DE
:1000800000230026002900040404040404040402DC
:100090000202020202030303030303010204081025
:1000A00020408001020408102001020408102000F2
:1000B0000000070002010000030406000000000029
:1000C00000000000760DCC0D42133B1311241FBE1F
:1000D000CFEFD8E0DEBFCDBF13E0A0E0B1E0E6E5B2
:1000E000F5E402C005900D92A832B107D9F715E0EA
:1000F000A8E2B3E001C01D92A832B107E1F710E019
:10010000CAECD0E004C02297FE010E949820C43CB3
:10011000D107C9F70E941D0E0C949E220C9400007A
:10012000ACE0B0E0E6E9F0E00C946F2069837A83FC
:100130008B839C83CE010196BE016B5F7F4F0E9433
:1001400081028D81823061F1823050F1843021F45E
:100150008E81882351F12EC02F81388537FD20C034
:100160006E812F3131051CF06623F9F023C08EE13A
:1001700090E0821B930B29853A854B855C8504C0F2
:1001800056954795379527958A95D2F76623B1F00E
:1001900050954095309521953F4F4F4F5F4F0EC082
:1001A00020E030E040E050E009C02FEF3FEF4FEF9C
:1001B0005FE704C020E030E040E050E8B901CA0148
:1001C0002C96E2E00C948B20A8E0B0E0EAEEF0E0A0
:1001D0000C9467207B018C016115710581059105E7
:1001E00019F482E0898360C083E089838EE1C82EA0
:1001F000D12CDC82CB82ED82FE820F831887C8016E
:10020000B7010E945D01FC013197F7FF3BC0222737
:1002100033272E1B3F0B57016801022E04C0D694D2
:10022000C794B794A7940A94D2F740E050E060E0F6
:1002300070E081E090E0A0E0B0E004C0880F991F7A
:10024000AA1FBB1F2A95D2F70197A109B1098E21D8
:100250009F21A023B1230097A105B10521F041E022
:1002600050E060E070E04A295B296C297D294D83CC
:100270005E836F8378878EE190E08E1B9F0B9C835B
:100280008B8312C0309781F00E2E04C0EE0CFF1C41
:10029000001F111F0A94D2F7ED82FE820F83188788
:1002A000CE1ADF0ADC82CB821A82CE0101960E942E
:1002B000AC012896EAE00C948320EF92FF920F9312
:1002C0001F937B018C0180E0E81680E0F80681E056
:1002D000080780E0180788F48FEFE816F10401059D
:1002E000110531F028F088E090E0A0E0B0E017C000
:1002F00080E090E0A0E0B0E012C080E0E81680E08E
:10030000F80680E0080781E0180728F088E190E00F
:10031000A0E0B0E004C080E190E0A0E0B0E020E226
:1003200030E040E050E0281B390B4A0B5B0B04C067
:1003300016950795F794E7948A95D2F7F701EB594C
:10034000FE4F8081281B310941095109C9011F91C4
:100350000F91FF90EF900895DF92EF92FF920F932D
:100360001F93FC01E480F58006811781D180808194
:10037000823048F480E090E0A0E1B0E0E82AF92A79
:100380000A2B1B2BA5C0843009F49FC0823021F4B6
:10039000EE24FF24870105C0E114F10401051105D5
:1003A00019F4E0E0F0E096C0628173819FEF62385B
:1003B00079070CF05BC022E83FEF261B370B2A3190
:1003C00031052CF020E030E040E050E02AC0B801D8
:1003D000A701022E04C076956795579547950A9414
:1003E000D2F781E090E0A0E0B0E004C0880F991F50
:1003F000AA1FBB1F2A95D2F70197A109B1098E2127
:100400009F21A023B1230097A105B10521F081E030
:1004100090E0A0E0B0E09A01AB01282B392B4A2BE9
:100420005B2BDA01C9018F779070A070B0708034B7
:100430009105A105B10539F427FF09C0205C3F4FA4
:100440004F4F5F4F04C0215C3F4F4F4F5F4FE0E085
:10045000F0E02030A0E03A07A0E04A07A0E45A0705
:1004600010F0E1E0F0E079018A0127C06038710501
:1004700064F5FB01E158FF4FD801C7018F779070F9
:10048000A070B07080349105A105B10539F4E7FE84
:100490000DC080E490E0A0E0B0E004C08FE390E005
:1004A000A0E0B0E0E80EF91E0A1F1B1F17FF05C0F1
:1004B00016950795F794E794319687E0169507957A
:1004C000F794E7948A95D1F705C0EE24FF248701BD
:1004D000EFEFF0E06E2F679566276795902F9F7777
:1004E000D794DD24D7948E2F8695492F462B582FED
:1004F0005D29B701CA011F910F91FF90EF90DF9026
:100500000895FC01DB01408151812281622F6F77C8
:1005100070E0221F2227221F9381892F880F822BB0
:10052000282F30E0991F9927991F11969C931197B6
:1005300021153105A9F5411551056105710511F424
:1005400082E037C082E89FEF13969C938E931297B8
:100550009A01AB0167E0220F331F441F551F6A95B4
:10056000D1F783E08C930DC0220F331F441F551F1A
:1005700012968D919C911397019713969C938E934D
:100580001297203080E0380780E0480780E4580761
:1005900058F314962D933D934D935C9317970895BC
:1005A0002F3F310579F4411551056105710519F4A5
:1005B00084E08C93089564FF03C081E08C9312C0A3
:1005C0001C9210C02F57304013963C932E931297D5
:1005D00083E08C9387E0440F551F661F771F8A9531
:1005E000D1F7706414964D935D936D937C93179738
:1005F0000895FC0189EA92E0918380830895CF9267
:10060000DF92EF92FF920F931F93FC0189EA92E031
:1006100091838083358B248B178B068BF18EE08E34
:10062000D38EC28E558F448F81E090E0978F868F56
:10063000DB0120E030E08D919C91119793838283C0
:1006400012968D919C9113979583848314968D9126
:100650009C911597978386832F5F3F4F369616960A
:100660002330310541F71F910F91FF90EF90DF90FC
:10067000CF900895CF92DF92EF92FF920F931F9346
:10068000FC0189EA92E091838083358B248B178B60
:10069000068BF18EE08ED38EC28E558F448F81E013
:1006A00090E0978F868FDB0120E030E08D919C9168
:1006B00011979383828312968D919C9113979583C2
:1006C000848314968D919C911597978386832F5FD1
:1006D0003F4F369616962330310541F71F910F9103
:1006E000FF90EF90DF90CF900895DC01ED91FC91A9
:1006F0000190F081E02D41E009950895DC01ED9134
:10070000FC910190F081E02D40E009950895FC01F5
:10071000778F668F0895FC01758B648B0895FC01BB
:10072000778B668B08950F931F938C01DC01ED91FD
:10073000FC910190F081E02D40E00995F801268DB3
:10074000378D848D958DA901489F9001499F300D6B
:10075000589F300D112486899789821B930B978BA4
:10076000868B20E0099708F021E0822F1F910F91DE
:1007700008952F923F924F925F926F927F928F9245
:100780009F92AF92BF92CF92DF92EF92FF920F9320
:100790001F93DF93CF93CDB7DEB728970FB6F894AA
:1007A000DEBF0FBECDBF6C017B0121E030E0FC015C
:1007B000828D938DA901481B590B5C834B83808DDF
:1007C000918DF901E81BF90BFA83E983FB01828D16
:1007D000938D1901281A390A808D918D2901481AA3
:1007E000590A1E821D826BC0A114B10469F1EF8108
:1007F000F88580819181892B39F1F6012689378925
:100800008B819C81280F391F260D371DF7018689A2
:100810009789820D931D860F971F28173907A1F41A
:10082000F6012489358989819A81280F391F280D7D
:10083000391DF70184899589840D951D840F951FB5
:100840002817390709F450C04F5F5F4F2F81388553
:100850002E5F3F4F38872F834230510529F66F5F57
:100860007F4F6230710591F0CB010196AC01440FCE
:10087000551F480F591F4F5F5F4F440F551F4E0DB7
:100880005F1D58874F834FEF5FEFAECF0F5F1F4F56
:1008900012960330110551F048010894810891081F
:1008A000AD90BC9011976FEF7FEFDECF8D819E8171
:1008B00001969E838D83039711F480E016C06D80AE
:1008C0007E80089461087108AD81BE81AA0FBB1FAC
:1008D000ED81FE81AE0FBF1F1196AA0FBB1FAC0D9D
:1008E000BD1D00E010E0D8CF81E028960FB6F89447
:1008F000DEBF0FBECDBFCF91DF911F910F91FF9053
:10090000EF90DF90CF90BF90AF909F908F907F90AF
:100910006F905F904F903F902F9008958F929F928D
:10092000AF92BF92CF92DF92EF92FF920F931F93FD
:10093000CF93DF938C01DB0181E090E05A962D91FB
:100940003C915B975C01A21AB30A58962D913C9199
:1009500059976C01C21AD30A60E070E030C0A4015C
:100960004A010894811C911C80819181892BD9F0C6
:1009700056968D919C9157978A0D9B1D8E0D9F1DAC
:10098000E8012E893F892817390769F454968D911B
:100990009C9155978C0D9D1D840F951F2C893D8929
:1009A00028173907E9F0329682E088169104B9F6E3
:1009B0006F5F7F4F6330710511F480E012C07B01DF
:1009C0000894E108F108FB01EE0FFF1FE60FF71F87
:1009D0003196EE0FFF1FEA0FFB1F4FEF5FEFC0CF07
:1009E00081E0DF91CF911F910F91FF90EF90DF9009
:1009F000CF90BF90AF909F908F900895FC0180A5FD
:100A0000882339F480A191A1019791A380A381E06B
:100A100080A70895FC0180A191A10895FC0171A314
:100A200060A308950F931F93CF93DF93EC018A0186
:100A3000E881F9810190F081E02D40E009952CA139
:100A40003DA1688D798D8EA19FA14AA15BA1EA8D00
:100A5000FB8D0230110589F48C899D894E8D5F8D47
:100A6000280F391F261B370B241B350B37FD3BC0C6
:100A7000841B950B9D8B8C8B36C00330110589F43C
:100A80004C895D892E8D3F8D840F951F820F931F9A
:100A9000861B970B08973CF5240F351F3D8B2C8B3D
:100AA00022C00430110559F42E893F898E8D9F8D07
:100AB000281B390B37FD17C03F8B2E8B14C0053018
:100AC000110589F42E893F898E8D9F8D420F531F0A
:100AD000480F591F4E1B5F0B4830510524F4820FFD
:100AE000931F9F8B8E8B80E0DF91CF911F910F9191
:100AF0000895FC0189EA92E0918380830895FC01C6
:100B000089EA92E091838083CF010E943A0E089592
:100B1000FC0189EA92E091838083CF010E943A0E22
:100B20000895EF92FF920F931F93CF93DF937B0172
:100B30008C01075D1F4FC8010E94E612EC0107C03F
:100B4000C801BE010E94EA12B7010E947E032197EC
:100B5000D7FFF6CFDF91CF911F910F91FF90EF90CC
:100B60000895EF92FF920F931F93CF93DF937B0132
:100B70008C01075D1F4FC8010E94E612EC0107C0FF
:100B8000C801BE010E94EA12B7010E9475032197B5
:100B9000D7FFF6CFDF91CF911F910F91FF90EF908C
:100BA00008957F928F929F92AF92BF92CF92DF92E1
:100BB000EF92FF920F931F93CF93DF93EC015B01B2
:100BC000790168010E941205E114F10409F1E8813C
:100BD000F9810480F581E02DCE01B70109958823C4
:100BE00009F44BC0F70180A5882339F480A191A1B5
:100BF000019791A380A381E080A788A58823E9F5C8
:100C000088A199A1019799A388A381E088A735C0FD
:100C10000115110591F1C8010E94E6127C010894AA
:100C2000E108F1084E017724739425C0E881F98129
:100C300004811581C601B7010E94EA12BC01C401FA
:100C4000F80109958823A1F088A5882331F488A1AB
:100C500099A1019799A388A378A6C601B7010E941C
:100C6000EA12B5010E947E03C601B7010E94F2128A
:100C70000894E108F108F7FED9CFDF91CF911F91D9
:100C80000F91FF90EF90DF90CF90BF90AF909F902B
:100C90008F907F900895EF92FF920F931F93CF93C1
:100CA000DF937B018C01075D1F4FC8010E94E61294
:100CB000EC0116C0C801BE010E94EA12FC01A0812D
:100CC000B18112962D913C911397B70141E050E00C
:100CD000F9010995882321F0C801BE010E94F21292
:100CE0002197D7FFE7CFDF91CF911F910F91FF9011
:100CF000EF900895BF92CF92DF92EF92FF920F9301
:100D00001F93CF93DF938C016B010E944B0669E226
:100D1000E62EF12CE00EF11EC7010E94E612EC0156
:100D20002197035B1F4FBB24B3942BC0C701BE01A7
:100D30000E94EA12DC018D919C911197F80160816B
:100D40007181FC0124813581CD01F9010995882348
:100D5000B9F0D801ED91FC9180A5882331F480A1F0
:100D600091A1019791A380A3B0A6C701BE010E94E3
:100D7000EA12B6010E947E03C701BE010E94F21270
:100D80002197D7FFD3CFDF91CF911F910F91FF9084
:100D9000EF90DF90CF90BF900895EF92FF920F9366
:100DA0001F938C017B01DC01ED91FC910280F381AA
:100DB000E02D41E050E00995C801B7010E947A0694
:100DC0001F910F91FF90EF9008956F927F928F92F5
:100DD0009F92AF92BF92CF92DF92EF92FF920F93CA
:100DE0001F93CF93DF93EC013B018A0159010E94CD
:100DF0004B060115110509F440C0E9E2CE2ED12CB5
:100E0000CC0EDD1EC6010E94E612EC012197B02E29
:100E1000E12EAA24A3942EC0C601BE010E94EA12AC
:100E2000FC01A081B18114962D913C9115976B2DF9
:100E30007E2DF90109958823E1F0D80198968C91CF
:100E40009897882359F490968D919C91919701974A
:100E500091969C938E9390979896AC92C601BE0102
:100E60000E94EA12B3010E947E03C601BE010E94E5
:100E7000F2122197D7FFD0CF46C0A114B10409F4D4
:100E800042C079E2872E912C8C0E9D1EC4010E94D7
:100E9000E6126C0133C0C5010E94E612EC012BC0C2
:100EA000C401B6010E94EA128C01DC01ED91FC91B3
:100EB000E480F580C501BE010E94EA12BC01C801B0
:100EC000F70109958823B9F0C401B6010E94EA121E
:100ED000B3010E947E03C401B6010E94F212C50153
:100EE000BE010E94EA12B3010E947E03C501BE0149
:100EF0000E94F21203C02197D7FFD2CF0894C108F5
:100F0000D108D7FEC8CFDF91CF911F910F91FF90ED
:100F1000EF90DF90CF90BF90AF909F908F907F9099
:100F20006F900895AF92BF92CF92DF92EF92FF92AF
:100F30000F931F93CF93DF936C015B01E90178015D
:100F40004115510511F00E94D105C601B501AE0150
:100F500097010E94E506DF91CF911F910F91FF90BD
:100F6000EF90DF90CF90BF90AF900895EF92FF92F7
:100F70000F931F93CF93DF938C018DE892E0F801DC
:100F800091838083F9E2EF2EF12CE00EF11EC70170
:100F90000E94E612EC0104C0C701BE010E94F212D9
:100FA0002197D7FFF9CF89EA92E0F80191838083F6
:100FB000C8010E943A0EDF91CF911F910F91FF90CF
:100FC000EF900895EF92FF920F931F93CF93DF93CB
:100FD0008C018DE892E0F80191838083A9E2EA2EEA
:100FE000F12CE00EF11EC7010E94E612EC0104C0D4
:100FF000C701BE010E94F2122197D7FFF9CF89EAFB
:1010000092E0F80191838083DF91CF911F910F913E
:10101000FF90EF900895EF92FF920F931F93CF935D
:10102000DF938C018DE892E0F80191838083B9E22F
:10103000EB2EF12CE00EF11EC7010E94E612EC012E
:1010400004C0C701BE010E94F2122197D7FFF9CF59
:1010500089EA92E0F80191838083DF91CF911F911B
:101060000F91FF90EF9008950F931F938C018FE7DE
:1010700092E0F80191838083C8010E940B08C801A7
:101080000E943A0E1F910F910895FC018FE792E0A4
:1010900091838083CF010E940B0808950F931F93C3
:1010A0008C0187EB92E0F80191838083C8010E9454
:1010B0000B08C8010E943A0E1F910F910895FC0180
:1010C00087EB92E091838083CF010E940B08089503
:1010D0000F931F93CF93DF93EC018B010E94C210FB
:1010E000209128033091290340912A0350912B032A
:1010F000621B730B840B950B685E734080409040BD
:1011000008F44BC00E94C210609328037093290317
:1011100080932A0390932B03C35BDF4FE881F9810F
:10112000CD54D0402C893D8984899589281B390B61
:1011300037FF05C0CE01B80143E050E006C0232BC5
:1011400031F0CE01B80142E050E00E941205E88182
:10115000F9818E01035B1F4FD8016D917C91048052
:10116000F581E02DCE0109958823B9F0D801ED91E4
:10117000FC9180A5882339F480A191A1019791A3C6
:1011800080A381E080A788A5882339F488A199A14C
:10119000019799A388A381E088A780E0DF91CF9190
:1011A0001F910F910895EF92FF920F931F93CF938A
:1011B000DF93EC0188A5882351F18E01005C1F4F5D
:1011C000F801808199E4E92EF12CEC0EFD1E8823B4
:1011D00051F481E080830E94C210F7016083718323
:1011E0008283938313C00E94C210F7012081318152
:1011F00042815381621B730B840B950B685E7340B5
:101200008040904018F0F801108218A681E0DF912C
:10121000CF911F910F91FF90EF900895AF92BF92E1
:10122000CF92DF92EF92FF920F931F93CF93DF93B2
:10123000EC015B0125E4C22ED12CC80ED91EF601AB
:10124000E080F180028113810E94C210E61AF70A41
:10125000080B190BF9ECEF16F10401051105A0F0CC
:101260000E94C210F6016083718382839383E881B8
:10127000F9810190F081E02DCE01B5014FAD0995C6
:101280008FAD91E089278FAFDF91CF911F910F91A3
:10129000FF90EF90DF90CF90BF90AF9008950F93A5
:1012A0001F93CF93DF93EC018B010E94D308882317
:1012B00029F0CE01B8010E940E0904C0CE01B80188
:1012C0000E947503DF91CF911F910F910895EF92C6
:1012D000FF920F931F938C017B010E94B105C801FF
:1012E000B7010E944F091F910F91FF90EF90089551
:1012F0000F931F93CF93DF93EC010E94C2108E01D6
:101300000F5B1F4FF8012081318142815381621BA5
:10131000730B840B950B6C5271408040904040F1F0
:101320000E94C210F801608371838283938380E2FC
:1013300090E00E943D0EFC014C895D892C8D3D8D15
:101340008E899F890196821B930B558B448B978BBB
:10135000868B358F248F81E090E0978F868F8BE985
:1013600092E091838083CE018996BF010E94C512CD
:10137000DF91CF911F910F9108956F927F928F927D
:101380009F92AF92BF92CF92DF92EF92FF920F9314
:101390001F93DF93CF93CDB7DEB73C010E94FF02CE
:1013A0008DE892E0F301918380838B899C8991A3DE
:1013B00080A389899A8993A382A3B5A2A4A297A2A4
:1013C00086A2C30189960E94C11281E0F30187AF12
:1013D00080E490E0680E791EF3011192119211924F
:1013E0001192119211921192119211921082118206
:1013F00012821382CF91DF911F910F91FF90EF9096
:10140000DF90CF90BF90AF909F908F907F906F9024
:1014100008954F925F926F927F928F929F92AF92B8
:10142000BF92CF92DF92EF92FF920F931F93DF93C1
:10143000CF93CDB7DEB73C012B0100D000D08D8912
:101440009E89EDB7FEB7928381838F89988D9483AF
:101450008383C301BA01A90198018701760165015F
:1014600054018B889C880E94BD098FE792E0F301AC
:10147000918380838DE490E0680E791EF3015182A0
:1014800040820F900F900F900F90CF91DF911F919E
:101490000F91FF90EF90DF90CF90BF90AF909F9013
:1014A0008F907F906F905F904F9008956F927F9292
:1014B0008F929F92AF92BF92CF92DF92EF92FF9264
:1014C0000F931F93DF93CF93CDB7DEB73C0100D0CE
:1014D00000D089899A89EDB7FEB7928381838B8981
:1014E0009C8994838383C3010E94BD0987EB92E0AA
:1014F000F301918380830F900F900F900F90CF9105
:10150000DF911F910F91FF90EF90DF90CF90BF90F0
:10151000AF909F908F907F906F900895FC012689E7
:1015200037890488F589E02D442331F0CB01B901D6
:10153000AF010E94DA1D0895CB01B901AF010E94ED
:10154000F61D08955F926F927F928F929F92AF9255
:10155000BF92CF92DF92EF92FF920F931F93CF93A0
:10156000DF937C013B01542E81E090E0F701228D56
:10157000338D4C01821A930A208D318D5C01A21AA1
:10158000B30A0FEF1FEF31C0960169010894C11C27
:10159000D11C88819981892BF1F0F70166897789BF
:1015A00044895589552061F0680D791D600F711FC0
:1015B0004A0D5B1D420F531FC3010E94DA1D0BC071
:1015C000680D791D600F711F4A0D5B1D420F531F7F
:1015D000C3010E94F61D2296F2E0CF16D104A1F6B7
:1015E0000F5F1F4F0230110579F0C8010196EC0121
:1015F000CC0FDD1FC80FD91F2196CC0FDD1FCE0DDC
:10160000DF1D2FEF3FEFC1CFDF91CF911F910F91E2
:10161000FF90EF90DF90CF90BF90AF909F908F9012
:101620007F906F905F90089581E043E050E00E94CA
:10163000FD0F089580E042E050E00E94FD0F089504
:10164000CF93DF93EC018A819B81835A9E4F8B5B02
:10165000924050F10E94C21020912C0330912D0332
:1016600040912E0350912F03621B730B840B950B3B
:101670006436710581059105B8F00E94C21060932F
:101680002C0370932D0380932E0390932F038A8154
:101690009B81181619061CF421E030E007C0892B45
:1016A00019F02FEF3FEF02C020E030E0C901DF91D9
:1016B000CF910895CF93DF93EC0188819981835A6C
:1016C0009E4F8B5B924050F10E94C21020913003DC
:1016D000309131034091320350913303621B730BFD
:1016E000840B950B6436710581059105B8F00E9455
:1016F000C210609330037093310380933203909350
:10170000330388819981181619061CF421E030E012
:1017100007C0892B19F02FEF3FEF02C020E030E027
:10172000C901DF91CF9108950F931F938C018EE033
:101730000E9415118B509240F801918380838FE0B5
:101740000E9415118B5F9140F801938382831F9152
:101750000F9108958EE060E00E9497118FE060E0A5
:101760000E94971182E062E00E94971183E060E09E
:101770000E949711089508951F920F920FB60F922D
:1017800011242F933F934F938F939F93EF93FF9346
:101790008091C00082FD1DC04091C600209174035D
:1017A000309175032F5F3F4F2F7330708091760318
:1017B000909177032817390771F0E0917403F09145
:1017C0007503EC5CFC4F40833093750320937403E6
:1017D00002C08091C600FF91EF919F918F914F9130
:1017E0003F912F910F900FBE0F901F901895E09191
:1017F000C803F091C903E05CFF4F81919191208172
:101800003181821B930B8F739070892B11F00E9492
:10181000BB0B08951F920F920FB60F9211242F93B6
:101820003F938F939F93EF93FF932091B803309151
:10183000B9038091BA039091BB032817390731F49B
:101840008091C1008F7D8093C10014C0E091BA03E4
:10185000F091BB03E858FC4F20818091BA0390912E
:10186000BB0301968F7390709093BB038093BA0370
:101870002093C600FF91EF919F918F913F912F91FF
:101880000F900FBE0F901F901895AF92BF92DF92EE
:10189000EF92FF920F931F93CF93DF93EC017A01A6
:1018A0008B01DD24403081EE580780E0680780E03E
:1018B000780711F0DD24D39491E0A92EB12CEC89A6
:1018C000FD89DD2069F0C50108A002C0880F991FBD
:1018D0000A94E2F7808360E079E08DE390E005C050
:1018E000108260E874E88EE190E0A80197010E9400
:1018F0000E20215030404040504056954795379536
:10190000279580E12030380720F0DD2011F0DD241C
:10191000D6CFE889F9893083EA89FB89208319A227
:10192000EE89FF89408121E030E0C9010C8C02C0C2
:10193000880F991F0A94E2F7482B4083EE89FF89AC
:101940004081C9010D8C02C0880F991F0A94E2F7EB
:10195000482B4083EE89FF894081C9010E8C02C06B
:10196000880F991F0A94E2F7482B4083EE89FF897C
:1019700080810F8C02C0220F331F0A94E2F720955A
:1019800028232083DF91CF911F910F91FF90EF903B
:10199000DF90BF90AF900895DC011C96ED91FC9113
:1019A0001D97E05CFF4F2191319180819181281B2F
:1019B000390B2F733070C9010895DC011C96ED912D
:1019C000FC911D97E05CFF4F20813181E054F04095
:1019D000DF01AE5BBF4F8D919C911197281739079E
:1019E00019F42FEF3FEF07C08D919C91E80FF91F7D
:1019F0008081282F30E0C9010895DC011C96ED910B
:101A0000FC911D97E05CFF4F20813181E054F04054
:101A1000DF01AE5BBF4F8D919C911197281739075D
:101A200019F42FEF3FEF10C08D919C911197E80FA3
:101A3000F91F20818D919C91119701968F73907061
:101A400011969C938E9330E0C9010895DC01919624
:101A50008C919197882339F05496ED91FC9155978C
:101A6000808186FFF9CF91961C920895CF93DF93E2
:101A7000EC01EE85FF85E05CFF4F20813181E05471
:101A8000F0402F5F3F4F2F733070DF01AE5BBF4FD1
:101A90008D919C91119728173907D1F3E05CFF4F86
:101AA00080819181E054F040E80FF91F6083EE855A
:101AB000FF85E05CFF4F31832083EE89FF89208121
:101AC00081E090E00F8C02C0880F991F0A94E2F722
:101AD000282B208381E089A3EC89FD8980818064A3
:101AE000808381E090E0DF91CF9108951092BF0351
:101AF0001092BE0388EE93E0A0E0B0E08093C003B4
:101B00009093C103A093C203B093C30385EC92E00A
:101B10009093BD038093BC0384E393E09093C90347
:101B20008093C80388E793E09093CB038093CA0324
:101B300085EC90E09093CD038093CC0384EC90E00F
:101B40009093CF038093CE0380EC90E09093D103E9
:101B50008093D00381EC90E09093D3038093D203E1
:101B600082EC90E09093D5038093D40386EC90E0D0
:101B70009093D7038093D60384E08093D80383E0C7
:101B80008093D90387E08093DA0385E08093DB03B9
:101B900081E08093DC03089585ED92E09093DF036C
:101BA0008093DE031092E0031092E1031092E203AF
:101BB0001092E30308958F929F92AF92BF92CF92BB
:101BC000DF92EF92FF920F931F93CF93DF934C011D
:101BD0006B017C01AA24BB24C0E0D0E0C601F70160
:101BE00062814AE050E00E94010F8C01C6016EE262
:101BF0000E946A0E080F191FA00EB11E21960894AC
:101C0000E11CF11CC330D10549F7C601F40165811F
:101C10004AE050E00E94010F9501280F391FC901C9
:101C2000DF91CF911F910F91FF90EF90DF90CF90B8
:101C3000BF90AF909F908F900895CF93DF930E94B5
:101C4000DA100E944E13C7EFDBE00E944913209781
:101C5000E1F30E94F70BF9CFFC0120E030E0808136
:101C6000882311F421E030E0C9010895FC0181E0EE
:101C7000808308950E94DA2108950E941A21089510
:101C8000CF92DF92EF92FF920F931F93CF93DF9348
:101C90007C016B018A01C0E0D0E00FC0D6016D91DC
:101CA0006D01D701ED91FC910190F081E02DC7010C
:101CB0000995C80FD91F015010400115110571F782
:101CC000CE01DF91CF911F910F91FF90EF90DF90A8
:101CD000CF900895DC01ED91FC910190F081E02D11
:101CE00009950895CF93DF93EC016115710519F4FF
:101CF00020E030E00FC0DB010D900020E9F71197E4
:101D0000A61BB70BE881F9810280F381E02DAD01BC
:101D100009959C01C901DF91CF9108954F925F927F
:101D20007F928F929F92AF92BF92CF92DF92EF926B
:101D3000FF920F931F93DF93CF93CDB7DEB7A19799
:101D40000FB6F894DEBF0FBECDBF2C01742ECB01B1
:101D5000223008F42AE019A231E2C32ED12CCC0E95
:101D6000DD1E822E9924AA24BB24672D752FA50180
:101D700094010E940E2079018A01C801B701A501D2
:101D800094010E94DC1F472D461B0894C108D1080E
:101D90004A3014F4405D01C0495CF6014083E1140F
:101DA000F1040105110521F07E2C5F2DC801DDCF66
:101DB000C201B6010E94720EA1960FB6F894DEBF62
:101DC0000FBECDBFCF91DF911F910F91FF90EF908C
:101DD000DF90CF90BF90AF909F908F907F905F905B
:101DE0004F900895DC012115310541F4ED91FC91EE
:101DF0000190F081E02D642F099508950E948E0EC8
:101E00000895EF92FF920F931F939A01E62EFF24FD
:101E100000E010E0B801A7010E94F20E1F910F919F
:101E2000FF90EF900895CF92DF92EF92FF920F9381
:101E30001F93CF93DF93EC016A017B0121153105DC
:101E400041F4E881F9810190F081E02D642F09953A
:101E50001FC02A303105D1F477FF17C0E881F9811E
:101E60000190F081E02D6DE209958C014427552702
:101E7000BA014C195D096E097F09CE012AE00E9462
:101E80008E0E9801280F391F04C02AE00E948E0E82
:101E90009C01C901DF91CF911F910F91FF90EF90AD
:101EA000DF90CF900895EF92FF920F931F937B01E5
:101EB0009A010027F7FC0095102FB801A7010E9496
:101EC000130F1F910F91FF90EF9008950E94720ED3
:101ED0000895813041F0813018F08230D1F409C08A
:101EE00010926E00089580916F008D7F80936F0037
:101EF0000895809170008D7F8093700081E08093C1
:101F0000B0008091B100887F84608093B10010920E
:101F1000B30008951F93182F80916F02811711F05D
:101F20009FEF06C0E8E6F0E094918FEF80936F0298
:101F3000892F0E94690F812F60E00E9403121F9178
:101F400008951F920F920FB60F9211242F933F9373
:101F50004F935F936F937F938F939F93AF93BF93B1
:101F6000EF93FF938091E4039091E503A091E60342
:101F7000B091E7030097A105B10551F1E091E803A5
:101F8000F091E90380819091EA0389278083809111
:101F9000E4039091E503A091E603B091E7031816DE
:101FA00019061A061B06C4F48091E4039091E50318
:101FB000A091E603B091E7030197A109B1098093CD
:101FC000E4039093E503A093E603B093E70304C012
:101FD00080916F020E948A0FFF91EF91BF91AF91A4
:101FE0009F918F917F916F915F914F913F912F9131
:101FF0000F900FBE0F901F901895823000F5E82FBC
:10200000F0E0EE0FFF1FE551FC4F718360838823E2
:1020100019F08130A1F408C0809169008C7F842B75
:1020200080936900E89A089580916900440F551FD4
:10203000440F551F837F842B80936900E99A08958C
:102040001F920F920FB60F9211242F933F934F932D
:102050005F936F937F938F939F93AF93BF93EF9310
:10206000FF938091EB039091EC03892B29F0E09191
:10207000EB03F091EC030995FF91EF91BF91AF91C4
:102080009F918F917F916F915F914F913F912F9190
:102090000F900FBE0F901F9018951F920F920FB6C2
:1020A0000F9211242F933F934F935F936F937F93DE
:1020B0008F939F93AF93BF93EF93FF938091ED0323
:1020C0009091EE03892B29F0E091ED03F091EE035E
:1020D0000995FF91EF91BF91AF919F918F917F9162
:1020E0006F915F914F913F912F910F900FBE0F9085
:1020F0001F9018951F920F920FB60F9211242F93D5
:102100003F938F939F93AF93BF938091F3039091ED
:10211000F403A091F503B091F6033091F703019613
:10212000A11DB11D232F2D5F2D3720F02D570196B6
:10213000A11DB11D2093F7038093F3039093F40343
:10214000A093F503B093F6038091EF039091F00311
:10215000A091F103B091F2030196A11DB11D8093EE
:10216000EF039093F003A093F103B093F203BF91B8
:10217000AF919F918F913F912F910F900FBE0F9034
:102180001F9018958FB7F8942091F3033091F403C2
:102190004091F5035091F6038FBFB901CA0108952C
:1021A000019739F0880F991F880F991F029701979F
:1021B000F1F70895789484B5826084BD84B5816018
:1021C00084BD85B5826085BD85B5816085BDEEE63F
:1021D000F0E0808181608083E1E8F0E0108280811E
:1021E00082608083808181608083E0E8F0E080818C
:1021F00081608083E1EBF0E0808184608083E0EBAC
:10220000F0E0808181608083EAE7F0E08081846093
:1022100080838081826080838081816080838081EF
:10222000806880831092C1000895982F8E3008F046
:102230009E509770809170028295880F880F807CE5
:10224000892B80937C0080917A00806480937A004F
:1022500080917A0086FDFCCF209178004091790032
:10226000942F80E030E0282B392BC90108951F936B
:10227000CF93DF93182FEB0161E00E949711209715
:1022800009F44AC0CF3FD10509F449C0E12FF0E07D
:10229000E155FF4F84918330C1F0843028F48130C0
:1022A00051F08230B1F50CC0863019F1873049F118
:1022B000843079F514C084B5806884BDC7BD33C04F
:1022C00084B5806284BDC8BD2EC0809180008068C6
:1022D00080938000D0938900C093880024C08091AF
:1022E0008000806280938000D0938B00C0938A002E
:1022F0001AC08091B00080688093B000C093B30092
:1023000012C08091B00080628093B000C093B4008E
:102310000AC0C038D1051CF4812F60E002C0812FB3
:1023200061E00E940312DF91CF911F910895CF9336
:10233000DF93482F50E0CA0185569F4FFC0134912E
:1023400049575F4FFA018491882369F190E0880F23
:10235000991FFC01E759FF4FA591B491FC01ED587D
:10236000FF4FC591D491662351F42FB7F8948C9107
:10237000932F909589238C93888189230BC0623099
:1023800061F42FB7F8948C91932F909589238C93B7
:102390008881832B88832FBF06C09FB7F8948C91C8
:1023A000832B8C939FBFDF91CF910895833071F081
:1023B000843028F48130A1F0823021F514C08630B9
:1023C000B1F08730D1F08430E9F404C0809180000E
:1023D0008F7703C0809180008F7D80938000089567
:1023E00084B58F7702C084B58F7D84BD08958091B8
:1023F000B0008F778093B00008958091B0008F7DFA
:102400008093B0000895FF920F931F93F62E482FEC
:1024100050E0CA0181559F4FFC012491CA018556A5
:102420009F4FFC01149149575F4FFA01049100231B
:10243000C9F0222319F0822F0E94D611E02FF0E07C
:10244000EE0FFF1FED58FF4FA591B4919FB7F89481
:10245000FF2021F48C911095812302C08C91812B57
:102460008C939FBF1F910F91FF900895BF92CF92C1
:10247000DF92EF92FF920F931F93CF93DF93E82E9B
:10248000F62EB42EC7E0D0E0022F10E087E0C82E71
:10249000D12CBB2059F4B6016C1B7D0BC80102C0C6
:1024A000959587956A95E2F7BC0107C0B8010C2E97
:1024B00002C0759567950A94E2F7617070708E2D71
:1024C0000E9403128F2D61E00E9403128F2D60E0A5
:1024D0000E94031221979FEFCF3FD907D1F6DF91DA
:1024E000CF911F910F91FF90EF90DF90CF90BF9011
:1024F0000895EF92FF920F931F937B018C0161155A
:1025000071058105910529F420E030E040E050E0BC
:102510000BC00E949122A80197010E943020AC01BB
:10252000CB01DA019C01AD01B901CA011F910F91E4
:10253000FF90EF900895EF92FF920F931F937B010E
:102540008C01621773078407950764F4261B370B09
:10255000480B590BCA01B9010E947912E60EF71E09
:10256000081F191FB701C8011F910F91FF90EF902D
:102570000895009729F0BC0180E090E00E94952228
:102580000895FC01158A148A0895CF93DF93EC0116
:10259000DB018C899D898A3091055CF4FC01EE0F8A
:1025A000FF1FEC0FFD1F7183608301969D8B8C8B49
:1025B0000AC06115710539F0ED91FC910084F18537
:1025C000E02DCB010995DF91CF910895FC0184891D
:1025D00095890895FB01EE0FFF1FE80FF91F808119
:1025E000918108950F931F93CF93DF938C01EB019B
:1025F000FB01EE0FFF1FE80FF91FA081B1811097BB
:1026000041F0ED91FC9111970084F185E02DCD0111
:102610000995DE01AA0FBB1FA00FB11FBE0108C0A4
:102620006F5F7F4F12968D919C9113978D939D9321
:10263000F801848995890197681779078CF3958B40
:10264000848BDF91CF911F910F9108958130910577
:1026500041F46F5F7F4F71F488EF93E00E945A1846
:102660000895892B39F46F5F7F4F21F48AE794E056
:102670000E945F08089580E090E06FEF7FEF0E9476
:102680002613089581E090E06FEF7FEF0E942613FC
:10269000089588EF93E00E94631708958CEB93E010
:1026A00040E855E260E070E00E94450C08956F92AA
:1026B0007F928F929F92AF92BF92CF92DF92EF92D2
:1026C000FF920F931F93CF93DF93EC0161E070E0D3
:1026D00080E090E023E030E040E050E00E949B1278
:1026E000162F61E070E080E090E027E030E040E00D
:1026F00050E00E949B12062F113011F58FE490E0FC
:102700000E943D0E782E692E00D000D000D0EDB78B
:10271000FEB73196BE016E577F4F82E090E0ADB7B5
:10272000BEB712969C938E9311971382128283E008
:1027300090E095838483872D962D47ED52E023C04A
:102740001230F1F58FE490E00E943D0E782E692E54
:1027500000D000D000D0EDB7FEB73196BE016E5765
:102760007F4F82E090E0ADB7BEB712969C938E93F8
:1027700011971382128283E090E095838483872DE2
:10278000962D49EE52E02FEF3FEF10E0A1E0EA2E48
:10279000F12CF1E0CF2ED12CE1E0AE2EB12C88242B
:1027A00099240E94090AFE01E153FF4F7082618261
:1027B0008DB79EB706960FB6F8949EBF0FBE8DBF1D
:1027C000C45FDE4F6881ED978881998170E00E9437
:1027D00087030E94C210AC96688379838A839B83A7
:1027E000DF91CF911F910F91FF90EF90DF90CF90ED
:1027F000BF90AF909F908F907F906F900895CF93F0
:10280000DF93EC010E94C210209108053091090568
:1028100040910A0550910B05621B730B840B950BBD
:10282000685B7B408040904090F00E94C2106093B3
:1028300008057093090580930A0590930B05FE0126
:10284000E150FF4F80819181019691838083DF91D8
:10285000CF910895AF92BF92CF92DF92EF92FF9205
:102860000F931F93CF93DF93EC010E94C2108E0150
:1028700009501F4FF8012081318142815381621B31
:10288000730B840B950BC551DF4F288139814A8129
:102890005B81CB5ED0406217730784079507B0F168
:1028A0000E94C210F801608371838283938361E088
:1028B00070E080E090E028E030E040E050E00E94EE
:1028C0009B12162F80E290E00E943D0EB82EA92E9A
:1028D0006BEF72E04FEF5FEF212F30E000E010E090
:1028E000E1E0EE2EF12CB1E0CB2ED12C0E943A0388
:1028F000C45FDE4F68818B2D9A2D70E00E948703A4
:10290000CE01CB976B2D7A2D0E94C512DF91CF910E
:102910001F910F91FF90EF90DF90CF90BF90AF90FD
:102920000895DF92EF92FF920F931F93CF93DF935F
:102930008C01F1EDEF2EF12CE80EF91EC7010E947B
:10294000E612EC012197D02E012F0DC0C701BE0168
:102950000E94EA126D2D702F0E947E03C701BE01F6
:102960000E94F2122197D7FFF1CFDF91CF911F91F3
:102970000F91FF90EF90DF9008950F931F93CF93E7
:10298000DF93EC018C0101531F4FF801808191818D
:102990000097D1F0BE010E949105F80180819181DC
:1029A000BE010E947E03F801A081B181109741F021
:1029B000ED91FC9111970084F185E02DCD010995F1
:1029C000C153DF4F19821882DF91CF911F910F9170
:1029D00008950F931F93CF93DF93EC010E94C210D1
:1029E0008E0105501F4FF8012081318142815381B2
:1029F000621B730B840B950BC151DF4F288139810A
:102A00004A815B81CF5ED0406217730784079507C8
:102A100068F00E94C210F8016083718382839383FF
:102A2000C153DF4F888199810E947809DF91CF914E
:102A30001F910F910895DF92EF92FF920F931F93D2
:102A4000CF93DF938C01A1EDEA2EF12CE80EF91E55
:102A5000C7010E94E612EC012197D02E012F09C078
:102A6000C701BE010E94EA126D2D702F0E947503EE
:102A70002197D7FFF5CFDF91CF911F910F91FF9055
:102A8000EF90DF900895BF92CF92DF92EF92FF9286
:102A90000F931F93CF93DF938C0181EDE82EF12CE0
:102AA000E00EF11EC7010E94E612EC012197B2E888
:102AB000CB2ED12CC00ED11EB02E012F2EC0C7019F
:102AC000BE010E94EA12BC01C6010E94B90388231C
:102AD00061F0C6010E94FE04C701BE010E94EA1215
:102AE0006B2D702F0E947E0313C0C701BE010E9490
:102AF000EA12FC01A081B18112962D913C911397AD
:102B00006B2D702F41E050E0F9010995882321F0E9
:102B1000C701BE010E94F2122197D7FFD0CFDF91EB
:102B2000CF911F910F91FF90EF90DF90CF90BF90CA
:102B30000895CF92DF92EF92FF920F931F93CF935E
:102B4000DF93EC01C75FDE4F8881C950D1408130EF
:102B500041F4FE01E153FF4F80819181BE010E944B
:102B6000CD06C75FDE4F8881C950D140882319F454
:102B7000CE010E9443158E0102581F4FC8010E94CA
:102B8000940BC8010E945A0B7C01C8010E94200BC3
:102B90006C0181E0E816F10481F4C153DF4F288114
:102BA0003981CF5CD0408E010F521F4FCE018E571E
:102BB0009F4FBE0142E050E016C09FEFE9169FEF25
:102BC000F90611F081E012C0C153DF4F288139812D
:102BD000CF5CD0408E010F521F4FCE018E579F4FBA
:102BE000BE0143E050E00E94920780E09FEFC916CB
:102BF0009FEFD90669F4C153DF4F28813981CF5C3B
:102C0000D040CE018E579F4FBE0145E050E01FC01F
:102C100091E0C916D10469F4C153DF4F288139818D
:102C2000CF5CD040CE018E579F4FBE0144E050E0B4
:102C30000EC0882389F0C153DF4F28813981CF5CD2
:102C4000D040CE018E579F4FBE0140E050E0CF52A2
:102C5000DF4F8E010E949207DF91CF911F910F915C
:102C6000FF90EF90DF90CF900895CF93DF93EC012A
:102C7000C75FDE4F8881C950D140882331F4CE012F
:102C80000E942A14CE010E941B15C75FDE4F888167
:102C9000C950D140813059F4CE010E94E914FE019F
:102CA000E153FF4F80819181BE010E946709CE01EF
:102CB0008E579F4FBE010E946709DF91CF91089503
:102CC000EF92FF920F931F93CF93DF93EC01FC01E0
:102CD000E55FFE4FE080E394E082FC01E951FF4FA5
:102CE0002E2D30E088EE93E0AC01249FC001259F9B
:102CF000900D349F900D1124AA2797FDA095BA2F0F
:102D00002081318142815381820F931FA41FB51FFF
:102D100080839183A283B383FE01E151FF4F208121
:102D200031814281538182E3E89E700111240027A2
:102D3000F7FC0095102F2E153F054007510748F46A
:102D40008CE291E0A0E0B0E080839183A283B38322
:102D500008C022533040404050402083318342839A
:102D60005383C55FDE4F6881CB50D14060FD12C0F8
:102D700070E080E090E00E94E4000E94A020C45F28
:102D8000DE4F0E949000CB011616170614F081E06A
:102D900090E08883DF91CF911F910F91FF90EF908A
:102DA00008950F931F93CF93DF93EC018C01075F7E
:102DB0001E4FF8018081833009F471C0CE018E5717
:102DC0009F4F0E940A05181619060CF468C083E08C
:102DD000F8018083CE010E94BD14CE010E9491149F
:102DE000CE0160E071E00E94131EC150DF4F688188
:102DF0007981CF5FD040CE010E94811E5FC0FE016D
:102E0000E153FF4F808191810E940A05181619062F
:102E10000CF44DC0FE01E150FF4FC55FDE4F8881CD
:102E2000CB50D1402AE0829FC00111242081318102
:102E3000820F931F91838083CE010E94BD14F801FD
:102E40001082CE010E9460160E94C210CD50DF4F4A
:102E5000688379838A839B8331C00E94C210CD50DE
:102E6000DF4F288139814A815B81621B730B840BA0
:102E7000950B2C97288139814A815B81C75ED040B0
:102E80006217730784079507C8F081E0F801808313
:102E9000CE010E949114CE010E9457130FC08E01E3
:102EA000075F1E4FF8018081813009F4A8CF8E01A1
:102EB000075F1E4FF8018081882379F2DF91CF915F
:102EC0001F910F9108950F931F93CF93DF93EC0100
:102ED0000E94D116FE01E75FFE4F8081823009F427
:102EE00056C08081833009F042C051C00E94C21098
:102EF00060930C0570930D0580930E0590930F055C
:102F000081E080931005CE010E943516CE010E940B
:102F10003E1FC8010E940A05BC01FE01E55FFE4F8D
:102F2000C150DF4F28813981CF5FD040CE01408131
:102F30000E94091F80911005882349F10E94C21048
:102F400020910C0530910D0540910E0550910F0513
:102F5000621B730B840B950B64367105810591051B
:102F6000B0F010921005CE010E94991510C0CE014C
:102F70000E94FF138E010E571F4FC8016AE070E0D8
:102F80000E940E05809110058823A1F6AFCFDF9136
:102F9000CF911F910F910895AF92BF92CF92DF9280
:102FA000EF92FF920F931F938C010E94BD14C801F2
:102FB0000E94911432E8E32EF12CE00EF11EC701BD
:102FC000B8010E947E03C70164E070E00E948B0399
:102FD000C70165E070E00E948F03C7016AE070E0FE
:102FE0000E940E0509511F4F80E197E2A0E0B0E07A
:102FF000F80181939193A193B19380ED97E0A0E0C4
:10300000B0E081939193A193B19381939193A19314
:10301000B1938F010E94C210F80160837183828393
:103020009383035F10402FEFA22EB12CA00EB11E90
:10303000F501118210820F5F1E4FF801119211925B
:1030400011921192119211921192119211928F017B
:1030500010820A5011409BE0C92E91E0D92EC00E7B
:10306000D11E81E0F6018083045F1E4FF801819339
:103070008F0110820E94C21006511040F801608337
:10308000718382839383075F1040C7010E940A0502
:10309000BC01F50120813181C801F60140810E9407
:1030A000E61E1F910F91FF90EF90DF90CF90BF90A1
:1030B000AF9008954F925F926F927F928F929F92FE
:1030C000AF92BF92CF92DF92EF92FF920F931F9336
:1030D0003C010E946C1FAEE74A2E512C460C571C37
:1030E000C2010E94AA0B00D000D082E090E0EDB7B0
:1030F000FEB7928381838AE090E094838383C30147
:103100008E579F4F6DE073E041E050E024E030E0E7
:1031100005E010E0F1E0EF2EF12CCC24DD24AA2410
:10312000BB24E2E08E2E912C0E94560A8FEC90E098
:10313000680E791EF3011182108281E39FEF680E01
:10314000791E0F900F900F900F90C3018F529F4FD9
:103150000E94C112E7EEF0E06E0E7F1E80E197E262
:10316000A0E0B0E0F30181939193A193B19380ED3E
:1031700097E0A0E0B0E081939193A193B193819304
:103180009193A193B1933F010E94C210F301619307
:1031900071938193919311921192119211921192C4
:1031A0001192119211921192119211921192119207
:1031B0001192119211921192119282E081931192C7
:1031C00081E0819381933F01108283EF9EEF680E2F
:1031D000791E80E00E9415110E94B91270920705B5
:1031E00060920605C2016DEC79E10E941A0BC201E2
:1031F00062E179E10E94140BC30161E171E041E2F7
:1032000051E00E94271E1F910F91FF90EF90DF90D9
:10321000CF90BF90AF909F908F907F906F905F9076
:103220004F9008950F931F93CF93DF930E94C21086
:10323000209111053091120540911305509114050C
:10324000621B730B840B950B6C5271408040904055
:1032500008F49EC00E94C21060931105709312057D
:103260008093130590931405C0910605D09107052E
:10327000FE01E75FFE4F8081823009F049C00E9465
:10328000C21000910605109107050F5F1E4FF8014F
:10329000208131814281538101501140621B730BA7
:1032A000840B950BF801EB5FFE4F60837183828383
:1032B000938380819181A281B381F801ED50FF4F0A
:1032C0002081318142815381820F931FA41FB51F3A
:1032D00080839183A283B383065F1E4FF8018081B0
:1032E00082938F0109501140C8018E579F4F0E9451
:1032F0000A05BC01E0910605F0910705E150FF4F7A
:1033000020813181C8013C9640810E94E61E40C068
:103310008081833021F4CE010E94CC1739C00E94F5
:10332000C210CF5FDE4F688379838A839B830091CD
:10333000060510910705075F1E4FF80181918F0167
:1033400080830E94C2100F501040F8016083718387
:103350008283938300910605109107050E94C21095
:1033600009501F4FF8016083718382839383E0913A
:103370000605F0910705E75FFE4F82E08083E95084
:10338000F140CF016FE271E040E451E00E94271E5E
:10339000DF91CF911F910F9108958091150588239A
:1033A000A1F485E195E00E942C0E892B71F00E941A
:1033B000C21060931D0570931E0580931F059093A6
:1033C000200585E195E00E94360E0E94C2102091F2
:1033D0001D0530911E0540911F0550912005621B6F
:1033E000730B840B950B643671058105910590F084
:1033F0000E94C21060931D0570931E0580931F05E7
:103400009093200580910605909107058E579F4F58
:103410000E94780908958F929F92AF92BF92CF92A7
:10342000DF92EF92FF920F931F93DF93CF9300D021
:10343000CDB7DEB77C0149832A83660F771F86E507
:1034400090E0E80EF91EF701008111818AEA9FEFF2
:10345000E80EF91E000F111F80E090E005C0F70193
:10346000E80FF91F1082019680179107C4F3898134
:10347000F701E60FF71F81838A818083F701EC5AF9
:10348000FF4F808160E00E940312015010406701ED
:10349000C00ED11E0F5F1F4F90E5892E912C8E0C10
:1034A0009F1C82E5A82EB12CAE0CBF1C0EC0015093
:1034B0001040F4018081F501608141E0F601208136
:1034C0000E9436120894C108D108101611067CF328
:1034D00084E590E0E80EF91EF701808161E00E942A
:1034E00003120F900F90CF91DF911F910F91FF90DA
:1034F000EF90DF90CF90BF90AF909F908F90089506
:10350000DC0177FD1CC0AA5ABF4F8D919C91119789
:10351000A655B0406817790794F44830510578F4FF
:10352000FB0193E0EE0FFF1F9A95E1F7EA0FFB1FF7
:10353000E40FF51F208B4F5FCD010E940B1A0895F9
:10354000DF92EF92FF920F931F93CF93DF93EC01E3
:103550007B0177FD22C0CA5ADF4F88819981C65509
:10356000D04068177907CCF48B010E5F1F4F53E0F2
:10357000000F111F5A95E1F70C0F1D1FDD24D39486
:10358000F80111928F01CE01B7014D2D20E00E946C
:103590000B1AD394F9E0DF1699F7DF91CF911F91C1
:1035A0000F91FF90EF90DF900895FC019A0177FD55
:1035B00010C0EA5AFF4F80819181E655F0406817AC
:1035C00079073CF44031510520F4CF014AE00E94D4
:1035D0000B1A0895FC019A0177FD10C0EA5AFF4FBB
:1035E00080819181E655F040681779073CF44830B6
:1035F000510520F4CF014BE00E940B1A0895FC0105
:1036000077FD16C0EA5AFF4F80819181E655F04060
:10361000681779076CF4442331F0CF014CE020E0C7
:103620000E940B1A0895CF014CE021E00E940B1A72
:103630000895CF92DF92EF92FF920F931F93CF9353
:10364000DF93EC016B01C05BDF4F69937993499382
:10365000599339832883C455D040C80101970897EE
:1036600010F008E010E0CA5ADF4F19830883C655EE
:10367000D0408E01005B1F4FF801808161E00E9405
:103680009711FE01EE5AFF4F808161E00E94971171
:1036900074E5E72EF12CEC0EFD1EF701808161E050
:1036A0000E949711F701808161E00E940312F801E6
:1036B000D182C082FE0180E090E0108A01963196AE
:1036C00080349105D1F700E010E066E5C62ED12CDC
:1036D000CC0EDD1E1DC0CE01B8014FE020E00E94DF
:1036E0000B1ACE01B80147E050E00E94EA1ACE0161
:1036F000B80149E020E00E940B1ACE01B8010E94F7
:10370000A01ACE01B80141E00E94FF1A0F5F1F4FBF
:10371000F6018081918108171907ECF2DF91CF91B2
:103720001F910F91FF90EF90DF90CF9008950F932E
:103730001F938C01FC01868160E00E94031281E0EE
:1037400090E00E94D010F801868161E00E9403128F
:1037500081E090E00E94D010F801868160E00E9434
:10376000031284E690E00E94D0101F910F910895FB
:10377000CF92DF92EF92FF920F931F93CF93DF933D
:10378000D82EC92E282F392FC9018C01C0E0D0E0D6
:10379000E62EFF24B7010C2E02C0759567950A949A
:1037A000E2F76170F80187810E94031221960F5F92
:1037B0001F4FC830D10571F78D2D9C2D0E94971B8E
:1037C000DF91CF911F910F91FF90EF90DF90CF90FD
:1037D0000895CF92DF92EF92FF920F931F93CF93B2
:1037E000DF93D82EC92E282F392FC9018C01C0E0B4
:1037F000D0E0E62EFF24B7010C2E02C07595679528
:103800000A94E2F76170F80187810E940312219601
:103810000F5F1F4FC430D10571F78D2D9C2D0E9475
:10382000971BDF91CF911F910F91FF90EF90DF9049
:10383000CF9008951F93CF93DF93EC01162F8C81C7
:10384000642F0E9403128D818F3F19F060E00E9467
:1038500003128F8584FF05C0CE01612F0E94B81B23
:103860000EC0612F70E084E0759567958A95E1F749
:10387000CE010E94E91BCE01612F0E94E91BDF915E
:10388000CF911F91089541E00E941A1C81E090E0C1
:10389000089540E00E941A1C0895EF92FF920F9342
:1038A0001F93CF93DF938C017A016770660F660FC9
:1038B000660F60640E94491CC0E0D0E0D801ED9121
:1038C000FC91D701AC0FBD1F0190F081E02DC80124
:1038D0006C9109952196C830D10581F7DF91CF9180
:1038E0001F910F91FF90EF900895FC0161896D7F0A
:1038F000618B64600E94491C0895FC016189862FD8
:103900008260818B6660CF010E94491C0895FC0192
:103910006089862F8460808B6C60CF010E94491C77
:103920000895DC01443008F043E053968C9153979E
:10393000481710F0482F4150FD01E40FF11D848914
:10394000680F6068CD010E94491C089561E00E94E3
:10395000491C80ED97E00E94D0100895EF92FF92ED
:103960000F931F93CF93DF93EC01423018F08F85B4
:1039700088608F874B8B1C8A80E48D8B6E8B862FA3
:1039800090E0805C9F4F8F8B222329F0413019F407
:103990008F8584608F878C8161E00E9497118D8173
:1039A0008F3F19F061E00E9497118E8161E00E94C3
:1039B00097117E0100E010E007C0F701868161E009
:1039C0000E9497110F5F1F4F8F8584FD03C084E015
:1039D00090E002C088E090E00894E11CF11C081718
:1039E00019075CF380E593EC0E94D0108C8160E0B5
:1039F0000E9403128E8160E00E9403128D818F3F2E
:103A000019F060E00E9403126F8564FD1DC0CE01B5
:103A100063E00E94E91B84E991E10E94D010CE018D
:103A200063E00E94E91B84E991E10E94D010CE017D
:103A300063E00E94E91B86E990E00E94D010CE016D
:103A400062E00E94E91B16C06062CE010E94491C20
:103A500084E991E10E94D0106F856062CE010E94DE
:103A6000491C86E990E00E94D0106F856062CE010B
:103A70000E94491C6F856062CE010E94491C84E04F
:103A8000888BCE010E94871CCE010E94A61C82E07A
:103A9000898BCE0166E00E94491CDF91CF911F9176
:103AA0000F91FF90EF9008958F92AF92CF92EF9287
:103AB0000F93DF93CF93CDB7DEB7FC01448325830B
:103AC0000683E782C086A18682868A8583878B8566
:103AD00084878C8585878D858687662311F0178678
:103AE00002C080E18787CF0160E141E020E00E94D1
:103AF000AE1CCF91DF910F91EF90CF90AF908F9050
:103B000008958F92AF92CF92EF920F931F93CF931E
:103B1000DF93DC01362F542F722F102FAE2C8C2CFC
:103B200013961C921E92129783E293E011969C9337
:103B30008E9300D000D0EDB7FEB73196CDB7DEB78B
:103B40001982118212821382CD0161E0432F2FEF7F
:103B5000052FE72EC12E0E94541D0F900F900F903D
:103B60000F90DF91CF911F910F91EF90CF90AF9079
:103B70008F9008959C01E0E0F0E017C0CF0153E082
:103B8000880F991F5A95E1F7EE0FFF1FE80FF91FF5
:103B9000C9016AE070E00E94FB1FE80FF91FC9012C
:103BA0006AE070E00E94FB1F9B012115310531F78F
:103BB000CF010895FC0177FD18C0808191816817BD
:103BC00079079CF457FD11C08281938148175907EA
:103BD00064F4E60FF71F81E090E002C0880F991FA0
:103BE0004A95E2F72681282B26830895FC0177FD6C
:103BF00019C08081918168177907A4F457FD12C01C
:103C000082819381481759076CF4E60FF71F81E012
:103C100090E002C0880F991F4A95E2F780952681AF
:103C2000822386830895EF92FF920F931F937B0167
:103C30008C010A591F4FC8010E94A61CC801B70178
:103C40000E94660F1F910F91FF90EF900895CF9201
:103C5000DF92EF92FF920F931F938B016A0166E64A
:103C6000E62EF12CE80EF91EC7010E94A61CC70122
:103C7000B8010E94660FC70160E041E00E94911CFC
:103C8000C701B6010E94660F1F910F91FF90EF9040
:103C9000DF90CF900895EF92FF920F931F93CF93F1
:103CA000DF937B018C010A591F4FC80160E040E09F
:103CB0000E94911CC0E0D0E0C80160E20E94431C59
:103CC0002196C031D105C1F7CE018E199F0962E05E
:103CD00070E00E94FB1FC80140E00E94911CC0E000
:103CE000D0E005C0C80161E00E94431C2196CE15BA
:103CF000DF05C4F3DF91CF911F910F91FF90EF90FB
:103D00000895EF92FF920F931F93CF93DF937B0160
:103D1000EC01CA59DF4FCE010E94751CCE016FE045
:103D200041E00E94911CCE0161E571E00E94660FA6
:103D3000CE016FE041E00E94911CE114F10499F082
:103D400087010AC0CE0160E30E94431CC8016AE0FB
:103D500070E00E94FB1F8B01C8016AE070E00E94C6
:103D6000FB1F892B79F3C7010E94BA1DBC01CE014C
:103D70004AE050E00E94530FCE016BE571E00E94D3
:103D8000660FCE010E947D1CDF91CF911F910F9194
:103D9000FF90EF900895FF920F931F93F62E8C01E2
:103DA0000A591F4FC80160E041E00E94911CC80100
:103DB00060E671E00E94660FC8016F2D4AE050E096
:103DC0000E94010F1F910F91FF900895BF92CF9213
:103DD000DF92EF92FF920F931F938C017B01B42E21
:103DE00069018A599F4F0E94A61CC801B7010E9411
:103DF0004B1EC8016B2D0E94CB1EC801B6010E944C
:103E0000811E1F910F91FF90EF90DF90CF90BF9098
:103E10000895FF920F931F93CF93DF938C01F42E9D
:103E2000E90180912205909123056817790739F0FF
:103E30007093230560932205C8010E944B1E809158
:103E40002105F81631F0F0922105C8016F2D0E946E
:103E5000CB1E8091790290917A02C817D90741F060
:103E6000D0937A02C0937902C801BE010E94811EDC
:103E7000DF91CF911F910F91FF900895CF92DF9224
:103E8000EF92FF920F931F93CF93DF938C017EE00D
:103E9000C72ED12CC80ED91E7C01C0E0D0E00AC0CC
:103EA000F80164817581C601AE01F70125810E9488
:103EB000801A21960894E11CF11CF80180819181FF
:103EC000C817D9076CF3DF91CF911F910F91FF9025
:103ED000EF90DF90CF9008958F929F92AF92BF9214
:103EE000CF92EF920F931F93CF93DF93EC0188E073
:103EF00090E0998388839B838A831D821C82BEE025
:103F00008B2E912C8C0E9D1EC4016CE070E04BE05A
:103F100050E02AE030E001E010E00E94191BA6E624
:103F2000AA2EB12CAC0EBD1EC50164E045E026E012
:103F300007E0FDE0EF2EE8E0CE2E0E94811DFE019D
:103F400020E030E003C015822F5F3F4F319688811B
:103F5000998128173907BCF36C817D81C40140E049
:103F60000E94FF1A6C817D81C40148E050E00E94EC
:103F7000D51AC50161E041E752E00E944D1CC50120
:103F800060E142E020E00E94AE1CC5010E94A61C38
:103F900089E061E00E94971189E06AE570E00E9483
:103FA0003711DF91CF911F910F91EF90CF90BF907C
:103FB000AF909F908F900895629FD001739FF00102
:103FC000829FE00DF11D649FE00DF11D929FF00DA9
:103FD000839FF00D749FF00D659FF00D9927729FE0
:103FE000B00DE11DF91F639FB00DE11DF91FBD016B
:103FF000CF011124089597FB092E07260AD077FDDB
:1040000004D049D006D000201AF4709561957F4FF6
:104010000895F6F7909581959F4F0895A1E21A2E85
:10402000AA1BBB1BFD010DC0AA1FBB1FEE1FFF1F5C
:10403000A217B307E407F50720F0A21BB30BE40BAC
:10404000F50B661F771F881F991F1A9469F76095F3
:104050007095809590959B01AC01BD01CF010895AD
:1040600097FB092E05260ED057FD04D0D7DF0AD0C6
:10407000001C38F450954095309521953F4F4F4F97
:104080005F4F0895F6F790958095709561957F4FF5
:104090008F4F9F4F0895AA1BBB1B51E107C0AA1F5A
:1040A000BB1FA617B70710F0A61BB70B881F991FD9
:1040B0005A95A9F780959095BC01CD0108952F924E
:1040C0003F924F925F926F927F928F929F92AF92A8
:1040D000BF92CF92DF92EF92FF920F931F93CF93F5
:1040E000DF93CDB7DEB7CA1BDB0B0FB6F894DEBF8C
:1040F0000FBECDBF09942A88398848885F846E84B2
:104100007D848C849B84AA84B984C884DF80EE80FB
:10411000FD800C811B81AA81B981CE0FD11D0FB604
:10412000F894DEBF0FBECDBFED010895EE0FFF1F67
:104130000590F491E02D099411F40EF44FC040C0A5
:104140005FD0D0F39923D9F3CEF39F57550B87FF58
:1041500048D00024A0E640EA202D312D8058569505
:10416000979528F4805C660F771F881F20F026172C
:104170003707480730F4621B730B840B2029312961
:104180004A2BA69517940794202531254A2758F7DE
:10419000660F771F881F20F026173707480730F46F
:1041A000620B730B840B200D311D411DA09581F70F
:1041B000622F732F842F9158880F969587950895B5
:1041C0009F3F31F0915020F4879577956795B7958B
:1041D000880F911D9695879597F908959FEF80EC2C
:1041E000089591505040660F771F881FD2F70895A9
:1041F00057FD9058440F551F59F05F3F71F0479598
:10420000880F97FB991F61F09F3F79F0879508957C
:10421000121613061406551FF2CF4695F1DF08C09B
:10422000161617061806991FF1CF869571056105B8
:1042300008940895CF93DF93682F792F82309105EA
:1042400010F462E070E0A0912605B0912705CA2F16
:10425000DB2FE0E0F0E040E050E026C0888199816B
:104260008617970771F48A819B81309719F09383A1
:10427000828304C09093270580932605EC2FFD2FA1
:104280003BC06817790740F44115510519F08417B0
:10429000950710F4482F592FEC2FFD2F8A819B8111
:1042A000282F392FC22FD32F2097C1F64115510542
:1042B000E9F1842F952F861B970B049710F4642F38
:1042C000752FE0E0F0E030C08D919C91119784173C
:1042D000950711F56417750789F412968D919C91D5
:1042E0001397309719F09383828304C09093270526
:1042F00080932605EA2FFB2F329657C0842F952FE7
:10430000861B970BEA2FFB2FE80FF91F6193719320
:1043100002978D939C9349C0EA2FFB2F8281938152
:10432000282F392FA22FB32F109771F680912405D3
:1043300090912505892B41F4809167029091680244
:1043400090932505809324054091690250916A025B
:104350004115510541F44DB75EB7809165029091CA
:104360006602481B590B209124053091250524171E
:104370003507C8F4842F952F821B930B8617970758
:1043800090F0462F572F4E5F5F4F8417950758F0D8
:10439000420F531F5093250540932405E22FF32F1E
:1043A0006193719302C0E0E0F0E08E2F9F2FDF91C8
:1043B000CF910895CF93DF93009709F456C0C82F8B
:1043C000D92F22971B821A82A0912605B09127052A
:1043D000109711F140E050E0AC17BD0710F1BB831E
:1043E000AA83EC2FFD2F21913191E20FF31FAE171D
:1043F000BF0779F48D919C911197280F391F2E5F7B
:104400003F4F3983288312968D919C9113979B83FC
:104410008A834115510581F4D0932705C093260561
:1044200024C012968D919C9113974A2F5B2F009771
:1044300019F0A82FB92FD0CFE42FF52FD383C28343
:1044400021913191E20FF31FCE17DF0771F48881BC
:104450009981280F391F2E5F3F4FE42FF52F3183AD
:1044600020838A819B8193838283DF91CF910895FA
:10447000A0E0B0E0EDE3F2E22ACEC82FD92FA88069
:10448000B980CA80DB80A114B104C104D10441F415
:1044900084E2A82E89EDB82E8BE5C82E87E0D82EB1
:1044A0009D2D8C2D7B2D6A2D2DE133EF41E050E0C9
:1044B000D7DD27EA31E440E050E07EDDE62EF72E3E
:1044C000082F192F9D2D8C2D7B2D6A2D2DE133EF7B
:1044D00041E050E0C5DD952F842F732F622F2CEE25
:1044E00034EF4FEF5FEF68DD6E0D7F1D801F911F72
:1044F00097FF04C061507040804090486883798382
:104500008A839B83262F372F482F592F5F77622F5F
:10451000732F842F952FCDB7DEB7EAE0F4CDA8DF57
:1045200008958BE692E0A4DF089560936B02709388
:104530006C0280936D0290936E02089510E0CAECB5
:10454000D0E004C0FE010E9498202296CC3CD10706
:06455000C9F7F894FFCF4B
:1045560047414D45204F5645522E52455452593FDC
:1045660000505245535320425554544F4E20544FF9
:1045760000202020424547494E2047414D450047EF
:10458600414D452050415553452E505245535300F9
:10459600425554544F4E20544F20524553554D4585
:1045A60000202020202020202020003A52435300C3
:1045B6004C564C3A000001020203030303040404B0
:1045C600040404040405050505050505050505059A
:1045D600050505050506060606060606060606067A
:1045E6000606060606060606060606060606060665
:1045F600060606060607070707070707070707074A
:104606000707070707070707070707070707070734
:104616000707070707070707070707070707070724
:104626000707070707070707070707070707070714
:1046360007070707070808080808080808080808F9
:1046460008080808080808080808080808080808E4
:1046560008080808080808080808080808080808D4
:1046660008080808080808080808080808080808C4
:1046760008080808080808080808080808080808B4
:1046860008080808080808080808080808080808A4
:104696000808080808080808080808080808080894
:1046A6000808080808080808080808080808080884
:1046B600080808080820002805000001000000FF7F
:1046C600011B1F1F0E04000000010000000000A2D5
:1046D6000A6808B9034508340800000000A20A1257
:1046E60005B903E207B607000000008E0A93038EA1
:1046F600047905880500000000A20A9303B903F9AE
:10470600027F0500000000A20A1205B9035F084EE9
:104716000800000000360D400ECC0CFD0CDD0C260A
:104726000D00000000DB0D0100010001000000018A
:104736000000000000000000000000010000000171
:10474600000100010000000000000001000100005F
:104756000001000100000000000000000000000150
:10476600000000010001000100010000000100003E
:08477600000000431C400E008E
:00000001FF
