:100000000C9466000C94630C0C94900C0C948E0071
:100010000C948E000C948E000C948E000C94E40BC7
:100020000C948E000C948E000C948E000C948E0018
:100030000C948E000C948E000C948E000C948E0008
:100040000C94BD0C0C948E000C9455080C94A308D1
:100050000C948E000C948E000C948E000C948E00E8
:100060000C948E000C948E000200000000240027E7
:10007000002A0000000000250028002B00000000DE
:1000800000230026002900040404040404040402DC
:100090000202020202030303030303010204081025
:1000A00020408001020408102001020408102000F2
:1000B0000000070002010000030406000000000029
:1000C000000000000F0A650A9A0F930F11241FBE4B
:1000D000CFEFD8E0DEBFCDBF11E0A0E0B1E0E8E5B2
:1000E000F8E202C005900D92A838B107D9F713E0E5
:1000F000A8E8B1E001C01D92A938B107E1F710E00E
:10010000CAECD0E004C02297FE010E94FD12C43C5C
:10011000D107C9F70E94B60A0C941F140C94000072
:10012000FC0186E391E0918380830895CF92DF9272
:10013000EF92FF920F931F93FC0186E391E091836E
:100140008083358B248B178B068BF18EE08ED38EBC
:10015000C28E558F448F81E090E0978F868FDB01B0
:1001600020E030E08D919C911197938382831296C9
:100170008D919C9113979583848314968D919C9176
:100180001597978386832F5F3F4F369616962330B9
:10019000310541F71F910F91FF90EF90DF90CF90C5
:1001A0000895DC01ED91FC910190F081E02D41E09A
:1001B00009950895DC01ED91FC910190F081E02D0D
:1001C00040E0099508950F931F938C01DC01ED9198
:1001D000FC910190F081E02D40E00995F801268D19
:1001E000378D848D958DA901489F9001499F300DD1
:1001F000589F300D112486899789821B930B978B0A
:10020000868B20E0099708F021E0822F1F910F9143
:1002100008952F923F924F925F926F927F928F92AA
:100220009F92AF92BF92CF92DF92EF92FF920F9385
:100230001F93DF93CF93CDB7DEB728970FB6F8940F
:10024000DEBF0FBECDBF6C017B0121E030E0FC01C1
:10025000828D938DA901481B590B5C834B83808D44
:10026000918DF901E81BF90BFA83E983FB01828D7B
:10027000938D1901281A390A808D918D2901481A08
:10028000590A1E821D826BC0A114B10469F1EF816D
:10029000F88580819181892B39F1F601268937898A
:1002A0008B819C81280F391F260D371DF701868908
:1002B0009789820D931D860F971F28173907A1F480
:1002C000F6012489358989819A81280F391F280DE3
:1002D000391DF70184899589840D951D840F951F1B
:1002E0002817390709F450C04F5F5F4F2F813885B9
:1002F0002E5F3F4F38872F834230510529F66F5FBD
:100300007F4F6230710591F0CB010196AC01440F33
:10031000551F480F591F4F5F5F4F440F551F4E0D1C
:100320005F1D58874F834FEF5FEFAECF0F5F1F4FBB
:1003300012960330110551F0480108948108910884
:10034000AD90BC9011976FEF7FEFDECF8D819E81D6
:1003500001969E838D83039711F480E016C06D8013
:100360007E80089461087108AD81BE81AA0FBB1F11
:10037000ED81FE81AE0FBF1F1196AA0FBB1FAC0D02
:10038000BD1D00E010E0D8CF81E028960FB6F894AC
:10039000DEBF0FBECDBFCF91DF911F910F91FF90B8
:1003A000EF90DF90CF90BF90AF909F908F907F9015
:1003B0006F905F904F903F902F9008958F929F92F3
:1003C000AF92BF92CF92DF92EF92FF920F931F9363
:1003D000CF93DF938C01DB0181E090E05A962D9161
:1003E0003C915B975C01A21AB30A58962D913C91FF
:1003F00059976C01C21AD30A60E070E030C0A401C2
:100400004A010894811C911C80819181892BD9F02B
:1004100056968D919C9157978A0D9B1D8E0D9F1D11
:10042000E8012E893F892817390769F454968D9180
:100430009C9155978C0D9D1D840F951F2C893D898E
:1004400028173907E9F0329682E088169104B9F648
:100450006F5F7F4F6330710511F480E012C07B0144
:100460000894E108F108FB01EE0FFF1FE60FF71FEC
:100470003196EE0FFF1FEA0FFB1F4FEF5FEFC0CF6C
:1004800081E0DF91CF911F910F91FF90EF90DF906E
:10049000CF90BF90AF909F908F900895FC0180A562
:1004A000882339F480A191A1019791A380A381E0D1
:1004B00080A708950F931F93CF93DF93EC018A01D8
:1004C000E881F9810190F081E02D40E009952CA1AF
:1004D0003DA1688D798D8EA19FA14AA15BA1EA8D76
:1004E000FB8D0230110589F48C899D894E8D5F8DBD
:1004F000280F391F261B370B241B350B37FD3BC03C
:10050000841B950B9D8B8C8B36C00330110589F4B1
:100510004C895D892E8D3F8D840F951F820F931F0F
:10052000861B970B08973CF5240F351F3D8B2C8BB2
:1005300022C00430110559F42E893F898E8D9F8D7C
:10054000281B390B37FD17C03F8B2E8B14C005308D
:10055000110589F42E893F898E8D9F8D420F531F7F
:10056000480F591F4E1B5F0B4830510524F4820F72
:10057000931F9F8B8E8B80E0DF91CF911F910F9106
:100580000895FC0186E391E0918380830895FC0146
:1005900086E391E0918380830895FC0186E391E0F6
:1005A000918380830895FC0186E391E091838083A9
:1005B0000895FC0186E391E091838083CF010E943E
:1005C000D30A0895FC0186E391E091838083CF01F3
:1005D0000E94D30A0895FC0186E391E09183808311
:1005E000CF010E94D30A0895FC0186E391E0918334
:1005F0008083CF010E94D30A0895FC0186E391E035
:1006000091838083CF010E94D30A0895EF92FF92D5
:100610000F931F93CF93DF937B018C01075D1F4FD7
:10062000C8010E94C30EEC0107C0C801BE010E94B0
:10063000C70EB7010E94D1002197D7FFF6CFDF91F7
:10064000CF911F910F91FF90EF9008957F928F921D
:100650009F92AF92BF92CF92DF92EF92FF920F9351
:100660001F93CF93DF93EC015B01790168010E9436
:100670005A02E114F10409F1E881F9810480F5815D
:10068000E02DCE01B7010995882309F44BC0F7018D
:1006900080A5882339F480A191A1019791A380A31B
:1006A00081E080A788A58823E9F588A199A1019711
:1006B00099A388A381E088A735C00115110591F1A0
:1006C000C8010E94C30E7C010894E108F1084E01A4
:1006D0007724739425C0E881F98104811581C601CE
:1006E000B7010E94C70EBC01C401F8010995882317
:1006F000A1F088A5882331F488A199A1019799A335
:1007000088A378A6C601B7010E94C70EB5010E9452
:10071000DA00C601B7010E94CF0E0894E108F10883
:10072000F7FED9CFDF91CF911F910F91FF90EF90FE
:10073000DF90CF90BF90AF909F908F907F90089563
:10074000EF92FF920F931F93CF93DF937B018C0166
:10075000075D1F4FC8010E94C30EEC0116C0C801FF
:10076000BE010E94C70EFC01A081B18112962D919D
:100770003C911397B70141E050E0F90109958823B6
:1007800021F0C801BE010E94CF0E2197D7FFE7CF0D
:10079000DF91CF911F910F91FF90EF900895BF923D
:1007A000CF92DF92EF92FF920F931F93CF93DF933D
:1007B0008C016B010E94A00369E2E62EF12CE00E91
:1007C000F11EC7010E94C30EEC012197035B1F4F6E
:1007D000BB24B3942BC0C701BE010E94C70EDC012D
:1007E0008D919C911197F80160817181FC012481A8
:1007F0003581CD01F90109958823B9F0D801ED9132
:10080000FC9180A5882331F480A191A1019791A347
:1008100080A3B0A6C701BE010E94C70EB6010E9408
:10082000DA00C701BE010E94CF0E2197D7FFD3CFB8
:10083000DF91CF911F910F91FF90EF90DF90CF90BC
:10084000BF900895EF92FF920F931F938C017B014D
:10085000DC01ED91FC910280F381E02D41E050E05C
:100860000995C801B7010E94CF031F910F91FF9016
:10087000EF9008956F927F928F929F92AF92BF9266
:10088000CF92DF92EF92FF920F931F93CF93DF935C
:10089000EC013B018A0159010E94A00301151105D9
:1008A00009F440C0E9E2CE2ED12CCC0EDD1EC601EB
:1008B0000E94C30EEC012197B02EE12EAA24A3942E
:1008C0002EC0C601BE010E94C70EFC01A081B181ED
:1008D00014962D913C9115976B2D7E2DF90109955C
:1008E0008823E1F0D80198968C919897882359F441
:1008F00090968D919C919197019791969C938E9350
:1009000090979896AC92C601BE010E94C70EB301A3
:100910000E94DA00C601BE010E94CF0E2197D7FFC8
:10092000D0CF46C0A114B10409F442C079E2872EA9
:10093000912C8C0E9D1EC4010E94C30E6C0133C00D
:10094000C5010E94C30EEC012BC0C401B6010E9478
:10095000C70E8C01DC01ED91FC91E480F580C501AE
:10096000BE010E94C70EBC01C801F701099588238A
:10097000B9F0C401B6010E94C70EB3010E94DA00AB
:10098000C401B6010E94CF0EC501BE010E94C70E70
:10099000B3010E94DA00C501BE010E94CF0E03C060
:1009A0002197D7FFD2CF0894C108D108D7FEC8CF6E
:1009B000DF91CF911F910F91FF90EF90DF90CF903B
:1009C000BF90AF909F908F907F906F900895AF925F
:1009D000BF92CF92DF92EF92FF920F931F93CF932C
:1009E000DF936C015B01E90178014115510511F0BC
:1009F0000E942603C601B501AE0197010E943A0488
:100A0000DF91CF911F910F91FF90EF90DF90CF90EA
:100A1000BF90AF9008950F931F93CF93DF93EC0196
:100A20008B010E94050D2091880130918901409130
:100A30008A0150918B01621B730B840B950B685ECE
:100A400073408040904008F44BC00E94050D6093B5
:100A500088017093890180938A0190938B01C35B15
:100A6000DF4FE881F981CD54D0402C893D898489BC
:100A70009589281B390B37FF05C0CE01B80143E02B
:100A800050E006C0232B31F0CE01B80142E050E027
:100A90000E945A02E881F9818E01035B1F4FD80141
:100AA0006D917C910480F581E02DCE01099588231C
:100AB000B9F0D801ED91FC9180A5882339F480A18B
:100AC00091A1019791A380A381E080A788A58823A5
:100AD00039F488A199A1019799A388A381E088A7F7
:100AE00080E0DF91CF911F910F910895EF92FF92D7
:100AF0000F931F93CF93DF93EC0188A5882351F1C7
:100B00008E01005C1F4FF8018081A9E4EA2EF12CD0
:100B1000EC0EFD1E882351F481E080830E94050DB8
:100B2000F701608371838283938313C00E94050D54
:100B3000F7012081318142815381621B730B840B49
:100B4000950B685E73408040904018F0F801108269
:100B500018A681E0DF91CF911F910F91FF90EF9048
:100B60000895AF92BF92CF92DF92EF92FF920F93D0
:100B70001F93CF93DF93EC015B01B5E4CB2ED12C17
:100B8000C80ED91EF601E080F180028113810E9417
:100B9000050DE61AF70A080B190BF9ECEF16F1042C
:100BA00001051105A0F00E94050DF6016083718317
:100BB00082839383E881F9810190F081E02DCE0159
:100BC000B5014FAD09958FAD91E089278FAFDF91CA
:100BD000CF911F910F91FF90EF90DF90CF90BF903A
:100BE000AF9008950F931F93CF93DF93EC018B0188
:100BF0000E947605882329F0CE01B8010E94B10534
:100C000004C0CE01B8010E94D100DF91CF911F91A5
:100C10000F910895EF92FF920F931F938C017B0128
:100C20000E940603C801B7010E94F2051F910F91AF
:100C3000FF90EF9008950F931F93CF93DF93EC01F4
:100C40000E94050D8E010F5B1F4FF801208131813D
:100C500042815381621B730B840B950B6C52714064
:100C60008040904040F10E94050DF801608371833F
:100C70008283938380E290E00E94D60AFC014C8933
:100C80005D892C8D3D8D8E899F890196821B930BEA
:100C9000558B448B978B868B358F248F81E090E02A
:100CA000978F868F88E291E091838083CE01899629
:100CB000BF010E94A20EDF91CF911F910F91089565
:100CC0006F927F928F929F92AF92BF92CF92DF925C
:100CD000EF92FF920F931F93DF93CF93CDB7DEB7C1
:100CE0003C010E9496008AE191E0F30191838083A8
:100CF0008B899C8991A380A389899A8993A382A3D4
:100D0000B5A2A4A297A286A2C30189960E949E0EB4
:100D100081E0F30187AF80E490E0680E791EF30173
:100D200011921192119211921192119211921192AB
:100D300011921082118212821382CF91DF911F9142
:100D40000F91FF90EF90DF90CF90BF90AF909F906A
:100D50008F907F906F9008954F925F926F927F92E5
:100D60008F929F92AF92BF92CF92DF92EF92FF92BB
:100D70000F931F93DF93CF93CDB7DEB73C012B01C9
:100D800000D000D08D899E89EDB7FEB79283818314
:100D90008F89988D94838383C301BA01A901980137
:100DA00087017601650154018B889C880E9460064A
:100DB0008CE091E0F301918380838DE490E0680EF4
:100DC000791EF301518240820F900F900F900F9087
:100DD000CF91DF911F910F91FF90EF90DF90CF9017
:100DE000BF90AF909F908F907F906F905F904F904B
:100DF00008956F927F928F929F92AF92BF92CF92FF
:100E0000DF92EF92FF920F931F93DF93CF93CDB7B3
:100E1000DEB73C0100D000D089899A89EDB7FEB7D2
:100E2000928381838B899C8994838383C3010E94ED
:100E3000600684E491E0F301918380830F900F902A
:100E40000F900F90CF91DF911F910F91FF90EF9036
:100E5000DF90CF90BF90AF909F908F907F906F90DA
:100E60000895FC01268937890488F589E02D4423FB
:100E700031F0CB01B901AF010E9413120895CB01EB
:100E8000B901AF010E942F1208955F926F927F9275
:100E90008F929F92AF92BF92CF92DF92EF92FF928A
:100EA0000F931F93CF93DF937C013B01542E81E07E
:100EB00090E0F701228D338D4C01821A930A208D28
:100EC000318D5C01A21AB30A0FEF1FEF31C09601FA
:100ED00069010894C11CD11C88819981892BF1F08A
:100EE000F7016689778944895589552061F0680D35
:100EF000791D600F711F4A0D5B1D420F531FC30107
:100F00000E9413120BC0680D791D600F711F4A0DEE
:100F10005B1D420F531FC3010E942F122296F2E065
:100F2000CF16D104A1F60F5F1F4F0230110579F0E3
:100F3000C8010196EC01CC0FDD1FC80FD91F219607
:100F4000CC0FDD1FCE0DDF1D2FEF3FEFC1CFDF91A7
:100F5000CF911F910F91FF90EF90DF90CF90BF90B6
:100F6000AF909F908F907F906F905F90089580E0FA
:100F700042E050E00E94400C0895CF93DF93EC01D3
:100F80008A819B81835A9E4F8B5B924050F10E94D5
:100F9000050D20918C0130918D0140918E01509171
:100FA0008F01621B730B840B950B643671058105F1
:100FB0009105B8F00E94050D60938C0170938D012E
:100FC00080938E0190938F018A819B811816190658
:100FD0001CF421E030E007C0892B19F02FEF3FEF20
:100FE00002C020E030E0C901DF91CF910895CF9396
:100FF000DF93EC0188819981835A9E4F8B5B9240ED
:1010000050F10E94050D2091900130919101409185
:10101000920150919301621B730B840B950B643604
:10102000710581059105B8F00E94050D609390014E
:10103000709391018093920190939301888199819B
:10104000181619061CF421E030E007C0892B19F0AE
:101050002FEF3FEF02C020E030E0C901DF91CF91D8
:1010600008950F931F938C018EE00E949A0D8B5070
:101070009240F801918380838FE00E949A0D8B5FEC
:101080009140F801938382831F910F9108958EE020
:1010900060E00E94BC0D8FE060E00E94BC0D82E029
:1010A00062E00E94BC0D089508951F920F920FB642
:1010B0000F9211242F933F934F938F939F93EF930E
:1010C000FF938091C00082FD1DC04091C600209119
:1010D000D4013091D5012F5F3F4F2F733070809135
:1010E000D6019091D7012817390771F0E091D4010A
:1010F000F091D501EC56FE4F40833093D5012093FB
:10110000D40102C08091C600FF91EF919F918F9111
:101110004F913F912F910F900FBE0F901F901895F8
:10112000E0912802F0912902E05CFF4F81919191BA
:1011300020813181821B930B8F739070892B11F06A
:101140000E94540808951F920F920FB60F92112417
:101150002F933F938F939F93EF93FF9320911802C8
:101160003091190280911A0290911B0228173907B9
:1011700031F48091C1008F7D8093C10014C0E09153
:101180001A02F0911B02E852FE4F208180911A0250
:1011900090911B0201968F73907090931B02809325
:1011A0001A022093C600FF91EF919F918F913F917A
:1011B0002F910F900FBE0F901F901895AF92BF9276
:1011C000DF92EF92FF920F931F93CF93DF93EC0187
:1011D0007A018B01DD24403081EE580780E06807FA
:1011E00080E0780711F0DD24D39491E0A92EB12C92
:1011F000EC89FD89DD2069F0C50108A002C0880FD7
:10120000991F0A94E2F7808360E079E08DE390E033
:1012100005C0108260E874E88EE190E0A8019701B3
:101220000E94D91221503040404050405695479579
:101230003795279580E12030380720F0DD2011F028
:10124000DD24D6CFE889F9893083EA89FB892083B8
:1012500019A2EE89FF89408121E030E0C9010C8CA0
:1012600002C0880F991F0A94E2F7482B4083EE8949
:10127000FF894081C9010D8C02C0880F991F0A9413
:10128000E2F7482B4083EE89FF894081C9010E8C2B
:1012900002C0880F991F0A94E2F7482B4083EE8919
:1012A000FF8980810F8C02C0220F331F0A94E2F75E
:1012B000209528232083DF91CF911F910F91FF90DC
:1012C000EF90DF90BF90AF900895DC011C96ED91F8
:1012D000FC911D97E05CFF4F2191319180819181BC
:1012E000281B390B2F733070C9010895DC011C963F
:1012F000ED91FC911D97E05CFF4F20813181E0541E
:10130000F040DF01AE5BBF4F8D919C911197281784
:10131000390719F42FEF3FEF07C08D919C91E80F2B
:10132000F91F8081282F30E0C9010895DC011C9647
:10133000ED91FC911D97E05CFF4F20813181E054DD
:10134000F040DF01AE5BBF4F8D919C911197281744
:10135000390719F42FEF3FEF10C08D919C91119731
:10136000E80FF91F20818D919C91119701968F7341
:10137000907011969C938E9330E0C9010895DC0122
:1013800091968C919197882339F05496ED91FC9128
:101390005597808186FFF9CF91961C920895CF933F
:1013A000DF93EC01EE85FF85E05CFF4F208131810A
:1013B000E054F0402F5F3F4F2F733070DF01AE5B82
:1013C000BF4F8D919C91119728173907D1F3E05C9D
:1013D000FF4F80819181E054F040E80FF91F608356
:1013E000EE85FF85E05CFF4F31832083EE89FF8926
:1013F000208181E090E00F8C02C0880F991F0A9431
:10140000E2F7282B208381E089A3EC89FD89808184
:101410008064808381E090E0DF91CF910895109205
:101420001F0210921E0288EE93E0A0E0B0E08093CD
:10143000200290932102A0932202B093230282E51E
:1014400091E090931D0280931C0284E991E09093B7
:1014500029028093280288ED91E090932B028093DB
:101460002A0285EC90E090932D0280932C0284EC6C
:1014700090E090932F0280932E0280EC90E0909366
:1014800031028093300281EC90E09093330280939C
:10149000320282EC90E0909335028093340286EC25
:1014A00090E0909337028093360284E08093380274
:1014B00083E08093390287E080933A0285E080934D
:1014C0003B0281E080933C02089582E691E0909394
:1014D0003F0280933E02109240021092410210920D
:1014E00042021092430208958F929F92AF92BF9250
:1014F000CF92DF92EF92FF920F931F93CF93DF93E0
:101500004C016B017C01AA24BB24C0E0D0E0C601E1
:10151000F70162814AE050E00E949A0B8C01C601FB
:101520006EE20E94030B080F191FA00EB11E219638
:101530000894E11CF11CC330D10549F7C601F40140
:1015400065814AE050E00E949A0B9501280F391FEF
:10155000C901DF91CF911F910F91FF90EF90DF9024
:10156000CF90BF90AF909F908F900895CF93DF93CF
:101570000E945F0D0E943E10C0E9D8E00E94A10FBA
:101580002097E1F30E949008F9CFFC0120E030E0C1
:101590008081882311F421E030E0C9010895FC0125
:1015A00081E0808308950E94C11308950E94011371
:1015B0000895CF92DF92EF92FF920F931F93CF93F4
:1015C000DF937C016B018A01C0E0D0E00FC0D6013F
:1015D0006D916D01D701ED91FC910190F081E02DAD
:1015E000C7010995C80FD91F0150104001151105F9
:1015F00071F7CE01DF91CF911F910F91FF90EF9086
:10160000DF90CF900895DC01ED91FC910190F08185
:10161000E02D09950895CF93DF93EC0161157105D5
:1016200019F420E030E00FC0DB010D900020E9F755
:101630001197A61BB70BE881F9810280F381E02D99
:10164000AD0109959C01C901DF91CF9108954F9299
:101650005F927F928F929F92AF92BF92CF92DF92D2
:10166000EF92FF920F931F93DF93CF93CDB7DEB727
:10167000A1970FB6F894DEBF0FBECDBF2C01742E1C
:10168000CB01223008F42AE019A231E2C32ED12C7A
:10169000CC0EDD1E822E9924AA24BB24672D752F23
:1016A000A50194010E94D91279018A01C801B701EC
:1016B000A50194010E94BA12472D461B0894C10847
:1016C000D1084A3014F4405D01C0495CF601408302
:1016D000E114F1040105110521F07E2C5F2DC801F4
:1016E000DDCFC201B6010E940B0BA1960FB6F89494
:1016F000DEBF0FBECDBFCF91DF911F910F91FF9045
:10170000EF90DF90CF90BF90AF909F908F907F90A1
:101710005F904F900895DC012115310541F4ED9162
:10172000FC910190F081E02D642F099508950E94AD
:10173000270B0895EF92FF920F931F939A01E62EC5
:10174000FF2400E010E0B801A7010E948B0B1F915D
:101750000F91FF90EF900895813041F0813018F0A3
:101760008230D1F409C010926E00089580916F000C
:101770008D7F80936F000895809170008D7F80939E
:10178000700081E08093B0008091B100887F846018
:101790008093B1001092B30008951F93182F809189
:1017A0000601811711F09FEF06C0E8E6F0E0949182
:1017B0008FEF80930601892F0E94AC0B812F60E090
:1017C0000E94280E1F9108951F920F920FB60F923C
:1017D00011242F933F934F935F936F937F938F9336
:1017E0009F93AF93BF93EF93FF93809144029091A7
:1017F0004502A0914602B09147020097A105B105AC
:1018000051F1E0914802F0914902808190914A02A1
:10181000892780838091440290914502A0914602DD
:10182000B0914702181619061A061B06C4F48091D7
:10183000440290914502A0914602B091470201975F
:10184000A109B1098093440290934502A0934602F6
:10185000B093470204C0809106010E94CD0BFF9116
:10186000EF91BF91AF919F918F917F916F915F9118
:101870004F913F912F910F900FBE0F901F90189591
:10188000823000F5E82FF0E0EE0FFF1FE55BFD4F23
:1018900071836083882319F08130A1F408C080919E
:1018A00069008C7F842B80936900E89A0895809169
:1018B0006900440F551F440F551F837F842B80936D
:1018C0006900E99A08951F920F920FB60F921124A2
:1018D0002F933F934F935F936F937F938F939F9338
:1018E000AF93BF93EF93FF9380914B0290914C0283
:1018F000892B29F0E0914B02F0914C020995FF9160
:10190000EF91BF91AF919F918F917F916F915F9177
:101910004F913F912F910F900FBE0F901F901895F0
:101920001F920F920FB60F9211242F933F934F9354
:101930005F936F937F938F939F93AF93BF93EF9337
:10194000FF9380914D0290914E02892B29F0E091F6
:101950004D02F0914E020995FF91EF91BF91AF9129
:101960009F918F917F916F915F914F913F912F91B7
:101970000F900FBE0F901F9018951F920F920FB6E9
:101980000F9211242F933F938F939F93AF93BF9305
:101990008091530290915402A0915502B091560249
:1019A000309157020196A11DB11D232F2D5F2D37B8
:1019B00020F02D570196A11DB11D20935702809351
:1019C000530290935402A0935502B0935602809113
:1019D0004F0290915002A0915102B0915202019693
:1019E000A11DB11D80934F0290935002A09351020C
:1019F000B0935202BF91AF919F918F913F912F91E0
:101A00000F900FBE0F901F9018958FB7F8942091EC
:101A100053023091540240915502509156028FBFAB
:101A2000B901CA0108959FB7F89420914F023091EF
:101A30005002409151025091520286B5A89B06C0B7
:101A40008F3F21F02F5F3F4F4F4F5F4F9FBF542F6E
:101A5000432F322F2227280F311D411D511D82E0B7
:101A6000220F331F441F551F8A95D1F7B901CA01B0
:101A70000895EF92FF920F931F93CF93DF937B0113
:101A80008C010E94130DEB010EC00E94130D6C1B04
:101A90007D0B685E7340C8F30894E108F108010902
:101AA0001109C851DC4FE114F1040105110569F772
:101AB000DF91CF911F910F91FF90EF90089578944F
:101AC00084B5826084BD84B5816084BD85B5826043
:101AD00085BD85B5816085BDEEE6F0E080818160E1
:101AE0008083E1E8F0E010828081826080838081E1
:101AF00081608083E0E8F0E0808181608083E1EBB9
:101B0000F0E0808184608083E0EBF0E080818160A0
:101B10008083EAE7F0E08081846080838081826056
:101B2000808380818160808380818068808310923F
:101B3000C1000895982F8E3008F09E5097708091C4
:101B400007018295880F880F807C892B80937C0009
:101B500080917A00806480937A0080917A0086FD7B
:101B6000FCCF2091780040917900942F80E030E004
:101B7000282B392BC9010895CF93DF93482F50E0CC
:101B8000CA0185569F4FFC01349149575F4FFA01B6
:101B90008491882369F190E0880F991FFC01E7592F
:101BA000FF4FA591B491FC01ED58FF4FC591D49121
:101BB000662351F42FB7F8948C91932F9095892335
:101BC0008C93888189230BC0623061F42FB7F8941D
:101BD0008C91932F909589238C938881832B888374
:101BE0002FBF06C09FB7F8948C91832B8C939FBF17
:101BF000DF91CF910895833071F0843028F48130E3
:101C0000A1F0823021F514C08630B1F08730D1F0D8
:101C10008430E9F404C0809180008F7703C0809104
:101C200080008F7D80938000089584B58F7702C0F7
:101C300084B58F7D84BD08958091B0008F778093A7
:101C4000B00008958091B0008F7D8093B00008951A
:101C5000FF920F931F93F62E482F50E0CA01815533
:101C60009F4FFC012491CA0185569F4FFC0114919E
:101C700049575F4FFA0104910023C9F0222319F05C
:101C8000822F0E94FB0DE02FF0E0EE0FFF1FED58BA
:101C9000FF4FA591B4919FB7F894FF2021F48C9148
:101CA0001095812302C08C91812B8C939FBF1F9133
:101CB0000F91FF900895BF92CF92DF92EF92FF9223
:101CC0000F931F93CF93DF93E82EF62EB42EC7E029
:101CD000D0E0022F10E087E0C82ED12CBB2059F4B1
:101CE000B6016C1B7D0BC80102C0959587956A955E
:101CF000E2F7BC0107C0B8010C2E02C075956795CC
:101D00000A94E2F7617070708E2D0E94280E8F2D5C
:101D100061E00E94280E8F2D60E00E94280E21971E
:101D20009FEFCF3FD907D1F6DF91CF911F910F9150
:101D3000FF90EF90DF90CF90BF900895FC01158A3F
:101D4000148A0895CF93DF93EC01DB018C899D8980
:101D50008A3091055CF4FC01EE0FFF1FEC0FFD1FB4
:101D60007183608301969D8B8C8B0AC06115710510
:101D700039F0ED91FC910084F185E02DCB010995BE
:101D8000DF91CF910895FC01848995890895FB0125
:101D9000EE0FFF1FE80FF91F8081918108950F93C7
:101DA0001F93CF93DF938C01EB01FB01EE0FFF1F1D
:101DB000E80FF91FA081B181109741F0ED91FC91DE
:101DC00011970084F185E02DCD010995DE01AA0F60
:101DD000BB1FA00FB11FBE0108C06F5F7F4F1296DF
:101DE0008D919C9113978D939D93F801848995898A
:101DF0000197681779078CF3958B848BDF91CF91CE
:101E00001F910F9108956F927F928F929F92AF9240
:101E1000BF92CF92DF92EF92FF920F931F93813088
:101E2000910509F064C06F5F7F4F09F06FC088E5CE
:101E300092E00E947A128EEB92E00E94470800D056
:101E400000D012E0612E712CADB7BEB712967C9215
:101E50006E9211978AE090E014969C938E9313975C
:101E600082EC92E064E671E041E050E024E030E092
:101E700005E010E0B1E0EB2EF12CCC24DD24AA2407
:101E8000BB24A2E08A2E912C0E94F90600D0EDB767
:101E9000FEB73196ADB7BEB712967C926E9211978F
:101EA0001382128283E090E0958384838FE093E035
:101EB00062EC72E046E751E02FEF3FEF02E010E006
:101EC000F1E0CF2ED12CE1E0AE2EB12C8824992464
:101ED0000E94AC06EDB7FEB736960FB6F894FEBF7B
:101EE0000FBEEDBF8EE593E00E949E0E0FC0892BC2
:101EF00069F46F5F7F4F51F486E391E09093100394
:101F000080930F039093C3028093C2021F910F919D
:101F1000FF90EF90DF90CF90BF90AF909F908F9009
:101F20007F906F90089580E090E06FEF7FEF0E94C8
:101F3000030F089581E090E06FEF7FEF0E94030FA1
:101F400008950F931F93CF93DF9380917803882395
:101F500039F482EC92E00E944E0281E08093780393
:101F60000E94050D20917403309175034091760312
:101F700050917703621B730B840B950B605D774068
:101F80008040904070F00E94050D60937403709340
:101F9000750380937603909377038FE093E00E941C
:101FA0001B068FE093E068E572E00E940A0682EC6F
:101FB00092E068E572E00E940A0688E592E00E94DD
:101FC0004C1264E670E080E090E00E94390D8FE0F2
:101FD00093E068E572E00E9422048EEB92E00E949A
:101FE00031088EEB92E00E94F7078C018EEB92E0B5
:101FF0000E94BD07EC010130110539F482EC92E03A
:1020000068E572E042E050E00BC00F5F1F4F11F037
:1020100081E00DC082EC92E068E572E043E050E0C0
:102020002FE033E000E010E00E94E70480E09FEF43
:10203000CF3FD90739F482EC92E068E572E045E0E1
:1020400050E011C0219739F482EC92E068E572E02B
:1020500044E050E008C0882361F082EC92E068E53B
:1020600072E040E050E02FE033E000E010E00E943A
:10207000E704DF91CF911F910F9108958CE192E0D9
:1020800040E855E260E070E00E94DE088EEB92E0EE
:102090006DE470E10E94B707089580917903882369
:1020A000A1F489E793E00E94C50A892B71F00E9490
:1020B000050D609381037093820380938303909353
:1020C000840389E793E00E94CF0A0E94050D2091C6
:1020D0008103309182034091830350918403621BFA
:1020E000730B840B950B643671058105910570F0B7
:1020F0000E94050D60938103709382038093830394
:102100009093840382EC92E00E941B0608958F92C4
:102110009F92AF92BF92CF92DF92EF92FF920F9376
:102120001F93DF93CF9300D0CDB7DEB77C014983F7
:102130002A83660F771F86E590E0E80EF91EF70107
:10214000008111818AEA9FEFE80EF91E000F111F2E
:1021500080E090E005C0F701E80FF91F10820196BA
:1021600080179107C4F38981F701E60FF71F818378
:102170008A818083F701EC5AFF4F808160E00E94E2
:10218000280E015010406701C00ED11E0F5F1F4F77
:1021900090E5892E912C8E0C9F1C82E5A82EB12CE7
:1021A000AE0CBF1C0EC001501040F4018081F5013F
:1021B000608141E0F60120810E945B0E0894C10815
:1021C000D108101611067CF384E590E0E80EF91EA4
:1021D000F701808161E00E94280E0F900F90CF914F
:1021E000DF911F910F91FF90EF90DF90CF90BF9004
:1021F000AF909F908F900895DC0177FD1CC0AA5A84
:10220000BF4F8D919C911197A655B04068177907E3
:1022100094F44830510578F4FB0193E0EE0FFF1F72
:102220009A95E1F7EA0FFB1FE40FF51F208B4F5F34
:10223000CD010E9487100895DF92EF92FF920F93D5
:102240001F93CF93DF93EC017B0177FD22C0CA5A25
:10225000DF4F88819981C655D04068177907CCF443
:102260008B010E5F1F4F53E0000F111F5A95E1F7CE
:102270000C0F1D1FDD24D394F80111928F01CE01A4
:10228000B7014D2D20E00E948710D394F9E0DF16AE
:1022900099F7DF91CF911F910F91FF90EF90DF9011
:1022A0000895FC019A0177FD10C0EA5AFF4F808122
:1022B0009181E655F040681779073CF440315105AB
:1022C00020F4CF014AE00E9487100895FC019A0192
:1022D00077FD10C0EA5AFF4F80819181E655F040AA
:1022E000681779073CF44830510520F4CF014BE0E2
:1022F0000E9487100895FC0177FD16C0EA5AFF4F2F
:1023000080819181E655F040681779076CF4442389
:1023100031F0CF014CE020E00E9487100895CF01FA
:102320004CE021E00E9487100895CF92DF92EF9257
:10233000FF920F931F93CF93DF93EC016B01C05B70
:10234000DF4F699379934993599339832883C4550F
:10235000D040C8010197089710F008E010E0CA5A71
:10236000DF4F19830883C655D0408E01005B1F4F95
:10237000F801808161E00E94BC0DFE01EE5AFF4F22
:10238000808161E00E94BC0D74E5E72EF12CEC0E1B
:10239000FD1EF701808161E00E94BC0DF701808184
:1023A00061E00E94280EF801D182C082FE0180E027
:1023B00090E0108A0196319680349105D1F700E0C3
:1023C00010E066E5C62ED12CCC0EDD1E1DC0CE0160
:1023D000B8014FE020E00E948710CE01B80147E02D
:1023E00050E00E946611CE01B80149E020E00E9451
:1023F0008710CE01B8010E941C11CE01B80141E046
:102400000E947B110F5F1F4FF60180819181081799
:102410001907ECF2DF91CF911F910F91FF90EF9090
:10242000DF90CF900895FC0177FD18C080819181E5
:10243000681779079CF457FD11C082819381481772
:10244000590764F4E60FF71F81E090E002C0880F9F
:10245000991F4A95E2F72681282B26830895FC01CF
:1024600077FD19C08081918168177907A4F457FD21
:1024700012C082819381481759076CF4E60FF71F49
:1024800081E090E002C0880F991F4A95E2F780959D
:102490002681822386830895CF92DF92EF92FF9266
:1024A0000F931F93CF93DF938C018EE0C82ED12C16
:1024B000C00ED11E7801C0E0D0E00AC0F8016481EE
:1024C0007581C601AE01F70125810E94FC1021969D
:1024D0000894E11CF11CF80180819181C817D9078B
:1024E0006CF3DF91CF911F910F91FF90EF90DF90F0
:1024F000CF900895EF92FF920F931F93CF93DF93A6
:10250000EC0188E090E0998388839B838A831D8215
:102510001C829EE0E92EF12CEC0EFD1EC7016CE042
:1025200070E04BE050E02AE030E001E010E00E9473
:102530009511FE0120E030E003C015822F5F3F4F70
:1025400031968881998128173907BCF36C817D8188
:10255000C70140E00E947B116C817D81C70148E08A
:1025600050E00E945111DF91CF911F910F91FF9088
:10257000EF900895629FD001739FF001829FE00D5C
:10258000F11D649FE00DF11D929FF00D839FF00DF2
:10259000749FF00D659FF00D9927729FB00DE11D9E
:1025A000F91F639FB00DE11DF91FBD01CF0111247B
:1025B0000895A1E21A2EAA1BBB1BFD010DC0AA1F84
:1025C000BB1FEE1FFF1FA217B307E407F50720F09C
:1025D000A21BB30BE40BF50B661F771F881F991F17
:1025E0001A9469F760957095809590959B01AC0160
:1025F000BD01CF010895EE0FFF1F0590F491E02D6E
:102600000994CF93DF93682F792F8230910510F4CE
:1026100062E070E0A0918703B0918803CA2FDB2F9E
:10262000E0E0F0E040E050E026C088819981861724
:10263000970771F48A819B81309719F09383828385
:1026400004C09093880380938703EC2FFD2F3BC039
:102650006817790740F44115510519F0841795075B
:1026600010F4482F592FEC2FFD2F8A819B81282FA2
:10267000392FC22FD32F2097C1F641155105E9F10B
:10268000842F952F861B970B049710F4642F752FBA
:10269000E0E0F0E030C08D919C9111978417950790
:1026A00011F56417750789F412968D919C91139713
:1026B000309719F09383828304C0909388038093AA
:1026C0008703EA2FFB2F329657C0842F952F861B46
:1026D000970BEA2FFB2FE80FF91F61937193029775
:1026E0008D939C9349C0EA2FFB2F82819381282FE1
:1026F000392FA22FB32F109771F6809185039091F7
:102700008603892B41F480910201909103019093FB
:102710008603809385034091040150910501411582
:10272000510541F44DB75EB78091000190910101D0
:10273000481B590B209185033091860324173507D8
:10274000C8F4842F952F821B930B8617970790F060
:10275000462F572F4E5F5F4F8417950758F0420F53
:10276000531F5093860340938503E22FF32F619309
:10277000719302C0E0E0F0E08E2F9F2FDF91CF91A8
:102780000895CF93DF93009709F456C0C82FD92F2F
:1027900022971B821A82A0918703B0918803109719
:1027A00011F140E050E0AC17BD0710F1BB83AA83E4
:1027B000EC2FFD2F21913191E20FF31FAE17BF07D0
:1027C00079F48D919C911197280F391F2E5F3F4FFF
:1027D0003983288312968D919C9113979B838A83CA
:1027E0004115510581F4D0938803C093870324C019
:1027F00012968D919C9113974A2F5B2F009719F099
:10280000A82FB92FD0CFE42FF52FD383C2832191E6
:102810003191E20FF31FCE17DF0771F488819981A0
:10282000280F391F2E5F3F4FE42FF52F3183208370
:102830008A819B8193838283DF91CF91089510E0F9
:10284000CAECD0E004C0FE010E94FD122296CC3CEE
:08285000D107C9F7F894FFCF8E
:10285800200089030000FF010000000045070B0568
:102868000901C702F4020000000045075A020901E5
:10287800C102EB02000000003107E300DE01CD02D7
:10288800E202000000004507E30009019000D902B8
:102898000000000045075A020901D302FD020000AA
:1028A8000000CF09D90A650996097609BF09000011
:1028B8000000740A0000010000000100010001008E
:1028C80001000000010000000100000001000100FB
:0828D8000100000000000000F7
:00000001FF
