:100000000C9466000C9411120C943E120C948E0009
:100010000C948E000C948E000C948E000C94921113
:100020000C948E000C948E000C948E000C948E0018
:100030000C948E000C948E000C948E000C948E0008
:100040000C946B120C948E000C94000E0C944E0EBB
:100050000C948E000C948E000C948E000C948E00E8
:100060000C948E000C948E000200000000240027E7
:10007000002A0000000000250028002B00000000DE
:1000800000230026002900040404040404040402DC
:100090000202020202030303030303010204081025
:1000A00020408001020408102001020408102000F2
:1000B0000000070002010000030406000000000029
:1000C00000000000BA0F101033152C1511241FBEAC
:1000D000CFEFD8E0DEBFCDBF13E0A0E0B1E0E4EDAC
:1000E000F9E402C005900D92A832B107D9F715E0E6
:1000F000A8E2B3E001C01D92AA32B107E1F710E017
:10010000CAECD0E004C02297FE010E94D722C43C72
:10011000D107C9F70E9461100C94DD240C940000F3
:10012000EF92FF920F931F937B018C0120E030E050
:1001300040E05FE40E94660288238CF0C801B701AA
:1001400020E030E040E05FE40E9408020E94F402F8
:100150009B01AC01205030404040504806C0C801CF
:10016000B7010E94F4029B01AC01B901CA011F91C1
:100170000F91FF90EF900895A0E0B0E0E2ECF0E086
:100180000C949E22DC012B01FA019C91923008F420
:1001900039C1EB018881823008F433C1943069F4AD
:1001A000843009F02FC111969C911197898198177D
:1001B00009F428C1ABE5B1E025C1843009F421C1BF
:1001C0008230A9F4923009F01DC19A01AD0188E096
:1001D000EA010990AE01E90109929E018150C1F73F
:1001E000E201898111969C918923818308C1923013
:1001F00009F407C112962D903C901397EB018A8168
:100200009B811496AD90BD90CD90DC901797EC80BB
:10021000FD800E811F819101281B390BB90137FF29
:1002200004C066277727621B730B603271050CF0E0
:1002300061C0121613066CF537014801062E04C082
:1002400096948794779467940A94D2F721E030E0EB
:1002500040E050E004C0220F331F441F551F6A9531
:10026000D2F721503040404050402E213F214023C2
:100270005123211531054105510521F021E030E0E0
:1002800040E050E079018A01E628F7280829192979
:100290003CC0232BD1F1260E371E35014601062E18
:1002A00004C096948794779467940A94D2F721E0D7
:1002B00030E040E050E004C0220F331F441F551FC0
:1002C0006A95D2F721503040404050402A213B21CE
:1002D0004C215D21211531054105510521F021E019
:1002E00030E040E050E059016A01A628B728C8284C
:1002F000D9280BC0821593052CF01C01AA24BB241D
:10030000650103C0EE24FF24870111969C91D20160
:1003100011968C91981709F445C0992339F0A801DA
:1003200097012A193B094C095D0906C0A6019501F0
:100330002E193F09400B510B57FD08C01182338223
:10034000228224833583468357831DC081E08183C5
:100350003382228288279927DC01821B930BA40B0E
:10036000B50B84839583A683B7830DC0220F331FFB
:10037000441F551F2483358346835783828193818D
:100380000197938382832481358146815781DA01E5
:10039000C9010197A109B1098F5F9F4FAF4FBF43BB
:1003A00028F30BC0918333822282EA0CFB1C0C1DC4
:1003B0001D1DE482F5820683178383E080832481F8
:1003C00035814681578157FF1AC0C901AA2797FD79
:1003D000A095BA2F81709070A070B0705695479517
:1003E00037952795822B932BA42BB52B848395834C
:1003F000A683B78382819381019693838283DF01F1
:1004000001C0D201CD01CDB7DEB7E2E10C94BA2232
:10041000A0E2B0E0EEE0F2E00C94AA2269837A83D5
:100420008B839C832D833E834F835887E9E0EE2E98
:10043000F12CEC0EFD1ECE010196B7010E946C045A
:100440008E010F5E1F4FCE010596B8010E946C040D
:100450008A8991E089278A8BC701B801AE01475E7E
:100460005F4F0E94BC000E949703A096E6E00C94A8
:10047000C622A0E2B0E0EFE3F2E00C94AA22698386
:100480007A838B839C832D833E834F835887F9E047
:10049000EF2EF12CEC0EFD1ECE010196B7010E944D
:1004A0006C048E010F5E1F4FCE010596B8010E94AD
:1004B0006C04C701B801AE01475E5F4F0E94BC00EB
:1004C0000E949703A096E6E00C94C622A8E1B0E053
:1004D000ECE6F2E00C94AA2269837A838B839C83F6
:1004E0002D833E834F83588789E0E82EF12CEC0E54
:1004F000FD1ECE010196B7010E946C048E010F5EB5
:100500001F4FCE010596B8010E946C048985823088
:1005100040F08989823028F0C701B8010E94E404C4
:1005200001C08FEF6896E6E00C94C622A8E0B0E028
:10053000ECE9F2E00C94A7229B01AC0183E08983F3
:10054000DA01C9018827B7FD83959927AA27BB2718
:10055000B82E211531054105510519F482E0898332
:100560003AC08823A9F0203080E0380780E04807AF
:1005700080E8580729F460E070E080E09FEC30C02C
:10058000EE24FF248701E21AF30A040B150B02C0C4
:1005900079018A018EE1C82ED12CDC82CB82ED82DA
:1005A000FE820F831887C801B7010E944803019794
:1005B0001816190684F4082E04C0EE0CFF1C001F48
:1005C000111F0A94D2F7ED82FE820F831887C81A92
:1005D000D90ADC82CB82BA82CE0101960E949703AF
:1005E0002896E9E00C94C322ACE0B0E0EAEFF2E038
:1005F0000C94AE2269837A838B839C83CE0101960F
:10060000BE016B5F7F4F0E946C048D81823061F16F
:10061000823050F1843021F48E81882351F12EC034
:100620002F81388537FD20C06E812F3131051CF0B8
:100630006623F9F023C08EE190E0821B930B29859D
:100640003A854B855C8504C0569547953795279527
:100650008A95D2F76623B1F0509540953095219553
:100660003F4F4F4F5F4F0EC020E030E040E050E082
:1006700009C02FEF3FEF4FEF5FE704C020E030E00D
:1006800040E050E8B901CA012C96E2E00C94CA227D
:10069000EF92FF920F931F937B018C0180E0E8168D
:1006A00080E0F80681E0080780E0180788F48FEF03
:1006B000E816F1040105110531F028F088E090E01A
:1006C000A0E0B0E017C080E090E0A0E0B0E012C091
:1006D00080E0E81680E0F80680E0080781E018076F
:1006E00028F088E190E0A0E0B0E004C080E190E074
:1006F000A0E0B0E020E230E040E050E0281B390B01
:100700004A0B5B0B04C016950795F794E7948A95FE
:10071000D2F7F701ED59FE4F8081281B31094109BD
:100720005109C9011F910F91FF90EF900895DF9239
:10073000EF92FF920F931F93FC01E480F5800681F6
:100740001781D1808081823048F480E090E0A0E180
:10075000B0E0E82AF92A0A2B1B2BA5C0843009F443
:100760009FC0823021F4EE24FF24870105C0E114EC
:10077000F1040105110519F4E0E0F0E096C0628192
:1007800073819FEF623879070CF05BC022E83FEF7E
:10079000261B370B2A3131052CF020E030E040E0F9
:1007A00050E02AC0B801A701022E04C076956795D3
:1007B000579547950A94D2F781E090E0A0E0B0E029
:1007C00004C0880F991FAA1FBB1F2A95D2F7019753
:1007D000A109B1098E219F21A023B1230097A10572
:1007E000B10521F081E090E0A0E0B0E09A01AB011A
:1007F000282B392B4A2B5B2BDA01C9018F7790709C
:10080000A070B07080349105A105B10539F427FFBF
:1008100009C0205C3F4F4F4F5F4F04C0215C3F4FEA
:100820004F4F5F4FE0E0F0E02030A0E03A07A0E05B
:100830004A07A0E45A0710F0E1E0F0E079018A01EC
:1008400027C06038710564F5FB01E158FF4FD801FE
:10085000C7018F779070A070B07080349105A105AA
:10086000B10539F4E7FE0DC080E490E0A0E0B0E00F
:1008700004C08FE390E0A0E0B0E0E80EF91E0A1F8C
:100880001B1F17FF05C016950795F794E79431963F
:1008900087E016950795F794E7948A95D1F705C0F8
:1008A000EE24FF248701EFEFF0E06E2F67956627B7
:1008B0006795902F9F77D794DD24D7948E2F8695B8
:1008C000492F462B582F5D29B701CA011F910F915F
:1008D000FF90EF90DF900895FC01DB014081518192
:1008E0002281622F6F7770E0221F2227221F9381BF
:1008F000892F880F822B282F30E0991F9927991F65
:1009000011969C93119721153105A9F541155105B3
:100910006105710511F482E037C082E89FEF1396FC
:100920009C938E9312979A01AB0167E0220F331FBD
:10093000441F551F6A95D1F783E08C930DC0220F99
:10094000331F441F551F12968D919C911397019749
:1009500013969C938E931297203080E0380780E0A6
:10096000480780E4580758F314962D933D934D9310
:100970005C93179708952F3F310579F44115510580
:100980006105710519F484E08C93089564FF03C038
:1009900081E08C9312C01C9210C02F5730401396E8
:1009A0003C932E93129783E08C9387E0440F551F5E
:1009B000661F771F8A95D1F7706414964D935D93E7
:1009C0006D937C93179708951F93DC01FB019C9115
:1009D000923008F447C08081823008F443C09430DC
:1009E00051F411961C91843099F58181682F70E043
:1009F000611B71093FC0843021F0923031F48230A4
:100A0000B9F18181882389F12DC011961C9111972C
:100A10008230F1F081811817D9F412962D913C9112
:100A20001397828193818217930794F028173907CF
:100A3000BCF014968D919D910D90BC91A02D2481B8
:100A4000358146815781281739074A075B0718F413
:100A5000112341F00AC082179307A407B50740F499
:100A6000112319F061E070E005C06FEF7FEF02C065
:100A700060E070E0CB011F910895FC0189EA92E0EB
:100A8000918380830895CF92DF92EF92FF920F932C
:100A90001F93FC0189EA92E091838083358B248B3C
:100AA000178B068BF18EE08ED38EC28E558F448FBE
:100AB00081E090E0978F868FDB0120E030E08D9120
:100AC0009C9111979383828312968D919C91139799
:100AD0009583848314968D919C9115979783868333
:100AE0002F5F3F4F369616962330310541F71F9101
:100AF0000F91FF90EF90DF90CF900895CF92DF920B
:100B0000EF92FF920F931F93FC0189EA92E0918389
:100B10008083358B248B178B068BF18EE08ED38EE2
:100B2000C28E558F448F81E090E0978F868FDB01D6
:100B300020E030E08D919C911197938382831296EF
:100B40008D919C9113979583848314968D919C919C
:100B50001597978386832F5F3F4F369616962330DF
:100B6000310541F71F910F91FF90EF90DF90CF90EB
:100B70000895DC01ED91FC910190F081E02D41E0C0
:100B800009950895DC01ED91FC910190F081E02D33
:100B900040E009950895FC01778F668F0895FC0168
:100BA000758B648B0895FC01778B668B08950F938A
:100BB0001F938C01DC01ED91FC910190F081E02DFF
:100BC00040E00995F801268D378D848D958DA9011A
:100BD000489F9001499F300D589F300D1124868900
:100BE0009789821B930B978B868B20E0099708F0DF
:100BF00021E0822F1F910F9108952F923F924F92E3
:100C00005F926F927F928F929F92AF92BF92CF929C
:100C1000DF92EF92FF920F931F93DF93CF93CDB7A5
:100C2000DEB728970FB6F894DEBF0FBECDBF6C01BC
:100C30007B0121E030E0FC01828D938DA901481BEE
:100C4000590B5C834B83808D918DF901E81BF90B67
:100C5000FA83E983FB01828D938D1901281A390AE1
:100C6000808D918D2901481A590A1E821D826BC000
:100C7000A114B10469F1EF81F88580819181892BFC
:100C800039F1F601268937898B819C81280F391F1C
:100C9000260D371DF70186899789820D931D860FD2
:100CA000971F28173907A1F4F6012489358989810E
:100CB0009A81280F391F280D391DF70184899589DC
:100CC000840D951D840F951F2817390709F450C00E
:100CD0004F5F5F4F2F8138852E5F3F4F38872F83BF
:100CE0004230510529F66F5F7F4F6230710591F0F8
:100CF000CB010196AC01440F551F480F591F4F5FA0
:100D00005F4F440F551F4E0D5F1D58874F834FEFA8
:100D10005FEFAECF0F5F1F4F12960330110551F0FA
:100D20004801089481089108AD90BC9011976FEF2D
:100D30007FEFDECF8D819E8101969E838D83039709
:100D400011F480E016C06D807E80089461087108FF
:100D5000AD81BE81AA0FBB1FED81FE81AE0FBF1F0B
:100D60001196AA0FBB1FAC0DBD1D00E010E0D8CF3F
:100D700081E028960FB6F894DEBF0FBECDBFCF91AD
:100D8000DF911F910F91FF90EF90DF90CF90BF9078
:100D9000AF909F908F907F906F905F904F903F901B
:100DA0002F9008958F929F92AF92BF92CF92DF9231
:100DB000EF92FF920F931F93CF93DF938C01DB0190
:100DC00081E090E05A962D913C915B975C01A21ACC
:100DD000B30A58962D913C9159976C01C21AD30AC7
:100DE00060E070E030C0A4014A010894811C911CAD
:100DF00080819181892BD9F056968D919C9157973E
:100E00008A0D9B1D8E0D9F1DE8012E893F89281795
:100E1000390769F454968D919C9155978C0D9D1DC1
:100E2000840F951F2C893D8928173907E9F03296E0
:100E300082E088169104B9F66F5F7F4F63307105C9
:100E400011F480E012C07B010894E108F108FB0175
:100E5000EE0FFF1FE60FF71F3196EE0FFF1FEA0F91
:100E6000FB1F4FEF5FEFC0CF81E0DF91CF911F916C
:100E70000F91FF90EF90DF90CF90BF90AF909F9039
:100E80008F900895FC0180A5882339F480A191A159
:100E9000019791A380A381E080A70895FC0180A120
:100EA00091A10895FC0171A360A308950F931F936E
:100EB000CF93DF93EC018A01E881F9810190F08101
:100EC000E02D40E009952CA13DA1688D798D8EA182
:100ED0009FA14AA15BA1EA8DFB8D0230110589F427
:100EE0008C899D894E8D5F8D280F391F261B370BEE
:100EF000241B350B37FD3BC0841B950B9D8B8C8BC6
:100F000036C00330110589F44C895D892E8D3F8DE3
:100F1000840F951F820F931F861B970B08973CF534
:100F2000240F351F3D8B2C8B22C00430110559F442
:100F30002E893F898E8D9F8D281B390B37FD17C059
:100F40003F8B2E8B14C00530110589F42E893F8903
:100F50008E8D9F8D420F531F480F591F4E1B5F0BE5
:100F60004830510524F4820F931F9F8B8E8B80E0B5
:100F7000DF91CF911F910F910895FC0189EA92E0D2
:100F8000918380830895FC0189EA92E091838083B4
:100F9000CF010E947E100895FC0189EA92E09183BE
:100FA0008083CF010E947E100895EF92FF920F93ED
:100FB0001F93CF93DF937B018C01075D1F4FC80107
:100FC0000E94D714EC0107C0C801BE010E94DB14C7
:100FD000B7010E94C2052197D7FFF6CFDF91CF91CD
:100FE0001F910F91FF90EF900895EF92FF920F9352
:100FF0001F93CF93DF937B018C01075D1F4FC801C7
:101000000E94D714EC0107C0C801BE010E94DB1486
:10101000B7010E94B9052197D7FFF6CFDF91CF9195
:101020001F910F91FF90EF9008957F928F929F9262
:10103000AF92BF92CF92DF92EF92FF920F931F93E6
:10104000CF93DF93EC015B01790168010E945607A1
:10105000E114F10409F1E881F9810480F581E02DC2
:10106000CE01B7010995882309F44BC0F70180A58B
:10107000882339F480A191A1019791A380A381E0F5
:1010800080A788A58823E9F588A199A1019799A34C
:1010900088A381E088A735C00115110591F1C80129
:1010A0000E94D7147C010894E108F1084E017724CE
:1010B000739425C0E881F98104811581C601B701C7
:1010C0000E94DB14BC01C401F80109958823A1F03A
:1010D00088A5882331F488A199A1019799A388A3B1
:1010E00078A6C601B7010E94DB14B5010E94C205B3
:1010F000C601B7010E94E3140894E108F108F7FE65
:10110000D9CFDF91CF911F910F91FF90EF90DF909A
:10111000CF90BF90AF909F908F907F900895EF9267
:10112000FF920F931F93CF93DF937B018C01075D99
:101130001F4FC8010E94D714EC0116C0C801BE01A0
:101140000E94DB14FC01A081B18112962D913C918B
:101150001397B70141E050E0F9010995882321F088
:10116000C801BE010E94E3142197D7FFE7CFDF91AA
:10117000CF911F910F91FF90EF900895BF92CF9262
:10118000DF92EF92FF920F931F93CF93DF938C0127
:101190006B010E948F0869E2E62EF12CE00EF11E31
:1011A000C7010E94D714EC012197035B1F4FBB249A
:1011B000B3942BC0C701BE010E94DB14DC018D91EA
:1011C0009C911197F80160817181FC012481358126
:1011D000CD01F90109958823B9F0D801ED91FC9171
:1011E00080A5882331F480A191A1019791A380A3C8
:1011F000B0A6C701BE010E94DB14B6010E94C20561
:10120000C701BE010E94E3142197D7FFD3CFDF911E
:10121000CF911F910F91FF90EF90DF90CF90BF90F3
:101220000895EF92FF920F931F938C017B01DC01D5
:10123000ED91FC910280F381E02D41E050E00995B1
:10124000C801B7010E94BE081F910F91FF90EF9057
:1012500008956F927F928F929F92AF92BF92CF929A
:10126000DF92EF92FF920F931F93CF93DF93EC01E6
:101270003B018A0159010E948F080115110509F4EB
:1012800040C0E9E2CE2ED12CCC0EDD1EC6010E945C
:10129000D714EC012197B02EE12EAA24A3942EC0DE
:1012A000C601BE010E94DB14FC01A081B18114962D
:1012B0002D913C9115976B2D7E2DF9010995882371
:1012C000E1F0D80198968C919897882359F49096DC
:1012D0008D919C919197019791969C938E93909765
:1012E0009896AC92C601BE010E94DB14B3010E9425
:1012F000C205C601BE010E94E3142197D7FFD0CFDB
:1013000046C0A114B10409F442C079E2872E912CA1
:101310008C0E9D1EC4010E94D7146C0133C0C50100
:101320000E94D714EC012BC0C401B6010E94DB144B
:101330008C01DC01ED91FC91E480F580C501BE01DA
:101340000E94DB14BC01C801F70109958823B9F09C
:10135000C401B6010E94DB14B3010E94C205C4019E
:10136000B6010E94E314C501BE010E94DB14B30163
:101370000E94C205C501BE010E94E31403C021976B
:10138000D7FFD2CF0894C108D108D7FEC8CFDF91CC
:10139000CF911F910F91FF90EF90DF90CF90BF9072
:1013A000AF909F908F907F906F900895AF92BF9273
:1013B000CF92DF92EF92FF920F931F93CF93DF9321
:1013C0006C015B01E90178014115510511F00E94A2
:1013D0001508C601B501AE0197010E942909DF91E8
:1013E000CF911F910F91FF90EF90DF90CF90BF9022
:1013F000AF900895EF92FF920F931F93CF93DF93D7
:101400008C018DE892E0F80191838083F9E2EF2E60
:10141000F12CE00EF11EC7010E94D714EC0104C0AC
:10142000C701BE010E94E3142197D7FFF9CF89EAD3
:1014300092E0F80191838083C8010E947E10DF91C1
:10144000CF911F910F91FF90EF900895EF92FF922F
:101450000F931F93CF93DF938C018DE892E0F801F7
:1014600091838083A9E2EA2EF12CE00EF11EC701E0
:101470000E94D714EC0104C0C701BE010E94E3140E
:101480002197D7FFF9CF89EA92E0F8019183808311
:10149000DF91CF911F910F91FF90EF900895EF9200
:1014A000FF920F931F93CF93DF938C018DE892E00F
:1014B000F80191838083B9E2EB2EF12CE00EF11E4E
:1014C000C7010E94D714EC0104C0C701BE010E94ED
:1014D000E3142197D7FFF9CF89EA92E0F8019183CD
:1014E0008083DF91CF911F910F91FF90EF9008952E
:1014F0000F931F938C018FE792E0F8019183808313
:10150000C8010E944F0AC8010E947E101F910F91CE
:101510000895FC018FE792E091838083CF010E94C0
:101520004F0A08950F931F938C0187EB92E0F80107
:1015300091838083C8010E944F0AC8010E947E10D7
:101540001F910F910895FC0187EB92E091838083B6
:10155000CF010E944F0A08950F931F93CF93DF93FB
:10156000EC018B010E94B3122091280330912903D2
:1015700040912A0350912B03621B730B840B950B34
:10158000685E73408040904008F44BC00E94B312E4
:10159000609328037093290380932A0390932B036D
:1015A000C35BDF4FE881F981CD54D0402C893D8960
:1015B00084899589281B390B37FF05C0CE01B801F6
:1015C00043E050E006C0232B31F0CE01B80142E0E9
:1015D00050E00E945607E881F9818E01035B1F4F9E
:1015E000D8016D917C910480F581E02DCE010995A3
:1015F0008823B9F0D801ED91FC9180A5882339F4B6
:1016000080A191A1019791A380A381E080A788A5E3
:10161000882339F488A199A1019799A388A381E02F
:1016200088A780E0DF91CF911F910F910895EF92ED
:10163000FF920F931F93CF93DF93EC0188A588232C
:1016400051F18E01005C1F4FF801808199E4E92E71
:10165000F12CEC0EFD1E882351F481E080830E9462
:10166000B312F701608371838283938313C00E9456
:10167000B312F7012081318142815381621B730BC8
:10168000840B950B685E73408040904018F0F80121
:10169000108218A681E0DF91CF911F910F91FF90EA
:1016A000EF900895AF92BF92CF92DF92EF92FF92A8
:1016B0000F931F93CF93DF93EC015B0125E4C22EC0
:1016C000D12CC80ED91EF601E080F1800281138171
:1016D0000E94B312E61AF70A080B190BF9ECEF1681
:1016E000F10401051105A0F00E94B312F601608318
:1016F000718382839383E881F9810190F081E02DE9
:10170000CE01B5014FAD09958FAD91E089278FAF1F
:10171000DF91CF911F910F91FF90EF90DF90CF90CD
:10172000BF90AF9008950F931F93CF93DF93EC0179
:101730008B010E94170B882329F0CE01B8010E946B
:10174000520B04C0CE01B8010E94B905DF91CF91C0
:101750001F910F910895EF92FF920F931F938C01A9
:101760007B010E94F507C801B7010E94930B1F91EE
:101770000F91FF90EF9008950F931F93CF93DF93F6
:10178000EC010E94B3128E010F5B1F4FF801208104
:10179000318142815381621B730B840B950B6C5218
:1017A00071408040904040F10E94B312F801608384
:1017B00071838283938380E290E00E948110FC0118
:1017C0004C895D892C8D3D8D8E899F890196821B68
:1017D000930B558B448B978B868B358F248F81E0B1
:1017E00090E0978F868F8BE992E091838083CE0182
:1017F0008996BF010E94B614DF91CF911F910F917E
:1018000008956F927F928F929F92AF92BF92CF92E4
:10181000DF92EF92FF920F931F93DF93CF93CDB799
:10182000DEB73C010E9443058DE892E0F30191830D
:1018300080838B899C8991A380A389899A8993A3AA
:1018400082A3B5A2A4A297A286A2C30189960E94F0
:10185000B21481E0F30187AF80E490E0680E791E56
:10186000F30111921192119211921192119211920F
:10187000119211921082118212821382CF91DF9104
:101880001F910F91FF90EF90DF90CF90BF90AF909E
:101890009F908F907F906F9008954F925F926F927C
:1018A0007F928F929F92AF92BF92CF92DF92EF92F0
:1018B000FF920F931F93DF93CF93CDB7DEB73C0119
:1018C0002B0100D000D08D899E89EDB7FEB79283A1
:1018D00081838F89988D94838383C301BA01A90181
:1018E000980187017601650154018B889C880E94CC
:1018F000010C8FE792E0F301918380838DE490E007
:10190000680E791EF301518240820F900F900F9064
:101910000F90CF91DF911F910F91FF90EF90DF908B
:10192000CF90BF90AF909F908F907F906F905F907F
:101930004F9008956F927F928F929F92AF92BF9235
:10194000CF92DF92EF92FF920F931F93DF93CF938B
:10195000CDB7DEB73C0100D000D089899A89EDB7B8
:10196000FEB7928381838B899C8994838383C3018F
:101970000E94010C87EB92E0F301918380830F902A
:101980000F900F900F90CF91DF911F910F91FF90CB
:10199000EF90DF90CF90BF90AF909F908F907F900F
:1019A0006F900895FC01268937890488F589E02D18
:1019B000442331F0CB01B901AF010E941C200895EE
:1019C000CB01B901AF010E94382008955F926F9258
:1019D0007F928F929F92AF92BF92CF92DF92EF92BF
:1019E000FF920F931F93CF93DF937C013B01542E03
:1019F00081E090E0F701228D338D4C01821A930A29
:101A0000208D318D5C01A21AB30A0FEF1FEF31C098
:101A1000960169010894C11CD11C88819981892B88
:101A2000F1F0F7016689778944895589552061F07D
:101A3000680D791D600F711F4A0D5B1D420F531F0A
:101A4000C3010E941C200BC0680D791D600F711F1F
:101A50004A0D5B1D420F531FC3010E94382022967E
:101A6000F2E0CF16D104A1F60F5F1F4F023011052F
:101A700079F0C8010196EC01CC0FDD1FC80FD91F0A
:101A80002196CC0FDD1FCE0DDF1D2FEF3FEFC1CF15
:101A9000DF91CF911F910F91FF90EF90DF90CF904A
:101AA000BF90AF909F908F907F906F905F900895C0
:101AB00081E043E050E00E94EE11089580E042E0B2
:101AC00050E00E94EE110895CF93DF93EC018A81DC
:101AD0009B81835A9E4F8B5B924050F10E94B312C0
:101AE00020912C0330912D0340912E0350912F0310
:101AF000621B730B840B950B643671058105910590
:101B0000B8F00E94B31260932C0370932D0380935E
:101B10002E0390932F038A819B81181619061CF4BB
:101B200021E030E007C0892B19F02FEF3FEF02C012
:101B300020E030E0C901DF91CF910895CF93DF938A
:101B4000EC0188819981835A9E4F8B5B924050F1C2
:101B50000E94B3122091300330913103409132033F
:101B600050913303621B730B840B950B6436710524
:101B700081059105B8F00E94B31260933003709311
:101B8000310380933203909333038881998118162F
:101B900019061CF421E030E007C0892B19F02FEF63
:101BA0003FEF02C020E030E0C901DF91CF910895FE
:101BB0000F931F938C018EE00E9406138B5092406E
:101BC000F801918380838FE00E9406138B5F914020
:101BD000F801938382831F910F9108958EE060E056
:101BE0000E9488138FE060E00E94881382E062E028
:101BF0000E94881383E060E00E948813089508958E
:101C00001F920F920FB60F9211242F933F934F9371
:101C10008F939F93EF93FF938091C00082FD1DC02F
:101C20004091C60020917403309175032F5F3F4FA0
:101C30002F733070809176039091770328173907BE
:101C400071F0E0917403F0917503EC5CFC4F4083FC
:101C5000309375032093740302C08091C600FF91F6
:101C6000EF919F918F914F913F912F910F900FBEC8
:101C70000F901F901895E091C803F091C903E05CA4
:101C8000FF4F8191919120813181821B930B8F7342
:101C90009070892B11F00E94FF0D08951F920F92F2
:101CA0000FB60F9211242F933F938F939F93EF932F
:101CB000FF932091B8033091B9038091BA039091BA
:101CC000BB032817390731F48091C1008F7D8093C1
:101CD000C10014C0E091BA03F091BB03E858FC4F77
:101CE00020818091BA039091BB0301968F7390700D
:101CF0009093BB038093BA032093C600FF91EF91AA
:101D00009F918F913F912F910F900FBE0F901F9039
:101D10001895AF92BF92DF92EF92FF920F931F93AD
:101D2000CF93DF93EC017A018B01DD24403081EE0B
:101D3000580780E0680780E0780711F0DD24D3942D
:101D400091E0A92EB12CEC89FD89DD2069F0C50157
:101D500008A002C0880F991F0A94E2F7808360E010
:101D600079E08DE390E005C0108260E874E88EE1D0
:101D700090E0A80197010E944D2221503040404040
:101D80005040569547953795279580E12030380784
:101D900020F0DD2011F0DD24D6CFE889F9893083E9
:101DA000EA89FB89208319A2EE89FF89408121E01D
:101DB00030E0C9010C8C02C0880F991F0A94E2F729
:101DC000482B4083EE89FF894081C9010D8C02C0F8
:101DD000880F991F0A94E2F7482B4083EE89FF8908
:101DE0004081C9010E8C02C0880F991F0A94E2F746
:101DF000482B4083EE89FF8980810F8C02C0220F1F
:101E0000331F0A94E2F7209528232083DF91CF9196
:101E10001F910F91FF90EF90DF90BF90AF900895CA
:101E2000DC011C96ED91FC911D97E05CFF4F219128
:101E3000319180819181281B390B2F733070C9013A
:101E40000895DC011C96ED91FC911D97E05CFF4F1D
:101E500020813181E054F040DF01AE5BBF4F8D91B6
:101E60009C9111972817390719F42FEF3FEF07C0FE
:101E70008D919C91E80FF91F8081282F30E0C901D6
:101E80000895DC011C96ED91FC911D97E05CFF4FDD
:101E900020813181E054F040DF01AE5BBF4F8D9176
:101EA0009C9111972817390719F42FEF3FEF10C0B5
:101EB0008D919C911197E80FF91F20818D919C9134
:101EC000119701968F73907011969C938E9330E0CA
:101ED000C9010895DC0191968C919197882339F07E
:101EE0005496ED91FC915597808186FFF9CF91969C
:101EF0001C920895CF93DF93EC01EE85FF85E05CA3
:101F0000FF4F20813181E054F0402F5F3F4F2F730E
:101F10003070DF01AE5BBF4F8D919C9111972817F8
:101F20003907D1F3E05CFF4F80819181E054F040AC
:101F3000E80FF91F6083EE85FF85E05CFF4F31837A
:101F40002083EE89FF89208181E090E00F8C02C020
:101F5000880F991F0A94E2F7282B208381E089A338
:101F6000EC89FD8980818064808381E090E0DF914D
:101F7000CF9108951092BF031092BE0388EE93E0B4
:101F8000A0E0B0E08093C0039093C103A093C2038C
:101F9000B093C30385EC92E09093BD038093BC03A0
:101FA00084E393E09093C9038093C80388E793E0A8
:101FB0009093CB038093CA0385EC90E09093CD037C
:101FC0008093CC0384EC90E09093CF038093CE0376
:101FD00080EC90E09093D1038093D00381EC90E06B
:101FE0009093D3038093D20382EC90E09093D50337
:101FF0008093D40386EC90E09093D7038093D6032C
:1020000084E08093D80383E08093D90387E08093B2
:10201000DA0385E08093DB0381E08093DC0308959D
:1020200085ED92E09093DF038093DE031092E0034E
:102030001092E1031092E2031092E30308958F924D
:102040009F92AF92BF92CF92DF92EF92FF920F9347
:102050001F93CF93DF934C016B017C01AA24BB2417
:10206000C0E0D0E0C601F70162814AE050E00E9482
:1020700045118C01C6016EE20E94AE10080F191FB7
:10208000A00EB11E21960894E11CF11CC330D105AD
:1020900049F7C601F40165814AE050E00E9445110C
:1020A0009501280F391FC901DF91CF911F910F9121
:1020B000FF90EF90DF90CF90BF90AF909F908F9068
:1020C0000895CF93DF930E94CB120E943F15CBE37C
:1020D000DEE00E943A152097E1F30E943B0EF9CF13
:1020E000FC0120E030E08081882311F421E030E021
:1020F000C9010895FC0181E0808308950E9419249C
:1021000008950E9459230895CF92DF92EF92FF9293
:102110000F931F93CF93DF937C016B018A01C0E083
:10212000D0E00FC0D6016D916D01D701ED91FC910A
:102130000190F081E02DC7010995C80FD91F01500A
:1021400010400115110571F7CE01DF91CF911F915C
:102150000F91FF90EF90DF90CF900895DC01ED910B
:10216000FC910190F081E02D09950895CF93DF93C4
:10217000EC016115710519F420E030E00FC0DB01BE
:102180000D900020E9F71197A61BB70BE881F981A4
:102190000280F381E02DAD0109959C01C901DF9119
:1021A000CF9108954F925F927F928F929F92AF92BC
:1021B000BF92CF92DF92EF92FF920F931F93DF9324
:1021C000CF93CDB7DEB7A1970FB6F894DEBF0FBEA1
:1021D000CDBF2C01742ECB01223008F42AE019A2C5
:1021E00031E2C32ED12CCC0EDD1E822E9924AA24DE
:1021F000BB24672D752FA50194010E944D22790102
:102200008A01C801B701A50194010E941B22472D34
:10221000461B0894C108D1084A3014F4405D01C03F
:10222000495CF6014083E114F1040105110521F038
:102230007E2C5F2DC801DDCFC201B6010E94B61011
:10224000A1960FB6F894DEBF0FBECDBFCF91DF9140
:102250001F910F91FF90EF90DF90CF90BF90AF90C4
:102260009F908F907F905F904F900895DC01211593
:10227000310541F4ED91FC910190F081E02D642F46
:10228000099508950E94D2100895EF92FF920F933E
:102290001F939A01E62EFF2400E010E0B801A70189
:1022A0000E9436111F910F91FF90EF9008950E94A8
:1022B000B6100895813041F0813018F08230D1F4A9
:1022C00009C010926E00089580916F008D7F8093F9
:1022D0006F000895809170008D7F8093700081E081
:1022E0008093B0008091B100887F84608093B100BA
:1022F0001092B30008951F93182F80916D028117DB
:1023000011F09FEF06C0E8E6F0E094918FEF809324
:102310006D02892F0E945A11812F60E00E94F413F0
:102320001F9108951F920F920FB60F9211242F93B1
:102330003F934F935F936F937F938F939F93AF934D
:10234000BF93EF93FF938091E4039091E503A091F5
:10235000E603B091E7030097A105B10551F1E091C3
:10236000E803F091E90380819091EA038927808353
:102370008091E4039091E503A091E603B091E70317
:10238000181619061A061B06C4F48091E4039091EE
:10239000E503A091E603B091E7030197A109B10914
:1023A0008093E4039093E503A093E603B093E703DF
:1023B00004C080916D020E947B11FF91EF91BF914B
:1023C000AF919F918F917F916F915F914F913F91CD
:1023D0002F910F900FBE0F901F901895823000F52F
:1023E000E82FF0E0EE0FFF1FE551FC4F7183608393
:1023F000882319F08130A1F408C0809169008C7F96
:10240000842B80936900E89A089580916900440FB5
:10241000551F440F551F837F842B80936900E99AD1
:1024200008951F920F920FB60F9211242F933F938E
:102430004F935F936F937F938F939F93AF93BF93CC
:10244000EF93FF938091EB039091EC03892B29F09C
:10245000E091EB03F091EC030995FF91EF91BF91AF
:10246000AF919F918F917F916F915F914F913F912C
:102470002F910F900FBE0F901F9018951F920F92E3
:102480000FB60F9211242F933F934F935F936F9347
:102490007F938F939F93AF93BF93EF93FF9380911D
:1024A000ED039091EE03892B29F0E091ED03F0917B
:1024B000EE030995FF91EF91BF91AF919F918F919D
:1024C0007F916F915F914F913F912F910F900FBE30
:1024D0000F901F9018951F920F920FB60F92112414
:1024E0002F933F938F939F93AF93BF938091F30369
:1024F0009091F403A091F503B091F6033091F703A6
:102500000196A11DB11D232F2D5F2D3720F02D57D2
:102510000196A11DB11D2093F7038093F3039093BF
:10252000F403A093F503B093F6038091EF03909129
:10253000F003A091F103B091F2030196A11DB11D2A
:102540008093EF039093F003A093F103B093F20311
:10255000BF91AF919F918F913F912F910F900FBE9F
:102560000F901F9018958FB7F8942091F303309136
:10257000F4034091F5035091F6038FBFB901CA01EE
:102580000895019739F0880F991F880F991F0297B6
:102590000197F1F70895789484B5826084BD84B57D
:1025A000816084BD85B5826085BD85B5816085BD4E
:1025B000EEE6F0E0808181608083E1E8F0E0108267
:1025C000808182608083808181608083E0E8F0E0A8
:1025D000808181608083E1EBF0E080818460808392
:1025E000E0EBF0E0808181608083EAE7F0E08081C9
:1025F0008460808380818260808380818160808329
:102600008081806880831092C1000895982F8E3059
:1026100008F09E50977080916E028295880F880F07
:10262000807C892B80937C0080917A0080648093E9
:102630007A0080917A0086FDFCCF2091780040914D
:102640007900942F80E030E0282B392BC9010895C0
:102650001F93CF93DF93182FEB0161E00E94881343
:10266000209709F44AC0CF3FD10509F449C0E12FB2
:10267000F0E0E155FF4F84918330C1F0843028F4BD
:10268000813051F08230B1F50CC0863019F18730BD
:1026900049F1843079F514C084B5806884BDC7BD24
:1026A00033C084B5806284BDC8BD2EC080918000D7
:1026B000806880938000D0938900C093880024C0F4
:1026C00080918000806280938000D0938B00C093C3
:1026D0008A001AC08091B00080688093B000C093D7
:1026E000B30012C08091B00080628093B000C093AC
:1026F000B4000AC0C038D1051CF4812F60E002C0CC
:10270000812F61E00E94F413DF91CF911F91089512
:10271000CF93DF93482F50E0CA0185569F4FFC01AD
:10272000349149575F4FFA018491882369F190E011
:10273000880F991FFC01E759FF4FA591B491FC0147
:10274000ED58FF4FC591D491662351F42FB7F894FB
:102750008C91932F909589238C93888189230BC02A
:10276000623061F42FB7F8948C91932F9095892360
:102770008C938881832B88832FBF06C09FB7F894E2
:102780008C91832B8C939FBFDF91CF9108958330E1
:1027900071F0843028F48130A1F0823021F514C02A
:1027A0008630B1F08730D1F08430E9F404C08091F4
:1027B00080008F7703C0809180008F7D80938000A0
:1027C000089584B58F7702C084B58F7D84BD089548
:1027D0008091B0008F778093B00008958091B00011
:1027E0008F7D8093B0000895FF920F931F93F62E74
:1027F000482F50E0CA0181559F4FFC012491CA0126
:1028000085569F4FFC01149149575F4FFA0104917F
:102810000023C9F0222319F0822F0E94C713E02F52
:10282000F0E0EE0FFF1FED58FF4FA591B4919FB759
:10283000F894FF2021F48C911095812302C08C9193
:10284000812B8C939FBF1F910F91FF900895BF9292
:10285000CF92DF92EF92FF920F931F93CF93DF936C
:10286000E82EF62EB42EC7E0D0E0022F10E087E06D
:10287000C82ED12CBB2059F4B6016C1B7D0BC801AE
:1028800002C0959587956A95E2F7BC0107C0B8012B
:102890000C2E02C0759567950A94E2F7617070700E
:1028A0008E2D0E94F4138F2D61E00E94F4138F2D62
:1028B00060E00E94F41321979FEFCF3FD907D1F634
:1028C000DF91CF911F910F91FF90EF90DF90CF900C
:1028D000BF900895EF92FF920F931F937B018C019D
:1028E000611571058105910529F420E030E040E093
:1028F00050E00BC00E94D024A80197010E946F22D3
:10290000AC01CB01DA019C01AD01B901CA011F91F3
:102910000F91FF90EF900895EF92FF920F931F9306
:102920007B018C01621773078407950764F4261BEB
:10293000370B480B590BCA01B9010E946A14E60E05
:10294000F71E081F191FB701C8011F910F91FF90B3
:10295000EF900895009729F0BC0180E090E00E947C
:10296000D4240895FC01158A148A0895CF93DF9327
:10297000EC01DB018C899D898A3091055CF4FC01B6
:10298000EE0FFF1FEC0FFD1F7183608301969D8B7F
:102990008C8B0AC06115710539F0ED91FC910084B2
:1029A000F185E02DCB010995DF91CF910895FC01D0
:1029B000848995890895FB01EE0FFF1FE80FF91F29
:1029C0008081918108950F931F93CF93DF938C01A2
:1029D000EB01FB01EE0FFF1FE80FF91FA081B18192
:1029E000109741F0ED91FC9111970084F185E02D55
:1029F000CD010995DE01AA0FBB1FA00FB11FBE01BB
:102A000008C06F5F7F4F12968D919C9113978D93A5
:102A10009D93F801848995890197681779078CF34C
:102A2000958B848BDF91CF911F910F910895813009
:102A3000910541F46F5F7F4F71F488EF93E00E943E
:102A4000AB1A0895892B39F46F5F7F4F21F48AE721
:102A500094E00E94A30A089580E090E06FEF7FEF7A
:102A60000E941715089581E090E06FEF7FEF0E94BC
:102A70001715089588EF93E00E94EF1908958CEBE5
:102A800093E040E855E260E070E00E94890E08950E
:102A9000CF93DF93FC01EC01C150DF4F8881998116
:102AA000AA81BB810097A105B10531F1ED5FFE4F11
:102AB0008081E350F140882359F0E95FFE4F808127
:102AC000E750F140882321F0188219821A821B8274
:102AD000ED5FFE4F8081E350F140882369F4E95FA8
:102AE000FE4F8081E750F140833030F0E150FF4FDE
:102AF0001082118212821382DF91CF9108956F921A
:102B00007F928F929F92AF92BF92CF92DF92EF927D
:102B1000FF920F931F93CF93DF93EC0161E070E07E
:102B200080E090E023E030E040E050E00E948C1430
:102B3000162F61E070E080E090E027E030E040E0B8
:102B400050E00E948C14062F113011F58FE490E0B4
:102B50000E948110782E692E00D000D000D0EDB7F1
:102B6000FEB73196BE016E577F4F82E090E0ADB761
:102B7000BEB712969C938E9311971382128283E0B4
:102B800090E095838483872D962D47ED52E023C0F6
:102B90001230F1F58FE490E00E948110782E692EBA
:102BA00000D000D000D0EDB7FEB73196BE016E5711
:102BB0007F4F82E090E0ADB7BEB712969C938E93A4
:102BC00011971382128283E090E095838483872D8E
:102BD000962D49EE52E02FEF3FEF10E0A1E0EA2EF4
:102BE000F12CF1E0CF2ED12CE1E0AE2EB12C8824D7
:102BF00099240E944D0CFE01E153FF4F70826182C7
:102C00008DB79EB706960FB6F8949EBF0FBE8DBFC8
:102C1000CA5FDE4F6881E7978881998170E00E94E2
:102C2000CB05DF91CF911F910F91FF90EF90DF9037
:102C3000CF90BF90AF909F908F907F906F900895AE
:102C4000CF93DF93EC010E94B312FE01E150FF4FDE
:102C50002081318142815381621B730B840B950B60
:102C600020910A0530910B0540910C0550910D05FE
:102C7000621B730B840B950B685B7B40804090401C
:102C800030F180819181A281B3810097A105B105C6
:102C900031F0FE01E95FFE4F80818F5F80830E94EB
:102CA000B31260930A0570930B0580930C05909303
:102CB0000D05FE01E950FF4F80819181A281B38112
:102CC0000196A11DB11D80839183A283B383DF91FF
:102CD000CF910895AF92BF92CF92DF92EF92FF9281
:102CE0000F931F93CF93DF93EC010E94B3128E01D9
:102CF00001501F4FF8012081318142815381621BB5
:102D0000730B840B950B20910205309103054091C4
:102D1000040550910505621B730B840B950BC5517F
:102D2000DF4F288139814A815B81CB5ED0406217B9
:102D300073078407950708F448C00E94B312609394
:102D40000205709303058093040590930505F8012F
:102D500080819181A281B3810097A105B10531F0F5
:102D6000FE01E95FFE4F80818F5F808361E070E04C
:102D700080E090E028E030E040E050E00E948C14D9
:102D8000162F80E290E00E948110B82EA92E6BEFE2
:102D900072E04FEF5FEF212F30E000E010E0E1E064
:102DA000EE2EF12CB1E0CB2ED12C0E947E05CA5F15
:102DB000DE4F68818B2D9A2D70E00E94CB05CE01ED
:102DC000C5976B2D7A2D0E94B614DF91CF911F917C
:102DD0000F91FF90EF90DF90CF90BF90AF9008954C
:102DE000DF92EF92FF920F931F93CF93DF938C01AB
:102DF000F1EDEF2EF12CE80EF91EC7010E94D71459
:102E0000EC012197D02E012F0DC0C701BE010E94F9
:102E1000DB146D2D702F0E94C205C701BE010E94F8
:102E2000E3142197D7FFF1CFDF91CF911F910F913D
:102E3000FF90EF90DF9008950F931F93CF93DF9350
:102E4000EC018C0101531F4FF801808191810097A3
:102E5000D1F0BE010E94D507F80180819181BE01A9
:102E60000E94C205F801A081B181109741F0ED9157
:102E7000FC9111970084F185E02DCD010995C15396
:102E8000DF4F19821882DF91CF911F910F91089522
:102E9000CF93DF93EC010E94B3122091060530918D
:102EA00007054091080550910905621B730B840BBF
:102EB000950BC151DF4F288139814A815B81CF5EFB
:102EC000D040621773078407950780F00E94B31201
:102ED0006093060570930705809308059093090594
:102EE000C153DF4F888199810E94BC0BDF91CF9144
:102EF0000895DF92EF92FF920F931F93CF93DF938A
:102F00008C01A1EDEA2EF12CE80EF91EC7010E94FA
:102F1000D714EC012197D02E012F09C0C701BE01A3
:102F20000E94DB146D2D702F0E94B9052197D7FFE9
:102F3000F5CFDF91CF911F910F91FF90EF90DF9030
:102F40000895BF92CF92DF92EF92FF920F931F935B
:102F5000CF93DF938C0181EDE82EF12CE00EF11E72
:102F6000C7010E94D714EC012197B2E8CB2ED12CD7
:102F7000C00ED11EB02E012F2EC0C701BE010E946F
:102F8000DB14BC01C6010E94FD05882361F0C60167
:102F90000E944207C701BE010E94DB146B2D702FF7
:102FA0000E94C20513C0C701BE010E94DB14FC01D0
:102FB000A081B18112962D913C9113976B2D702FAA
:102FC00041E050E0F9010995882321F0C701BE01D5
:102FD0000E94E3142197D7FFD0CFDF91CF911F91AB
:102FE0000F91FF90EF90DF90CF90BF900895CF9218
:102FF000DF92EF92FF920F931F93CF93DF93EC0139
:10300000CD5FDE4F8881C350D140813041F4FE0155
:10301000E153FF4F80819181BE010E941109CD5F74
:10302000DE4F8881C350D140882319F4CE010E941D
:10303000A1178E0102581F4FC8010E94D80DC80168
:103040000E949E0D7C01C8010E94640D6C0181E00C
:10305000E816F10481F4C153DF4F28813981CF5C38
:10306000D0408E010F521F4FCE018E579F4FBE0191
:1030700042E050E016C09FEFE9169FEFF90611F00D
:1030800081E012C0C153DF4F28813981CF5CD0402D
:103090008E010F521F4FCE018E579F4FBE0143E04E
:1030A00050E00E94D60980E09FEFC9169FEFD90635
:1030B00069F4C153DF4F28813981CF5CD040CE0104
:1030C0008E579F4FBE0145E050E01FC091E0C916EA
:1030D000D10469F4C153DF4F28813981CF5CD040DE
:1030E000CE018E579F4FBE0144E050E00EC08823B2
:1030F00089F0C153DF4F28813981CF5CD040CE01A8
:103100008E579F4FBE0140E050E0CF52DF4F8E01FF
:103110000E94D609DF91CF911F910F91FF90EF9000
:10312000DF90CF900895CF93DF93EC01CD5FDE4F1A
:103130008881C350D140882331F4CE010E946A16A1
:10314000CE010E947917CD5FDE4F8881C350D140F8
:10315000813059F4CE010E944817FE01E153FF4F20
:1031600080819181BE010E94AB0BCE018E579F4F93
:10317000BE010E94AB0BDF91CF910895CF92DF92F9
:10318000EF92FF920F931F93CF93DF936C01FC019B
:10319000EB5FFE4FE080E394E082BC0169517F4F1A
:1031A000CE2DD0E088EE93E0C89F9001C99F300DEE
:1031B000D89F300D1124442737FD4095542FFB0133
:1031C00080819181A281B381280F391F4A1F5B1F23
:1031D000F601E151FF4F82E3E89E700111240027C0
:1031E000F7FC0095102F80819181A281B3818E1907
:1031F0009F09A00BB10B80839183A283B3832E1907
:103200003F09400B510BFB012083318342835383E1
:10321000C0FD12C02197BE01882777FD8095982FA9
:103220000E9496020E94DF2226E031E0C20ED31EE9
:103230000E949000F6016083DF91CF911F910F9162
:10324000FF90EF90DF90CF900895CF92DF92EF92B2
:10325000FF920F931F93CF93DF93EC018C010D5FCF
:103260001E4FD8018C91833009F4A0C0CE018E5737
:103270009F4F0E944E07181619060CF497C083E062
:10328000F8018083CE010E941C17CE010E94F01627
:10329000CE0160E071E00E94552098C0FE01E1532C
:1032A000FF4F808191810E944E07181619060CF479
:1032B00085C0FE01E950FF4FCB5FDE4F8881C550CE
:1032C000D1402AE0829FC0011124AA2797FDA09532
:1032D000BA2F2081318142815381820F931FA41F15
:1032E000B51F80839183A283B383CE010E941C17F4
:1032F000D8011C92CE010E94BE180E94B312CD507C
:10330000DF4F688379838A839B8360C00E94B312F6
:10331000FE01E150FF4F2081318142815381A3EFB3
:10332000CA2ED12CCC0EDD1ED601ED90FD900D9154
:103330001C91621B730B840B950B6E197F09800B1C
:10334000910BC951DF4F288139814A815B81C75E6A
:10335000D0406217730784079507C0F1808191817F
:10336000A281B3810097A105B10599F08081918177
:10337000A281B3818E0D9F1DA01FB11FF601808316
:103380009183A283B383FE01E95FFE4F80818F5F4B
:103390008083CD5FDE4F81E08883C350D140CE0172
:1033A0000E94F016CE010E947F1510C08E010D5FA5
:1033B0001E4FD8018C91813009F470CFCD5FDE4F64
:1033C0008881C350D140882309F4A0CFDF91CF91E9
:1033D0001F910F91FF90EF90DF90CF9008950F9382
:1033E0001F93CF93DF93EC010E942519FE01ED5F3F
:1033F000FE4F8081823009F455C08081833009F00E
:1034000046C050C00E94B31260930E0570930F0522
:10341000809310059093110581E080931205CE01F1
:103420000E949318CE010E947D21CE018E579F4F9E
:103430000E944E07BC01FE01EB5FFE4FC950DF4FFB
:10344000088119812A813B81C75FD040CE0140812C
:103450000E94382180911205882321F10E94B31225
:1034600020910E0530910F054091100550911105E6
:10347000621B730B840B950B6436710581059105F6
:1034800088F010921205CE010E94F7170BC0CE01F2
:103490000E942016CE010E944815809112058823B3
:1034A000C9F6B0CFDF91CF911F910F910895EF92A0
:1034B000FF920F931F938C010E941C17C8010E945A
:1034C000F016B2E8EB2EF12CE00EF11EC70164E01D
:1034D00070E00E94CF05C70165E070E00E94D3054F
:1034E000C7016AE070E00E94520709511F4F80E156
:1034F00097E2A0E0B0E0F80181939193A193B1939A
:1035000080ED97E0A0E0B0E081939193A193B19317
:1035100081939193A193B1938F010E94B312F8010B
:1035200061937193819391931192119211921192DF
:103530001192119211921192119211921192119273
:103540001192119281E08193819310821F910F91CA
:10355000FF90EF9008954F925F926F927F928F92BB
:103560009F92AF92BF92CF92DF92EF92FF920F9312
:103570001F933C010E94AB21AEE74A2E512C460C12
:10358000571CC2010E94EE0D00D000D082E090E0F6
:10359000EDB7FEB7928381838AE090E094838383C2
:1035A000C3018E579F4F6DE073E041E050E024E08F
:1035B00030E005E010E0F1E0EF2EF12CCC24DD242A
:1035C000AA24BB24E2E08E2E912C0E949A0C8FEC50
:1035D00090E0680E791EF3011182108281E39FEF63
:1035E000680E791E0F900F900F900F90C3018F52AD
:1035F0009F4F0E94B214E7EEF0E06E0E7F1E80E156
:1036000097E2A0E0B0E0F30181939193A193B1938D
:1036100080ED97E0A0E0B0E081939193A193B19306
:1036200081939193A193B1933F010E94B312F3014F
:1036300061937193819391931192119211921192CE
:103640001192119211921192119211921192119262
:1036500082E08193119281E0819381933F011082F6
:1036600089EF9EEF680E791E80E00E9406130E948B
:10367000AA147092010560920005C20161EF7BE11E
:103680000E945E0DC2016DE57BE10E94580DC301F1
:1036900061E171E041E251E00E9469201F910F91C8
:1036A000FF90EF90DF90CF90BF90AF909F908F9062
:1036B0007F906F905F904F900895EF92FF920F93DD
:1036C0001F93CF93DF930E94B31220911305309183
:1036D00014054091150550911605621B730B840B60
:1036E000950B6C5271408040904008F473C00E946A
:1036F000B31260931305709314058093150590938E
:103700001605C0910005D0910105FE01ED5FFE4F49
:1037100080818230D1F50E94B312E0900005F090D4
:103720000105EBEFF0E0EE0EFF1EF7012191319164
:10373000419151917F01621B730B840B950B608348
:1037400071838283938325E030E0E20EF31EF7015C
:10375000808182937F012DEF3EEFE20EF31EC701C1
:103760008E579F4F0E944E07BC01E0910005F091DB
:103770000105E950FF4F0081118122813381C7018A
:103780003E9640810E940B2125C08081833021F428
:10379000CE010E94571A1EC00E94B312C550DF4FBF
:1037A000688379838A839B83E0910005F09101050A
:1037B000DF01AD5FBE4F8C91EC5FFE4F8083E45024
:1037C000F14082E08C93CF016FE271E040E451E080
:1037D0000E946920DF91CF911F910F91FF90EF9090
:1037E0000895809117058823A1F487E195E00E9450
:1037F0007010892B71F00E94B31260931F057093B3
:103800002005809321059093220587E195E00E9491
:103810007A100E94B31220911F053091200540912B
:10382000210550912205621B730B840B950B6436A6
:1038300071058105910590F00E94B31260931F05F8
:1038400070932005809321059093220580910005B7
:10385000909101058E579F4F0E94BC0B08958F9247
:103860009F92AF92BF92CF92DF92EF92FF920F930F
:103870001F93DF93CF9300D0CDB7DEB77C01498390
:103880002A83660F771F86E590E0E80EF91EF701A0
:10389000008111818AEA9FEFE80EF91E000F111FC7
:1038A00080E090E005C0F701E80FF91F1082019653
:1038B00080179107C4F38981F701E60FF71F818311
:1038C0008A818083F701EC5AFF4F808160E00E947B
:1038D000F413015010406701C00ED11E0F5F1F4F3F
:1038E00090E5892E912C8E0C9F1C82E5A82EB12C80
:1038F000AE0CBF1C0EC001501040F4018081F501D8
:10390000608141E0F60120810E9427140894C108DB
:10391000D108101611067CF384E590E0E80EF91E3C
:10392000F701808161E00E94F4130F900F90CF9116
:10393000DF911F910F91FF90EF90DF90CF90BF909C
:10394000AF909F908F900895DC0177FD1CC0AA5A1C
:10395000BF4F8D919C911197A655B040681779077C
:1039600094F44830510578F4FB0193E0EE0FFF1F0B
:103970009A95E1F7EA0FFB1FE40FF51F208B4F5FCD
:10398000CD010E942F1C0895DF92EF92FF920F93BA
:103990001F93CF93DF93EC017B0177FD22C0CA5ABE
:1039A000DF4F88819981C655D04068177907CCF4DC
:1039B0008B010E5F1F4F53E0000F111F5A95E1F767
:1039C0000C0F1D1FDD24D394F80111928F01CE013D
:1039D000B7014D2D20E00E942F1CD394F9E0DF1693
:1039E00099F7DF91CF911F910F91FF90EF90DF90AA
:1039F0000895FC019A0177FD10C0EA5AFF4F8081BB
:103A00009181E655F040681779073CF44031510543
:103A100020F4CF014AE00E942F1C0895FC019A0176
:103A200077FD10C0EA5AFF4F80819181E655F04042
:103A3000681779073CF44830510520F4CF014BE07A
:103A40000E942F1C0895FC0177FD16C0EA5AFF4F13
:103A500080819181E655F040681779076CF4442322
:103A600031F0CF014CE020E00E942F1C0895CF01DF
:103A70004CE021E00E942F1C0895CF92DF92EF923C
:103A8000FF920F931F93CF93DF93EC016B01C05B09
:103A9000DF4F699379934993599339832883C455A8
:103AA000D040C8010197089710F008E010E0CA5A0A
:103AB000DF4F19830883C655D0408E01005B1F4F2E
:103AC000F801808161E00E948813FE01EE5AFF4FE9
:103AD000808161E00E94881374E5E72EF12CEC0EE2
:103AE000FD1EF701808161E00E948813F70180814B
:103AF00061E00E94F413F801D182C082FE0180E0EF
:103B000090E0108A0196319680349105D1F700E05B
:103B100010E066E5C62ED12CCC0EDD1E1DC0CE01F8
:103B2000B8014FE020E00E942F1CCE01B80147E011
:103B300050E00E940E1DCE01B80149E020E00E9435
:103B40002F1CCE01B8010E94C41CCE01B80141E077
:103B50000E94231D0F5F1F4FF6018081918108177E
:103B60001907ECF2DF91CF911F910F91FF90EF9029
:103B7000DF90CF9008950F931F938C01FC018681F5
:103B800060E00E94F41381E090E00E94C112F8010D
:103B9000868161E00E94F41381E090E00E94C112EE
:103BA000F801868160E00E94F41384E690E00E94B0
:103BB000C1121F910F910895CF92DF92EF92FF9261
:103BC0000F931F93CF93DF93D82EC92E282F392F11
:103BD000C9018C01C0E0D0E0E62EFF24B7010C2E15
:103BE00002C0759567950A94E2F76170F8018781C4
:103BF0000E94F41321960F5F1F4FC830D10571F753
:103C00008D2D9C2D0E94BB1DDF91CF911F910F9197
:103C1000FF90EF90DF90CF900895CF92DF92EF92D8
:103C2000FF920F931F93CF93DF93D82EC92E282F87
:103C3000392FC9018C01C0E0D0E0E62EFF24B70186
:103C40000C2E02C0759567950A94E2F76170F80131
:103C500087810E94F41321960F5F1F4FC430D10556
:103C600071F78D2D9C2D0E94BB1DDF91CF911F916F
:103C70000F91FF90EF90DF90CF9008951F93CF9317
:103C8000DF93EC01162F8C81642F0E94F4138D8139
:103C90008F3F19F060E00E94F4138F8584FF05C008
:103CA000CE01612F0E94DC1D0EC0612F70E084E008
:103CB000759567958A95E1F7CE010E940D1ECE019C
:103CC000612F0E940D1EDF91CF911F91089541E059
:103CD0000E943E1E81E090E0089540E00E943E1E5A
:103CE0000895EF92FF920F931F93CF93DF938C0170
:103CF0007A016770660F660F660F60640E946D1E22
:103D0000C0E0D0E0D801ED91FC91D701AC0FBD1F10
:103D10000190F081E02DC8016C9109952196C83081
:103D2000D10581F7DF91CF911F910F91FF90EF9017
:103D30000895FC0161896D7F618B64600E946D1E36
:103D40000895FC016189862F8260818B6660CF01B6
:103D50000E946D1E0895FC016089862F8460808B0F
:103D60006C60CF010E946D1E0895DC01443008F0A4
:103D700043E053968C915397481710F0482F4150C9
:103D8000FD01E40FF11D8489680F6068CD010E9478
:103D90006D1E089561E00E946D1E80ED97E00E9407
:103DA000C1120895EF92FF920F931F93CF93DF9369
:103DB000EC01423018F08F8588608F874B8B1C8A0E
:103DC00080E48D8B6E8B862F90E0805C9F4F8F8B75
:103DD000222329F0413019F48F8584608F878C81EC
:103DE00061E00E9488138D818F3F19F061E00E948D
:103DF00088138E8161E00E9488137E0100E010E04C
:103E000007C0F701868161E00E9488130F5F1F4F92
:103E10008F8584FD03C084E090E002C088E090E0DC
:103E20000894E11CF11C081719075CF380E593EC7A
:103E30000E94C1128C8160E00E94F4138E8160E0C8
:103E40000E94F4138D818F3F19F060E00E94F413FB
:103E50006F8564FD1DC0CE0163E00E940D1E84E9E4
:103E600091E10E94C112CE0163E00E940D1E84E91F
:103E700091E10E94C112CE0163E00E940D1E86E90D
:103E800090E00E94C112CE0162E00E940D1E16C099
:103E90006062CE010E946D1E84E991E10E94C11210
:103EA0006F856062CE010E946D1E86E990E00E94DF
:103EB000C1126F856062CE010E946D1E6F856062C7
:103EC000CE010E946D1E84E0888BCE010E94AB1E45
:103ED000CE010E94CA1E82E0898BCE0166E00E945C
:103EE0006D1EDF91CF911F910F91FF90EF9008957C
:103EF0008F92AF92CF92EF920F93DF93CF93CDB784
:103F0000DEB7FC01448325830683E782C086A18651
:103F100082868A8583878B8584878C8585878D8536
:103F20008687662311F0178602C080E18787CF015C
:103F300060E141E020E00E94D21ECF91DF910F911D
:103F4000EF90CF90AF908F9008958F92AF92CF92D5
:103F5000EF920F931F93CF93DF93DC01362F542FF3
:103F6000722F102FAE2C8C2C13961C921E9212972F
:103F700083E293E011969C938E9300D000D0EDB72E
:103F8000FEB73196CDB7DEB7198211821282138245
:103F9000CD0161E0432F2FEF052FE72EC12E0E94A8
:103FA000781F0F900F900F900F90DF91CF911F917E
:103FB0000F91EF90CF90AF908F900895EF92FF9276
:103FC0000F931F93CF93DF937B018C01C0E0D0E070
:103FD00020C0C801B7012AE030E040E050E00E9474
:103FE0004D229E0193E0220F331F9A95E1F7CC0FEB
:103FF000DD1FC20FD31FC60FD71FC801B7012AE0AC
:1040000030E040E050E00E944D22C901DA017C011D
:104010008D01E114F10401051105D9F69E01442733
:1040200037FD4095542FB901CA01DF91CF911F91FF
:104030000F91FF90EF900895FC0177FD18C08081EB
:104040009181681779079CF457FD11C08281938193
:104050004817590764F4E60FF71F81E090E002C0AB
:10406000880F991F4A95E2F72681282B2683089509
:10407000FC0177FD19C08081918168177907A4F44C
:1040800057FD12C082819381481759076CF4E60FDF
:10409000F71F81E090E002C0880F991F4A95E2F770
:1040A00080952681822386830895EF92FF920F9355
:1040B0001F937B018C010A591F4FC8010E94CA1E21
:1040C000C801B7010E9457111F910F91FF90EF9007
:1040D0000895CF92DF92EF92FF920F931F938B017F
:1040E0006A0126E6E22EF12CE80EF91EC7010E94B5
:1040F000CA1EC701B8010E945711C70160E041E024
:104100000E94B51EC701B6010E9457111F910F9161
:10411000FF90EF90DF90CF900895CF92DF92EF92D3
:10412000FF920F931F936A017B018C010A591F4F65
:10413000C8010E94991EC8016FE041E00E94B51EAF
:10414000C701B6010E94DE1FAB01BC01C8012AE015
:1041500030E00E943611C80161E571E00E945711FC
:10416000C8010E94A11E1F910F91FF90EF90DF9058
:10417000CF900895FF920F931F93F62E8C010A594A
:104180001F4FC80160E041E00E94B51EC80166E50E
:1041900071E00E945711C8016F2D4AE050E00E9463
:1041A00045111F910F91FF900895EF92FF920F9389
:1041B0001F93CF93DF937B018C010A591F4FC801D6
:1041C00060E040E00E94B51EC0E0D0E0C80160E2BF
:1041D0000E94671E2196C031D105C1F7CE018E190C
:1041E0009F0962E070E00E943A22C80140E00E940C
:1041F000B51EC0E0D0E005C0C80161E00E94671EA6
:104200002196CE15DF05C4F3DF91CF911F910F9159
:10421000FF90EF9008957F928F929F92AF92BF92FE
:10422000CF92DF92EF92FF920F931F937C014B018D
:10423000742E580169018A599F4F0E94CA1EC701F6
:10424000B4010E94D520C701672D0E94BA20C70182
:10425000B601A5010E948D201F910F91FF90EF9054
:10426000DF90CF90BF90AF909F908F907F900895F8
:10427000DF92EF92FF920F931F93CF93DF93EC01A6
:10428000D42E780189018091240590912505681725
:10429000790739F07093250560932405CE010E94BB
:1042A000D52080912305D81631F0D0922305CE0178
:1042B0006D2D0E94BA208091770290917802A09192
:1042C0007902B0917A02E816F9060A071B0769F02D
:1042D000E0927702F09278020093790210937A02CA
:1042E000CE01B801A7010E948D20DF91CF911F91CF
:1042F0000F91FF90EF90DF900895CF92DF92EF92B1
:10430000FF920F931F93CF93DF938C013EE0C32E58
:10431000D12CC80ED91E7C01C0E0D0E00AC0F80143
:1043200064817581C601AE01F70125810E94A41C3C
:1043300021960894E11CF11CF80180819181C81735
:10434000D9076CF3DF91CF911F910F91FF90EF9000
:10435000DF90CF9008958F929F92AF92BF92CF92AD
:10436000EF920F931F93CF93DF93EC0188E090E0DF
:10437000998388839B838A831D821C82FEE08F2E13
:10438000912C8C0E9D1EC4016CE070E04BE050E05F
:104390002AE030E001E010E00E943D1DE6E6AE2E8E
:1043A000B12CAC0EBD1EC50164E045E026E007E07F
:1043B0007DE0E72E58E0C52E0E94A51FFE0120E0FB
:1043C00030E003C015822F5F3F4F3196888199817D
:1043D00028173907BCF36C817D81C40140E00E943D
:1043E000231D6C817D81C40148E050E00E94F91CCE
:1043F000C50161E04FE652E00E94711EC50160E117
:1044000042E020E00E94D21EC5010E94CA1E89E03F
:1044100061E00E94881389E06AE570E00E94281339
:10442000DF91CF911F910F91EF90CF90BF90AF9000
:104430009F908F900895629FD001739FF001829F9B
:10444000E00DF11D649FE00DF11D929FF00D839F23
:10445000F00D749FF00D659FF00D9927729FB00DC0
:10446000E11DF91F639FB00DE11DF91FBD01CF01D3
:104470001124089597FB092E07260AD077FD04D052
:1044800049D006D000201AF4709561957F4F0895A9
:10449000F6F7909581959F4F0895A1E21A2EAA1BD9
:1044A000BB1BFD010DC0AA1FBB1FEE1FFF1FA217E4
:1044B000B307E407F50720F0A21BB30BE40BF50BE1
:1044C000661F771F881F991F1A9469F7609570956A
:1044D000809590959B01AC01BD01CF01089597FB9C
:1044E000092E05260ED057FD04D0D7DF0AD0001CB8
:1044F00038F450954095309521953F4F4F4F5F4F81
:104500000895F6F790958095709561957F4F8F4F40
:104510009F4F0895AA1BBB1B51E107C0AA1FBB1FD9
:10452000A617B70710F0A61BB70B881F991F5A953F
:10453000A9F780959095BC01CD0108952F923F92E7
:104540004F925F926F927F928F929F92AF92BF92A3
:10455000CF92DF92EF92FF920F931F93CF93DF934F
:10456000CDB7DEB7CA1BDB0B0FB6F894DEBF0FBEAC
:10457000CDBF09942A88398848885F846E847D84F9
:104580008C849B84AA84B984C884DF80EE80FD80FB
:104590000C811B81AA81B981CE0FD11D0FB6F89471
:1045A000DEBF0FBECDBFED010895EE0FFF1F0590DA
:1045B000F491E02D099411F40EF44FC040C05FD087
:1045C000D0F39923D9F3CEF39F57550B87FF48D0EB
:1045D0000024A0E640EA202D312D8058569597956D
:1045E00028F4805C660F771F881F20F02617370796
:1045F000480730F4621B730B840B202931294A2BA6
:10460000A69517940794202531254A2758F7660F59
:10461000771F881F20F026173707480730F4620BF2
:10462000730B840B200D311D411DA09581F7622F66
:10463000732F842F9158880F9695879508959F3FE3
:1046400031F0915020F4879577956795B795880F4D
:10465000911D9695879597F908959FEF80EC0895A1
:1046600091505040660F771F881FD2F7089557FD6D
:104670009058440F551F59F05F3F71F04795880FD0
:1046800097FB991F61F09F3F79F087950895121667
:1046900013061406551FF2CF4695F1DF08C0161613
:1046A00017061806991FF1CF8695710561050894C4
:1046B0000895CF93DF93682F792F8230910510F4FE
:1046C00062E070E0A0912805B0912905CA2FDB2F88
:1046D000E0E0F0E040E050E026C088819981861754
:1046E000970771F48A819B81309719F093838283B5
:1046F00004C09093290580932805EC2FFD2F3BC023
:104700006817790740F44115510519F0841795078A
:1047100010F4482F592FEC2FFD2F8A819B81282FD1
:10472000392FC22FD32F2097C1F641155105E9F13A
:10473000842F952F861B970B049710F4642F752FE9
:10474000E0E0F0E030C08D919C91119784179507BF
:1047500011F56417750789F412968D919C91139742
:10476000309719F09383828304C090932905809336
:104770002805EA2FFB2F329657C0842F952F861BD2
:10478000970BEA2FFB2FE80FF91F619371930297A4
:104790008D939C9349C0EA2FFB2F82819381282F10
:1047A000392FA22FB32F109771F680912605909183
:1047B0002705892B41F480916502909166029093C0
:1047C00027058093260540916702509168024115A4
:1047D000510541F44DB75EB7809163029091640238
:1047E000481B590B209126053091270524173507C2
:1047F000C8F4842F952F821B930B8617970790F090
:10480000462F572F4E5F5F4F8417950758F0420F82
:10481000531F5093270540932605E22FF32F6193F2
:10482000719302C0E0E0F0E08E2F9F2FDF91CF91D7
:104830000895CF93DF93009709F456C0C82FD92F5E
:1048400022971B821A82A0912805B0912905109702
:1048500011F140E050E0AC17BD0710F1BB83AA8313
:10486000EC2FFD2F21913191E20FF31FAE17BF07FF
:1048700079F48D919C911197280F391F2E5F3F4F2E
:104880003983288312968D919C9113979B838A83F9
:104890004115510581F4D0932905C093280524C002
:1048A00012968D919C9113974A2F5B2F009719F0C8
:1048B000A82FB92FD0CFE42FF52FD383C283219116
:1048C0003191E20FF31FCE17DF0771F488819981D0
:1048D000280F391F2E5F3F4FE42FF52F31832083A0
:1048E0008A819B8193838283DF91CF910895A0E099
:1048F000B0E0ECE7F4E22ACEC82FD92FA880B98027
:10490000CA80DB80A114B104C104D10441F484E263
:10491000A82E89EDB82E8BE5C82E87E0D82E9D2DC8
:104920008C2D7B2D6A2D2DE133EF41E050E0D7DD5A
:1049300027EA31E440E050E07EDDE62EF72E082F36
:10494000192F9D2D8C2D7B2D6A2D2DE133EF41E00C
:1049500050E0C5DD952F842F732F622F2CEE34EF9E
:104960004FEF5FEF68DD6E0D7F1D801F911F97FF7A
:1049700004C06150704080409048688379838A8386
:104980009B83262F372F482F592F5F77622F732F46
:10499000842F952FCDB7DEB7EAE0F4CDA8DF0895D8
:1049A00089E692E0A4DF08956093690270936A0239
:1049B00080936B0290936C02089510E0CAECD0E0F3
:1049C00004C0FE010E94D7222296CC3CD107C9F731
:0449D000F894FFCF89
:1049D40047414D45204F5645522E52455452593F5A
:1049E40000505245535320425554544F4E20544F77
:1049F40000202020424547494E2047414D4500476D
:104A0400414D452050415553452E50524553530076
:104A1400425554544F4E20544F20524553554D4502
:104A2400003A524353004C564C3A00000000000038
:104A3400000000000102020303030304040404044D
:104A44000404040505050505050505050505050515
:104A540005050506060606060606060606060606F5
:104A640006060606060606060606060606060606E2
:104A740006060607070707070707070707070707C5
:104A840007070707070707070707070707070707B2
:104A940007070707070707070707070707070707A2
:104AA4000707070707070707070707070707070792
:104AB4000707070808080808080808080808080875
:104AC4000808080808080808080808080808080862
:104AD4000808080808080808080808080808080852
:104AE4000808080808080808080808080808080842
:104AF4000808080808080808080808080808080832
:104B04000808080808080808080808080808080821
:104B14000808080808080808080808080808080811
:104B24000808080808080808080808080808080801
:104B340008080820002A05000001000000FF011BEE
:104B44001F1F0E040000000100000000000000E62A
:104B54000CAC0AFD05890A780A00000000E60C5630
:104B640007FD05260AFA0900000000D20CD705D279
:104B740006BD07CC0700000000E60CD705FD053D87
:104B840005C30700000000E60C5607FD05A30A92C2
:104B94000A000000007A0F8410100F410F210F6AE1
:104BA4000F000000001F10010001000100000001BF
:104BB40000000000000000000000000100000001EF
:104BC40000010001000000000000000100010000DD
:104BD40000010001000000000000000000000001CE
:104BE40000000001000100010001000000010000BC
:084BF400000000671E841000A0
:00000001FF
