:100000000C9465000C94090A0C94360A0C948D002B
:100010000C948D000C948D000C948D000C948A0926
:100020000C948D000C948D000C948D000C948D001C
:100030000C948D000C948D000C948D000C948D000C
:100040000C94630A0C948D000C948A050C94D805CA
:100050000C948D000C948D000C948D000C948D00EC
:100060000C948D000C948D000200000000240027E9
:10007000002A0000000000250028002B00000000DE
:1000800000230026002900040404040404040402DC
:100090000202020202030303030303010204081025
:1000A00020408001020408102001020408102000F2
:1000B0000000070002010000030406000000000029
:1000C0000000000044079A071E0D11241FBECFEF49
:1000D000D8E0DEBFCDBF11E0A0E0B1E0E6ECF5E294
:1000E00002C005900D92A635B107D9F712E0A6E53A
:1000F000B1E001C01D92AA3EB107E1F710E0CAECE1
:10010000D0E004C02297FE010E94BF11C43CD10779
:10011000C9F70E94EB070C94E1120C940000CF92F7
:10012000DF92EF92FF920F931F93FC0184E191E025
:1001300091838083358B248B178B068BF18EE08E19
:10014000D38EC28E558F448F81E090E0978F868F3B
:10015000DB0120E030E08D919C91119793838283A5
:1001600012968D919C9113979583848314968D910B
:100170009C911597978386832F5F3F4F36961696EF
:100180002330310541F71F910F91FF90EF90DF90E1
:10019000CF900895CF92DF92EF92FF920F931F932B
:1001A000FC0184E191E091838083358B248B178B54
:1001B000068BF18EE08ED38EC28E558F448F81E0F8
:1001C00090E0978F868FDB0120E030E08D919C914D
:1001D00011979383828312968D919C9113979583A7
:1001E000848314968D919C911597978386832F5FB6
:1001F0003F4F369616962330310541F71F910F91E8
:10020000FF90EF90DF90CF900895FC0171A360A361
:1002100008956F927F928F929F92AF92BF92CF92EA
:10022000DF92EF92FF920F931F93DF93CF93CDB79F
:10023000DEB73C010E948F008AE191E0F3019183D7
:1002400080838B899C8993A382A389899A8995A3AA
:1002500084A3B7A2A6A291A680A6CF91DF911F91F9
:100260000F91FF90EF90DF90CF90BF90AF909F9055
:100270008F907F906F900895FC0182A193A10197C8
:1002800093A382A381E082A708956F927F928F92B9
:100290009F92AF92BF92CF92DF92EF92FF920F9315
:1002A0001F93DF93CF93CDB7DEB73C0100D000D0D2
:1002B00089899A89EDB7FEB7928381838B899C895E
:1002C00094838383C3010E9409018EE091E0F301CE
:1002D000918380830F900F900F900F90CF91DF91BB
:1002E0001F910F91FF90EF90DF90CF90BF90AF9054
:1002F0009F908F907F906F9008959F92AF92BF9242
:10030000CF92DF92EF92FF920F931F93CF93DF93E1
:10031000EC018AA5882309F4A1C080915E0188239D
:10032000C1F481E080935E010E94AB0A9B01AC01A5
:1003300060935601309357014093580150935901EF
:1003400010925A0110925B0110925C0110925D01B3
:1003500084C00E94AB0A8B019C0140E050E060E049
:1003600070E080915601E0915701F0915801F090B2
:100370005901C0905A01B0905B0190905C01A0912E
:100380005D01A02EA81A91E00A1508F090E0812FD7
:100390008E1BE1E0181708F0E0E0B82FB91B91E0E0
:1003A0008B1708F090E0E92B822F8F1BF1E02817C4
:1003B00008F0F0E0D82EDE1A91E08D1508F090E0FC
:1003C000F92B832F8F19E1E0381708F0E0E0E82ED1
:1003D000EF1A91E08E1508F090E0E92B8C2D8195B5
:1003E000F1E0481708F0F0E0F82EFE1A91E08F15C2
:1003F00008F090E0F92B8B2D8195E1E0581708F07B
:10040000E0E0982F9F1BF92F91E08F1708F090E004
:10041000E92B892D819591E0681708F090E0382F3D
:100420003E1B21E0831708F020E0922BA195A9172D
:1004300089F4332379F4FF2369F4FF2059F4EE2083
:1004400049F4DD2039F4B43028F4B33031F488EEC7
:100450008A1518F410925E011AA681E0DF91CF91FF
:100460001F910F91FF90EF90DF90CF90BF90AF90D2
:100470009F9008955F926F927F928F929F92AF921A
:10048000BF92CF92DF92EF92FF920F931F93CF9381
:10049000DF937C013B01542EFC01A28CB38C0894A9
:1004A000A108B108C08CD18C0894C108D1080FEF05
:1004B0001FEF31C0940149010894811C911C88816F
:1004C0009981892BF1F0F7016689778944895589EB
:1004D000552061F06C0D7D1D600F711F4A0D5B1D75
:1004E000420F531FC3010E94D5100BC06C0D7D1D20
:1004F000600F711F4A0D5B1D420F531FC3010E9405
:10050000F1102296F2E08F169104A1F60F5F1F4FB3
:100510000230110579F0C8010196EC01CC0FDD1F06
:10052000C80FD91F2196CC0FDD1FCE0DDF1D2FEF79
:100530003FEFC1CFDF91CF911F910F91FF90EF90CF
:10054000DF90CF90BF90AF909F908F907F906F90F3
:100550005F9008950F931F93CF93DF93EC018A016F
:1005600040E00E943A022EA13FA1688D798D88A5B6
:1005700099A54CA15DA1EA8DFB8D0130110591F487
:100580008C899D894E8D5F8D280F391F241B350B5B
:10059000261B370B12161306E4F5841B950B9D8B57
:1005A0008C8B37C00230110589F44C895D892E8D02
:1005B0003F8D840F951F820F931F861B970B099702
:1005C00044F5240F351F3D8B2C8B23C003301105C0
:1005D00061F42E893F898E8D9F8D281B390B121651
:1005E0001306BCF43F8B2E8B14C00430110589F424
:1005F0002E893F898E8D9F8D420F531F480F591FA3
:100600004E1B5F0B4930510524F4820F931F9F8BC3
:100610008E8BDF91CF911F910F9108959F92AF9292
:10062000BF92CF92DF92EF92FF920F931F93CF93DF
:10063000DF93EC017B0180916701882319F511E0BC
:10064000109367010E94AB0A9B01AC0160935F01AC
:1006500030936001409361015093620110926301F5
:10066000109264011092650110926601CE01B701EB
:10067000409106010E943A028091060181278093F1
:10068000060167C010915F01F0906001E090610188
:1006900000916201D0906301C0906401B090650147
:1006A000909066010E94AB0A9B01AC01A12EA61A94
:1006B000F1E01A1508F0F0E0EF2DE31BA1E0FE16C3
:1006C00008F0A0E01E2F1F1BF1E0E11708F0F0E09A
:1006D000AF2BEE2DE41BB1E0EE1608F0B0E0FE2FDC
:1006E000FA1BAF2FF1E0EA1708F0F0E0BF2B602F04
:1006F000651B81E0061708F080E0462F4B1B91E058
:10070000641708F090E0892B3D2D381B81E0D3164B
:1007100008F080E02C2D281B81E0C21608F080E054
:100720009B2D981B81E0B91608F080E0981679F4AB
:10073000992369F4222359F4332349F4442339F4E7
:10074000AA2329F4112319F488EC8A1510F41092C5
:100750006701DF91CF911F910F91FF90EF90DF9094
:10076000CF90BF90AF909F900895CF93DF93EC010F
:1007700040E00E943A022E8D3F8D8C8D9D8DA90107
:10078000489F9001499F300D589F300D11248E894C
:100790009F89821B930B9F8B8E8B099720F0E8A17A
:1007A000F9A1CE010995DF91CF91089541E00E9412
:1007B0003A02089580E042E050E00E94E609089580
:1007C0009F92AF92BF92CF92DF92EF92FF920F93E0
:1007D0001F93CF93DF93EC018A819B81835A9E4FB5
:1007E0008B5B924008F4A0C00E94AB0A8B019C0175
:1007F00040E050E060E070E080916801E0916901C4
:10080000F0916A01B0916B01D0906C01B0906D01D4
:1008100090906E01A0916F01A02EA81A91E00A1588
:1008200008F090E0812F8E1BE1E0181708F0E0E05F
:10083000C82EC91A91E08C1508F090E0E92B822FA0
:100840008F1BF1E0281708F0F0E0E82EEE1A91E097
:100850008E1508F090E0F92B832F8B1BE1E0381701
:1008600008F0E0E0F82EFF1A91E08F1508F090E014
:10087000E92B8D2D8195F1E0481708F0F0E0B82FB5
:10088000BE1B91E08B1708F090E0F92B8B2D819522
:10089000E1E0581708F0E0E0982F9F1BF92F91E056
:1008A0008F1708F090E0E92B892D819591E068176A
:1008B00008F090E0382F3E1B21E0831708F020E07D
:1008C000922BA195A91779F4332369F4FF2359F4E6
:1008D000BB2349F4FF2039F4EE2029F4CC2019F48D
:1008E00023E62A1508F50E94AB0A9B01AC01609330
:1008F00068013093690140936A0150936B01109233
:100900006C0110926D0110926E0110926F018A813C
:100910009B81181619061CF421E030E007C0892BD2
:1009200019F02FEF3FEF02C020E030E0C901DF9166
:10093000CF911F910F91FF90EF90DF90CF90BF90DC
:10094000AF909F9008959F92AF92BF92CF92DF9207
:10095000EF92FF920F931F93CF93DF93EC01888167
:100960009981835A9E4F8B5B924008F4A0C00E94ED
:10097000AB0A8B019C0140E050E060E070E08091A8
:100980007001E0917101F0917201B0917301D0900A
:100990007401B090750190907601A0917701A02E1E
:1009A000A81A91E00A1508F090E0812F8E1BE1E073
:1009B000181708F0E0E0C82EC91A91E08C1508F06D
:1009C00090E0E92B822F8F1BF1E0281708F0F0E070
:1009D000E82EEE1A91E08E1508F090E0F92B832FA7
:1009E0008B1BE1E0381708F0E0E0F82EFF1A91E0E9
:1009F0008F1508F090E0E92B8D2D8195F1E04817D7
:100A000008F0F0E0B82FBE1B91E08B1708F090E0E3
:100A1000F92B8B2D8195E1E0581708F0E0E0982F35
:100A20009F1BF92F91E08F1708F090E0E92B892D9B
:100A3000819591E0681708F090E0382F3E1B21E087
:100A4000831708F020E0922BA195A91779F433239E
:100A500069F4FF2359F4BB2349F4FF2039F4EE2055
:100A600029F4CC2019F423E62A1508F50E94AB0AD4
:100A70009B01AC016093700130937101409372014E
:100A800050937301109274011092750110927601C7
:100A90001092770188819981181619061CF421E0BB
:100AA00030E007C0892B19F02FEF3FEF02C020E0A4
:100AB00030E0C901DF91CF911F910F91FF90EF902E
:100AC000DF90CF90BF90AF909F9008950F931F93AA
:100AD0008C018EE00E94400B8B509240F801918374
:100AE00080838FE00E94400B8B5F9140F8019383DD
:100AF00082831F910F9108958EE060E00E94620B47
:100B00008FE060E00E94620B82E062E00E94620B74
:100B1000089508951F920F920FB60F9211242F93EC
:100B20003F934F938F939F93EF93FF938091C000D8
:100B300082FD1DC04091C6002091B8013091B901DD
:100B40002F5F3F4F2F7330708091BA019091BB019E
:100B50002817390771F0E091B801F091B901E85810
:100B6000FE4F40833093B9012093B80102C08091B9
:100B7000C600FF91EF919F918F914F913F912F91DF
:100B80000F900FBE0F901F901895E0910C02F091FE
:100B90000D02E05CFF4F8191919120813181821B98
:100BA000930B8F739070892B11F00E948905089523
:100BB0001F920F920FB60F9211242F933F938F9392
:100BC0009F93EF93FF932091FC013091FD01809161
:100BD000FE019091FF012817390731F48091C1007F
:100BE0008F7D8093C10014C0E091FE01F091FF0160
:100BF000E454FE4F20818091FE019091FF01019607
:100C00008F7390709093FF018093FE012093C60034
:100C1000FF91EF919F918F913F912F910F900FBE78
:100C20000F901F901895AF92BF92DF92EF92FF92B4
:100C30000F931F93CF93DF93EC017A018B01DD2497
:100C4000403081EE580780E0680780E0780711F0B7
:100C5000DD24D39491E0A92EB12CEC89FD89DD200F
:100C600069F0C50108A002C0880F991F0A94E2F735
:100C7000808360E079E08DE390E005C0108260E859
:100C800074E88EE190E0A80197010E949B11215029
:100C9000304040405040569547953795279580E124
:100CA0002030380720F0DD2011F0DD24D6CFE88990
:100CB000F9893083EA89FB89208319A2EE89FF89AB
:100CC000408121E030E0C9010C8C02C0880F991FDF
:100CD0000A94E2F7482B4083EE89FF894081C901DD
:100CE0000D8C02C0880F991F0A94E2F7482B4083AD
:100CF000EE89FF894081C9010E8C02C0880F991FBF
:100D00000A94E2F7482B4083EE89FF8980810F8C9B
:100D100002C0220F331F0A94E2F720952823208374
:100D2000DF91CF911F910F91FF90EF90DF90BF90D7
:100D3000AF900895DC011C96ED91FC911D97E05C4D
:100D4000FF4F2191319180819181281B390B2F73A5
:100D50003070C9010895DC011C96ED91FC911D973E
:100D6000E05CFF4F20813181E054F040DF01AE5B59
:100D7000BF4F8D919C9111972817390719F42FEFC8
:100D80003FEF07C08D919C91E80FF91F8081282FBC
:100D900030E0C9010895DC011C96ED91FC911D978E
:100DA000E05CFF4F20813181E054F040DF01AE5B19
:100DB000BF4F8D919C9111972817390719F42FEF88
:100DC0003FEF10C08D919C911197E80FF91F208182
:100DD0008D919C91119701968F73907011969C93B1
:100DE0008E9330E0C9010895DC0191968C91919722
:100DF000882339F05496ED91FC915597808186FFB8
:100E0000F9CF91961C920895CF93DF93EC01EE8574
:100E1000FF85E05CFF4F20813181E054F0402F5F7F
:100E20003F4F2F733070DF01AE5BBF4F8D919C91B0
:100E3000119728173907D1F3E05CFF4F808191812A
:100E4000E054F040E80FF91F6083EE85FF85E05C19
:100E5000FF4F31832083EE89FF89208181E090E07C
:100E60000F8C02C0880F991F0A94E2F7282B208369
:100E700081E089A3EC89FD8980818064808381E0A1
:100E800090E0DF91CF910895109203021092020238
:100E900088EE93E0A0E0B0E0809304029093050216
:100EA000A0930602B093070280E291E090930102C2
:100EB0008093000288E791E090930D0280930C02EA
:100EC0008CEB91E090930F0280930E0285EC90E002
:100ED000909311028093100284EC90E0909313029F
:100EE0008093120280EC90E090931502809314029C
:100EF00081EC90E0909317028093160282EC90E0D0
:100F0000909319028093180286EC90E090931B0254
:100F100080931A0284E080931C0283E080931D0278
:100F200087E080931E0285E080931F0281E080931A
:100F30002002089580E391E090932302809322029F
:100F4000109224021092250210922602109227027B
:100F500008958F929F92AF92BF92CF92DF92EF92BD
:100F6000FF920F931F93CF93DF934C016B017C0192
:100F7000AA24BB24C0E0D0E0C601F70162814AE0A8
:100F800050E00E94E1088C01C6016EE20E942A082E
:100F9000080F191FA00EB11E21960894E11CF11C28
:100FA000C330D10549F7C601F40165814AE050E03C
:100FB0000E94E1089501280F391FC901DF91CF91E7
:100FC0001F910F91FF90EF90DF90CF90BF90AF9067
:100FD0009F908F900895CF93DF930E94050B0E94FE
:100FE000250FC5ECD5E00E94610D2097E1F30E942A
:100FF000C505F9CF0E94831208950E94C311089578
:10100000CF92DF92EF92FF920F931F93CF93DF93D4
:101010007C016B018A01C0E0D0E00FC0D6016D9168
:101020006D01D701ED91FC910190F081E02DC70198
:101030000995C80FD91F015010400115110571F70E
:10104000CE01DF91CF911F910F91FF90EF90DF9034
:10105000CF900895DC01ED91FC910190F081E02D9D
:1010600009950895EF92FF920F931F938C01DC0175
:10107000ED91FC910190F081E02D6DE009957C01EE
:10108000D801ED91FC910190F081E02DC8016AE05A
:1010900009959C012E0D3F1DC9011F910F91FF90D5
:1010A000EF900895CF93DF93EC016115710519F46A
:1010B00020E030E00FC0DB010D900020E9F7119730
:1010C000A61BB70BE881F9810280F381E02DAD0109
:1010D00009959C01C901DF91CF9108954F925F92CC
:1010E0007F928F929F92AF92BF92CF92DF92EF92B8
:1010F000FF920F931F93DF93CF93CDB7DEB7A197E6
:101100000FB6F894DEBF0FBECDBF2C01742ECB01FD
:10111000223008F42AE019A231E2C32ED12CCC0EE1
:10112000DD1E822E9924AA24BB24672D752FA501CC
:1011300094010E949B1179018A01C801B701A501A0
:1011400094010E947C11472D461B0894C108D108C8
:101150004A3014F4405D01C0495CF6014083E1145B
:10116000F1040105110521F07E2C5F2DC801DDCFB2
:10117000C201B6010E945208A1960FB6F894DEBFD4
:101180000FBECDBFCF91DF911F910F91FF90EF90D8
:10119000DF90CF90BF90AF909F908F907F905F90A7
:1011A0004F900895DC012115310541F4ED91FC913A
:1011B0000190F081E02D642F099508950E946E083A
:1011C0000895EF92FF920F931F939A01E62EFF244A
:1011D00000E010E0B801A7010E94D2081F910F9112
:1011E000FF90EF900895CF92DF92EF92FF920F93CE
:1011F0001F93CF93DF93EC016A017B012115310529
:1012000041F4E881F9810190F081E02D642F099586
:101210001FC02A303105D1F477FF17C0E881F9816A
:101220000190F081E02D6DE209958C01442755274E
:10123000BA014C195D096E097F09CE012AE00E94AE
:101240006E089801280F391F04C02AE00E946E081A
:101250009C01C901DF91CF911F910F91FF90EF90F9
:10126000DF90CF900895CF92DF92EF92FF920F938D
:101270001F936C017B019A010027F7FC0095102F4A
:10128000B801A7010E94F3088C01C6010E94320830
:10129000080F191FC8011F910F91FF90EF90DF9069
:1012A000CF900895813041F0813018F08230D1F430
:1012B00009C010926E00089580916F008D7F809319
:1012C0006F000895809170008D7F8093700081E0A1
:1012D0008093B0008091B100887F84608093B100DA
:1012E0001092B30008951F93182F80910701811762
:1012F00011F09FEF06C0E8E6F0E094918FEF809345
:101300000701892F0E945209812F60E00E94CE0BB5
:101310001F9108951F920F920FB60F9211242F93D1
:101320003F934F935F936F937F938F939F93AF936D
:10133000BF93EF93FF938091280290912902A0918F
:101340002A02B0912B020097A105B10551F1E0915D
:101350002C02F0912D02808190912E0289278083AA
:101360008091280290912902A0912A02B0912B022B
:10137000181619061A061B06C4F4809128029091CB
:101380002902A0912A02B0912B020197A109B1096B
:101390008093280290932902A0932A02B0932B02F3
:1013A00004C0809107010E947309FF91EF91BF91E2
:1013B000AF919F918F917F916F915F914F913F91ED
:1013C0002F910F900FBE0F901F901895823000F54F
:1013D000E82FF0E0EE0FFF1FE15DFD4F71836083AA
:1013E000882319F08130A1F408C0809169008C7FB6
:1013F000842B80936900E89A089580916900440FD6
:10140000551F440F551F837F842B80936900E99AF1
:1014100008951F920F920FB60F9211242F933F93AE
:101420004F935F936F937F938F939F93AF93BF93EC
:10143000EF93FF9380912F0290913002892B29F036
:10144000E0912F02F09130020995FF91EF91BF9149
:10145000AF919F918F917F916F915F914F913F914C
:101460002F910F900FBE0F901F9018951F920F9203
:101470000FB60F9211242F933F934F935F936F9367
:101480007F938F939F93AF93BF93EF93FF9380913D
:10149000310290913202892B29F0E0913102F091D2
:1014A00032020995FF91EF91BF91AF919F918F917A
:1014B0007F916F915F914F913F912F910F900FBE50
:1014C0000F901F9018951F920F920FB60F92112434
:1014D0002F933F938F939F93AF93BF938091370246
:1014E00090913802A0913902B0913A0230913B02BA
:1014F0000196A11DB11D232F2D5F2D3720F02D57F3
:101500000196A11DB11D20933B0280933702909359
:101510003802A0933902B0933A028091330290913D
:101520003402A0913502B09136020196A11DB11D81
:101530008093330290933402A0933502B093360225
:10154000BF91AF919F918F913F912F910F900FBEBF
:101550000F901F9018958FB7F89420913702309113
:1015600038024091390250913A028FBFB901CA0145
:1015700008959FB7F894209133023091340240913E
:1015800035025091360286B5A89B06C08F3F21F0E8
:101590002F5F3F4F4F4F5F4F9FBF542F432F322F2F
:1015A0002227280F311D411D511D82E0220F331FBC
:1015B000441F551F8A95D1F7B901CA010895EF92CA
:1015C000FF920F931F93CF93DF937B018C010E94B7
:1015D000B90AEB010EC00E94B90A6C1B7D0B685E54
:1015E0007340C8F30894E108F10801091109C851D2
:1015F000DC4FE114F1040105110569F7DF91CF918A
:101600001F910F91FF90EF900895789484B58260B8
:1016100084BD84B5816084BD85B5826085BD85B596
:10162000816085BDEEE6F0E0808181608083E1E845
:10163000F0E010828081826080838081816080837D
:10164000E0E8F0E0808181608083E1EBF0E0808180
:1016500084608083E0EBF0E0808181608083EAE752
:10166000F0E08081846080838081826080838081DB
:10167000816080838081806880831092C10008959A
:10168000982F8E3008F09E509770809108018295B7
:10169000880F880F807C892B80937C0080917A0052
:1016A000806480937A0080917A0086FDFCCF20913F
:1016B000780040917900942F80E030E0282B392B7E
:1016C000C9010895CF93DF93482F50E0CA01855692
:1016D0009F4FFC01349149575F4FFA018491882351
:1016E00069F190E0880F991FFC01E759FF4FA59120
:1016F000B491FC01ED58FF4FC591D491662351F48C
:101700002FB7F8948C91932F909589238C9388818F
:1017100089230BC0623061F42FB7F8948C91932F1A
:10172000909589238C938881832B88832FBF06C053
:101730009FB7F8948C91832B8C939FBFDF91CF91AF
:101740000895833071F0843028F48130A1F0823024
:1017500021F514C08630B1F08730D1F08430E9F43F
:1017600004C0809180008F7703C0809180008F7DBE
:1017700080938000089584B58F7702C084B58F7DF3
:1017800084BD08958091B0008F778093B000089554
:101790008091B0008F7D8093B0000895FF920F93E9
:1017A0001F93F62E482F50E0CA0181559F4FFC0130
:1017B0002491CA0185569F4FFC01149149575F4FF0
:1017C000FA0104910023C9F0222319F0822F0E940C
:1017D000A10BE02FF0E0EE0FFF1FED58FF4FA5919A
:1017E000B4919FB7F894FF2021F48C911095812338
:1017F00002C08C91812B8C939FBF1F910F91FF9002
:101800000895BF92CF92DF92EF92FF920F931F93B2
:10181000CF93DF93E82EF62EB42EC7E0D0E0022F50
:1018200010E087E0C82ED12CBB2059F4B6016C1B08
:101830007D0BC80102C0959587956A95E2F7BC01BA
:1018400007C0B8010C2E02C0759567950A94E2F79F
:10185000617070708E2D0E94CE0B8F2D61E00E9402
:10186000CE0B8F2D60E00E94CE0B21979FEFCF3FD4
:10187000D907D1F6DF91CF911F910F91FF90EF9093
:10188000DF90CF90BF900895FC01118210821382E7
:101890001282158214821782168210860895DC0146
:1018A0001496ED91FC911597808191810895FC012A
:1018B00080819181958384830895FC0180858823AC
:1018C00011F010860895A481B581109741F0129609
:1018D0008D919C911397009711F0958384830895BF
:1018E000FC0140E0248135818281938128173907EA
:1018F00009F441E0842F089520E0FC018481958162
:10190000892B09F021E0822F0895FC0186819781BF
:1019100008950F931F93CF93DF93FC01A481B581AA
:1019200014966D917C91159712964D915C91139739
:10193000868197810197978386831C9111960C91DC
:1019400011978081918122813381A817B90781F491
:10195000A217B30719F4158214821BC081E0808797
:10196000EA011D821C82518340835583448311C048
:10197000A217B30731F4EB011B821A8273836283CF
:1019800006C0EB015B834A83EA017D836C83758328
:101990006483CD010E94FA07812F902FDF91CF91B0
:1019A0001F910F9108950F931F93CF93DF93EC0135
:1019B0008B0186E090E00E94FD07DC0111961C93EC
:1019C0000E9313961C921E92129715961C921E92BD
:1019D00014978E819F8101969F838E838881998140
:1019E000892B29F4BB83AA83B983A8830AC0EA811F
:1019F000FB811596FC93EE931497B383A283BB836C
:101A0000AA83DF91CF911F910F9108958091CF020A
:101A10009091D00220E030E0892B11F421E030E0F9
:101A20003093D0022093CF028091D1029091D202C4
:101A300001969093D2028093D10208958F929F9243
:101A4000AF92BF92CF92DF92EF92FF920F931F93CC
:101A50008CE392E00E943C1100D000D082E090E044
:101A6000EDB7FEB7928381838AE090E0948383830D
:101A700084EA92E062E371E041E050E024E030E08B
:101A800006E010E0F1E0EF2EF12CCC24DD24AA24B6
:101A9000BB24E2E08E2E912C0E9445010F900F9006
:101AA0000F900F9083ED92E00E94440C1F910F91D4
:101AB000FF90EF90DF90CF90BF90AF909F908F906E
:101AC00008959F92AF92BF92CF92DF92EF92FF92D2
:101AD0000F931F938091E4029091E502892B51F4BA
:101AE00081E090E09093E5028093E40284EA92E042
:101AF0000E943C010E94AB0A8B019C0140E050E037
:101B000060E070E08091DC02E091DD02F091DE02A5
:101B1000F090DF02C090E002B090E1029090E2020B
:101B2000A091E302A02EA81A91E00A1508F090E017
:101B3000812F8E1BE1E0181708F0E0E0B82FB91BE9
:101B400091E08B1708F090E0E92B822F8F1BF1E0DA
:101B5000281708F0F0E0D82EDE1A91E08D1508F075
:101B600090E0F92B832F8F19E1E0381708F0E0E0BF
:101B7000E82EEF1A91E08E1508F090E0E92B8C2DFD
:101B80008195F1E0481708F0F0E0F82EFE1A91E098
:101B90008F1508F090E0F92B8B2D8195E1E0581717
:101BA00008F0E0E0982F9F1BF92F91E08F1708F0C5
:101BB00090E0E92B892D819591E0681708F090E07D
:101BC000382F3E1B21E0831708F020E0922BA195CF
:101BD000A91791F4332381F4FF2371F4FF2061F4FA
:101BE000EE2051F4DD2041F4B23030F4B13009F090
:101BF0003FC08CE28A15E0F583ED92E00E94850CEF
:101C00000497B4F50E94AB0A9B01AC016093DC021F
:101C10003093DD024093DE025093DF021092E00227
:101C20001092E1021092E2021092E30282E290E04E
:101C30000E94FD07B82EA92E64E471E04FEF5FEF1C
:101C400023E030E003E010E0B1E0EB2EF12CA1E066
:101C5000CA2ED12C0E94CA008B2D9A2D64E47FE0FD
:101C60000E94050183ED92E06B2D7A2D0E94D30C2A
:101C700083ED92E00E94850CBC0180E092E04AE096
:101C800050E00E94330983ED92E00E947C0C88238F
:101C900061F583ED92E00E94850C892B31F183ED93
:101CA00092E00E94570C21C083ED92E00E944F0CFD
:101CB0006CE372E00E94D6031092090117C083ED15
:101CC00092E00E944F0CFC01A081B1812D913C91CA
:101CD0006CE372E040E050E0F901099583ED92E099
:101CE0000E945D0C1093090101C011E083ED92E0A8
:101CF0000E94850C892B09F496C083ED92E00E9426
:101D0000700C882309F08FC080910901882361F647
:101D1000D6CF83ED92E00E94700C882329F1809148
:101D20000901882359F083ED92E00E944F0C6CE387
:101D300072E00E94D6031092090116C083ED92E072
:101D40000E944F0CDC01ED91FC910190F081E02D9F
:101D50006CE372E040E050E0099583ED92E00E9470
:101D6000570C81E08093090184EA92E00E947D0192
:101D7000882339F084EA92E06CE372E00E940E035B
:101D800006C084EA92E06CE372E00E94D6038CE322
:101D900092E00E940E1164E670E080E090E00E9404
:101DA000DF0A8091A2029091A3020E9466058091B1
:101DB000A2029091A3020E94A3048C018091A2022E
:101DC0009091A3020E94E0037C010130110539F4D7
:101DD00084EA92E06CE372E041E050E009C00F5FFA
:101DE0001F4F41F484EA92E06CE372E042E050E07D
:101DF0000E94AA028FEFE8168FEFF80639F484EA02
:101E000092E06CE372E044E050E00AC091E0E91631
:101E1000F10489F484EA92E06CE372E043E050E07C
:101E20000E94AA0208C083ED92E00E94850C892BD3
:101E300009F49ACF6ECF1F910F91FF90EF90DF9032
:101E4000CF90BF90AF909F9008950F931F9380E025
:101E500092E040E855E260E070E00E94130684E002
:101E600090E00E94FD07182F092F0E947C05109317
:101E7000A2020093A302812F902F66E07DE00E94D2
:101E8000DA031F910F91089583ED92E00E94890C6F
:101E900008958F929F92AF92BF92CF92DF92EF926E
:101EA000FF920F931F93DF93CF9300D0CDB7DEB790
:101EB0007C0149832A83660F771F86E590E0E80E50
:101EC000F91EF701008111818AEA9FEFE80EF91EE1
:101ED000000F111F80E090E005C0F701E80FF91F27
:101EE0001082019680179107C4F38981F701E60FEC
:101EF000F71F81838A818083F701EC5AFF4F80812D
:101F000060E00E94CE0B015010406701C00ED11E50
:101F10000F5F1F4F90E5892E912C8E0C9F1C82E540
:101F2000A82EB12CAE0CBF1C0EC001501040F40105
:101F30008081F501608141E0F60120810E94010C61
:101F40000894C108D108101611067CF384E590E0CE
:101F5000E80EF91EF701808161E00E94CE0B0F9020
:101F60000F90CF91DF911F910F91FF90EF90DF9035
:101F7000CF90BF90AF909F908F900895DC0177FD38
:101F80001CC0AA5ABF4F8D919C911197A655B04085
:101F90006817790794F44830510578F4FB0193E011
:101FA000EE0FFF1F9A95E1F7EA0FFB1FE40FF51FF5
:101FB000208B4F5FCD010E94490F0895DF92EF9271
:101FC000FF920F931F93CF93DF93EC017B0177FD7B
:101FD00022C0CA5ADF4F88819981C655D040681700
:101FE0007907CCF48B010E5F1F4F53E0000F111FD8
:101FF0005A95E1F70C0F1D1FDD24D394F8011192BF
:102000008F01CE01B7014D2D20E00E94490FD394DE
:10201000F9E0DF1699F7DF91CF911F910F91FF90B3
:10202000EF90DF900895FC019A0177FD10C0EA5A05
:10203000FF4F80819181E655F040681779073CF4A5
:102040004031510520F4CF014AE00E94490F089524
:10205000FC019A0177FD10C0EA5AFF4F80819181FF
:10206000E655F040681779073CF44830510520F4F4
:10207000CF014BE00E94490F0895FC0177FD16C087
:10208000EA5AFF4F80819181E655F0406817790741
:102090006CF4442331F0CF014CE020E00E94490F62
:1020A0000895CF014CE021E00E94490F0895CF929E
:1020B000DF92EF92FF920F931F93CF93DF93EC0188
:1020C0006B01C05BDF4F69937993499359933983CF
:1020D0002883C455D040C8010197089710F008E044
:1020E00010E0CA5ADF4F19830883C655D0408E01CD
:1020F000005B1F4FF801808161E00E94620BFE01CE
:10210000EE5AFF4F808161E00E94620B74E5E72E7A
:10211000F12CEC0EFD1EF701808161E00E94620B44
:10212000F701808161E00E94CE0BF801D182C0826C
:10213000FE0180E090E0108A01963196803491058E
:10214000D1F700E010E066E5C62ED12CCC0EDD1EE6
:102150001DC0CE01B8014FE020E00E94490FCE0122
:10216000B80147E050E00E942810CE01B80149E0D4
:1021700020E00E94490FCE01B8010E94DE0FCE017F
:10218000B80141E00E943D100F5F1F4FF6018081B2
:10219000918108171907ECF2DF91CF911F910F91F0
:1021A000FF90EF90DF90CF900895FC0177FD18C06D
:1021B00080819181681779079CF457FD11C0828155
:1021C00093814817590764F4E60FF71F81E090E008
:1021D00002C0880F991F4A95E2F72681282B268393
:1021E0000895FC0177FD19C08081918168177907F6
:1021F000A4F457FD12C082819381481759076CF4EB
:10220000E60FF71F81E090E002C0880F991F4A9502
:10221000E2F780952681822386830895CF92DF920C
:10222000EF92FF920F931F93CF93DF938C018EE079
:10223000C82ED12CC00ED11E7801C0E0D0E00AC05B
:10224000F80164817581C601AE01F70125810E9404
:10225000BE0F21960894E11CF11CF8018081918148
:10226000C817D9076CF3DF91CF911F910F91FF90A1
:10227000EF90DF90CF900895EF92FF920F931F930E
:10228000CF93DF93EC0188E090E0998388839B8370
:102290008A831D821C829EE0E92EF12CEC0EFD1E2D
:1022A000C7016CE070E04BE050E02AE030E001E074
:1022B00010E00E945710FE0120E030E003C01582BC
:1022C0002F5F3F4F31968881998128173907BCF3DA
:1022D0006C817D81C70140E00E943D106C817D8151
:1022E000C70148E050E00E941310DF91CF911F9189
:1022F0000F91FF90EF900895629FD001739FF001BE
:10230000829FE00DF11D649FE00DF11D929FF00D85
:10231000839FF00D749FF00D659FF00D9927729FBC
:10232000B00DE11DF91F639FB00DE11DF91FBD0147
:10233000CF0111240895A1E21A2EAA1BBB1BFD0197
:102340000DC0AA1FBB1FEE1FFF1FA217B307E40794
:10235000F50720F0A21BB30BE40BF50B661F771FEC
:10236000881F991F1A9469F76095709580959095CC
:102370009B01AC01BD01CF010895EE0FFF1F059039
:10238000F491E02D0994CF93DF93682F792F823059
:10239000910510F462E070E0A091E802B091E902CA
:1023A000CA2FDB2FE0E0F0E040E050E026C088815B
:1023B00099818617970771F48A819B81309719F06C
:1023C0009383828304C09093E9028093E802EC2F08
:1023D000FD2F3BC06817790740F44115510519F0EE
:1023E0008417950710F4482F592FEC2FFD2F8A8161
:1023F0009B81282F392FC22FD32F2097C1F641154B
:102400005105E9F1842F952F861B970B049710F443
:10241000642F752FE0E0F0E030C08D919C91119712
:102420008417950711F56417750789F412968D9135
:102430009C911397309719F09383828304C09093F3
:10244000E9028093E802EA2FFB2F329657C0842FCF
:10245000952F861B970BEA2FFB2FE80FF91F61932F
:10246000719302978D939C9349C0EA2FFB2F828131
:102470009381282F392FA22FB32F109771F68091B7
:10248000E6029091E702892B41F48091020190913C
:1024900003019093E7028093E6024091040150917A
:1024A00005014115510541F44DB75EB7809100011A
:1024B00090910101481B590B2091E6023091E702EF
:1024C00024173507C8F4842F952F821B930B86178A
:1024D000970790F0462F572F4E5F5F4F8417950751
:1024E00058F0420F531F5093E7024093E602E22F49
:1024F000F32F6193719302C0E0E0F0E08E2F9F2FE5
:10250000DF91CF910895CF93DF93009709F456C0E0
:10251000C82FD92F22971B821A82A091E802B0916E
:10252000E902109711F140E050E0AC17BD0710F13F
:10253000BB83AA83EC2FFD2F21913191E20FF31F72
:10254000AE17BF0779F48D919C911197280F391F11
:102550002E5F3F4F3983288312968D919C9113975C
:102560009B838A834115510581F4D093E902C0937E
:10257000E80224C012968D919C9113974A2F5B2FED
:10258000009719F0A82FB92FD0CFE42FF52FD383C0
:10259000C28321913191E20FF31FCE17DF0771F44F
:1025A00088819981280F391F2E5F3F4FE42FF52F27
:1025B000318320838A819B8193838283DF91CF91B2
:0625C0000895F894FFCF1E
:1025C6002000EA02000001FF010100000000AA024B
:1025D60000000000B50300000000B5030000000085
:1025E600040700089A06CB06AB06F40600000000B6
:1025F600A907000001000000010001000100010020
:1026060000000100010001000100000001000000BF
:06261600000000000000BE
:00000001FF
