:100000000C9466000C944B0D0C94780D0C948E009F
:100010000C948E000C948E000C948E000C94CC0CDE
:100020000C948E000C948E000C948E000C948E0018
:100030000C948E000C948E000C948E000C948E0008
:100040000C94A50D0C948E000C943D090C948B0916
:100050000C948E000C948E000C948E000C948E00E8
:100060000C948E000C948E000200000000240027E7
:10007000002A0000000000250028002B00000000DE
:1000800000230026002900040404040404040402DC
:100090000202020202030303030303010204081025
:1000A00020408001020408102001020408102000F2
:1000B0000000070002010000030406000000000029
:1000C00000000000F70A4D0B4F10481011241FBE0E
:1000D000CFEFD8E0DEBFCDBF11E0A0E0B1E0E4E9B2
:1000E000F2E302C005900D92A03BB107D9F713E0EF
:1000F000A0EBB1E001C01D92AD37B107E1F710E010
:10010000CAECD0E004C02297FE010E94B517C43C9F
:10011000D107C9F70E949E0B0C943D190C94000066
:10012000FC018AE391E0918380830895CF92DF926E
:10013000EF92FF920F931F93FC018AE391E091836A
:100140008083358B248B178B068BF18EE08ED38EBC
:10015000C28E558F448F81E090E0978F868FDB01B0
:1001600020E030E08D919C911197938382831296C9
:100170008D919C9113979583848314968D919C9176
:100180001597978386832F5F3F4F369616962330B9
:10019000310541F71F910F91FF90EF90DF90CF90C5
:1001A0000895CF92DF92EF92FF920F931F93FC017D
:1001B0008AE391E091838083358B248B178B068BA8
:1001C000F18EE08ED38EC28E558F448F81E090E009
:1001D000978F868FDB0120E030E08D919C91119705
:1001E0009383828312968D919C9113979583848338
:1001F00014968D919C911597978386832F5F3F4F1F
:10020000369616962330310541F71F910F91FF90D6
:10021000EF90DF90CF900895DC01ED91FC9101907B
:10022000F081E02D41E009950895DC01ED91FC910C
:100230000190F081E02D40E009950895FC01778F51
:10024000668F08950F931F938C01DC01ED91FC9153
:100250000190F081E02D40E00995F801268D378D61
:10026000848D958DA901489F9001499F300D589F1D
:10027000300D112486899789821B930B978B868B6F
:1002800020E0099708F021E0822F1F910F91089537
:100290002F923F924F925F926F927F928F929F9296
:1002A000AF92BF92CF92DF92EF92FF920F931F9384
:1002B000DF93CF93CDB7DEB728970FB6F894DEBFA4
:1002C0000FBECDBF6C017B0121E030E0FC01828DCF
:1002D000938DA901481B590B5C834B83808D918DB5
:1002E000F901E81BF90BFA83E983FB01828D938DF9
:1002F0001901281A390A808D918D2901481A590A45
:100300001E821D826BC0A114B10469F1EF81F885D2
:1003100080819181892B39F1F601268937898B817A
:100320009C81280F391F260D371DF7018689978973
:10033000820D931D860F971F28173907A1F4F60128
:100340002489358989819A81280F391F280D391D03
:10035000F70184899589840D951D840F951F2817B1
:10036000390709F450C04F5F5F4F2F8138852E5FEA
:100370003F4F38872F834230510529F66F5F7F4FFB
:100380006230710591F0CB010196AC01440F551F0D
:10039000480F591F4F5F5F4F440F551F4E0D5F1D94
:1003A00058874F834FEF5FEFAECF0F5F1F4F12960F
:1003B0000330110551F04801089481089108AD906F
:1003C000BC9011976FEF7FEFDECF8D819E810196FC
:1003D0009E838D83039711F480E016C06D807E802C
:1003E000089461087108AD81BE81AA0FBB1FED8121
:1003F000FE81AE0FBF1F1196AA0FBB1FAC0DBD1D16
:1004000000E010E0D8CF81E028960FB6F894DEBF68
:100410000FBECDBFCF91DF911F910F91FF90EF9055
:10042000DF90CF90BF90AF909F908F907F906F9014
:100430005F904F903F902F9008958F929F92AF9230
:10044000BF92CF92DF92EF92FF920F931F93CF93C1
:10045000DF938C01DB0181E090E05A962D913C9175
:100460005B975C01A21AB30A58962D913C9159975B
:100470006C01C21AD30A60E070E030C0A4014A01E6
:100480000894811C911C80819181892BD9F056960A
:100490008D919C9157978A0D9B1D8E0D9F1DE80194
:1004A0002E893F892817390769F454968D919C91BC
:1004B00055978C0D9D1D840F951F2C893D892817FC
:1004C0003907E9F0329682E088169104B9F66F5F39
:1004D0007F4F6330710511F480E012C07B010894F6
:1004E000E108F108FB01EE0FFF1FE60FF71F319641
:1004F000EE0FFF1FEA0FFB1F4FEF5FEFC0CF81E052
:10050000DF91CF911F910F91FF90EF90DF90CF90EF
:10051000BF90AF909F908F900895FC0180A5882395
:1005200039F480A191A1019791A380A381E080A7D4
:100530000895FC0180A191A108950F931F93CF937B
:10054000DF93EC018A01E881F9810190F081E02DCF
:1005500040E009952CA13DA1688D798D8EA19FA1C8
:100560004AA15BA1EA8DFB8D0230110589F48C89CB
:100570009D894E8D5F8D280F391F261B370B241B3D
:10058000350B37FD3BC0841B950B9D8B8C8B36C088
:100590000330110589F44C895D892E8D3F8D840FC0
:1005A000951F820F931F861B970B08973CF5240F0E
:1005B000351F3D8B2C8B22C00430110559F42E8938
:1005C0003F898E8D9F8D281B390B37FD17C03F8BC0
:1005D0002E8B14C00530110589F42E893F898E8D2C
:1005E0009F8D420F531F480F591F4E1B5F0B483002
:1005F000510524F4820F931F9F8B8E8B80E0DF9137
:10060000CF911F910F910895FC018AE391E09183AE
:1006100080830895FC018AE391E091838083CF0178
:100620000E94BB0B0895FC018AE391E091838083D3
:10063000CF010E94BB0B0895EF92FF920F931F937F
:10064000CF93DF937B018C01075D1F4FC8010E9490
:10065000F30FEC0107C0C801BE010E94F70FB701FC
:100660000E9415012197D7FFF6CFDF91CF911F91FF
:100670000F91FF90EF900895EF92FF920F931F93C9
:10068000CF93DF937B018C01075D1F4FC8010E9450
:10069000F30FEC0107C0C801BE010E94F70FB701BC
:1006A0000E940C012197D7FFF6CFDF91CF911F91C8
:1006B0000F91FF90EF9008957F928F929F92AF924B
:1006C000BF92CF92DF92EF92FF920F931F93CF933F
:1006D000DF93EC015B01790168010E949D02E11446
:1006E000F10409F1E881F9810480F581E02DCE0162
:1006F000B7010995882309F44BC0F70180A5882329
:1007000039F480A191A1019791A380A381E080A7F2
:1007100088A58823E9F588A199A1019799A388A3C1
:1007200081E088A735C00115110591F1C8010E942B
:10073000F30F7C010894E108F1084E0177247394CB
:1007400025C0E881F98104811581C601B7010E94A5
:10075000F70FBC01C401F80109958823A1F088A511
:10076000882331F488A199A1019799A388A378A639
:10077000C601B7010E94F70FB5010E941501C6011D
:10078000B7010E94FF0F0894E108F108F7FED9CFE6
:10079000DF91CF911F910F91FF90EF90DF90CF905D
:1007A000BF90AF909F908F907F900895EF92FF92AF
:1007B0000F931F93CF93DF937B018C01075D1F4F36
:1007C000C8010E94F30FEC0116C0C801BE010E94CF
:1007D000F70FFC01A081B18112962D913C911397E6
:1007E000B70141E050E0F9010995882321F0C801E3
:1007F000BE010E94FF0F2197D7FFE7CFDF91CF9176
:100800001F910F91FF90EF900895BF92CF92DF92CA
:10081000EF92FF920F931F93CF93DF938C016B01A5
:100820000E94D60369E2E62EF12CE00EF11EC7010C
:100830000E94F30FEC012197035B1F4FBB24B3947D
:100840002BC0C701BE010E94F70FDC018D919C9166
:100850001197F80160817181FC0124813581CD01FE
:10086000F90109958823B9F0D801ED91FC9180A593
:10087000882331F480A191A1019791A380A3B0A610
:10088000C701BE010E94F70FB6010E941501C70102
:10089000BE010E94FF0F2197D7FFD3CFDF91CF91E9
:1008A0001F910F91FF90EF90DF90CF90BF90089530
:1008B000EF92FF920F931F938C017B01DC01ED916E
:1008C000FC910280F381E02D41E050E00995C801E0
:1008D000B7010E9405041F910F91FF90EF900895BA
:1008E0006F927F928F929F92AF92BF92CF92DF9240
:1008F000EF92FF920F931F93CF93DF93EC013B0195
:100900008A0159010E94D6030115110509F440C05E
:10091000E9E2CE2ED12CCC0EDD1EC6010E94F30FD3
:10092000EC012197B02EE12EAA24A3942EC0C6017B
:10093000BE010E94F70FFC01A081B18114962D9198
:100940003C9115976B2D7E2DF90109958823E1F0D7
:10095000D80198968C919897882359F490968D9108
:100960009C919197019791969C938E9390979896CE
:10097000AC92C601BE010E94F70FB3010E9415019F
:10098000C601BE010E94FF0F2197D7FFD0CF46C0FE
:10099000A114B10409F442C079E2872E912C8C0E87
:1009A0009D1EC4010E94F30F6C0133C0C5010E945B
:1009B000F30FEC012BC0C401B6010E94F70F8C01AC
:1009C000DC01ED91FC91E480F580C501BE010E943F
:1009D000F70FBC01C801F70109958823B9F0C401DC
:1009E000B6010E94F70FB3010E941501C401B601C0
:1009F0000E94FF0FC501BE010E94F70FB3010E94C4
:100A00001501C501BE010E94FF0F03C02197D7FF4A
:100A1000D2CF0894C108D108D7FEC8CFDF91CF91BB
:100A20001F910F91FF90EF90DF90CF90BF90AF900C
:100A30009F908F907F906F900895AF92BF92CF92CA
:100A4000DF92EF92FF920F931F93CF93DF936C018E
:100A50005B01E90178014115510511F00E945C0329
:100A6000C601B501AE0197010E947004DF91CF91DC
:100A70001F910F91FF90EF90DF90CF90BF90AF90BC
:100A80000895EF92FF920F931F93CF93DF938C0102
:100A90008EE191E0F80191838083F9E2EF2EF12C51
:100AA000E00EF11EC7010E94F30FEC0104C0C70164
:100AB000BE010E94FF0F2197D7FFF9CF8AE391E093
:100AC000F80191838083C8010E94BB0BDF91CF9115
:100AD0001F910F91FF90EF900895EF92FF920F9367
:100AE0001F93CF93DF938C018EE191E0F801918306
:100AF0008083A9E2EA2EF12CE00EF11EC7010E94CC
:100B0000F30FEC0104C0C701BE010E94FF0F219743
:100B1000D7FFF9CF8AE391E0F80191838083DF91D9
:100B2000CF911F910F91FF90EF900895EF92FF9258
:100B30000F931F93CF93DF938C018EE191E0F80127
:100B400091838083B9E2EB2EF12CE00EF11EC701F8
:100B50000E94F30FEC0104C0C701BE010E94FF0F09
:100B60002197D7FFF9CF8AE391E0F8019183808341
:100B7000DF91CF911F910F91FF90EF9008950F9308
:100B80001F938C0180E191E0F80191838083C8017B
:100B90000E949605C8010E94BB0B1F910F910895FA
:100BA000FC0180E191E091838083CF010E94960552
:100BB00008950F931F938C0188E491E0F8019183CD
:100BC0008083C8010E949605C8010E94BB0B1F913B
:100BD0000F910895FC0188E491E091838083CF0117
:100BE0000E94960508950F931F93CF93DF93EC0116
:100BF0008B010E94ED0D2091B0013091B101409127
:100C0000B2015091B301621B730B840B950B685EAC
:100C100073408040904008F44BC00E94ED0D6093FB
:100C2000B0017093B1018093B2019093B301C35BA3
:100C3000DF4FE881F981CD54D0402C893D898489EA
:100C40009589281B390B37FF05C0CE01B80143E059
:100C500050E006C0232B31F0CE01B80142E050E055
:100C60000E949D02E881F9818E01035B1F4FD8012C
:100C70006D917C910480F581E02DCE01099588234A
:100C8000B9F0D801ED91FC9180A5882339F480A1B9
:100C900091A1019791A380A381E080A788A58823D3
:100CA00039F488A199A1019799A388A381E088A725
:100CB00080E0DF91CF911F910F910895EF92FF9205
:100CC0000F931F93CF93DF93EC0188A5882351F1F5
:100CD0008E01005C1F4FF801808199E4E92EF12C10
:100CE000EC0EFD1E882351F481E080830E94ED0DFF
:100CF000F701608371838283938313C00E94ED0D9B
:100D0000F7012081318142815381621B730B840B77
:100D1000950B685E73408040904018F0F801108297
:100D200018A681E0DF91CF911F910F91FF90EF9076
:100D30000895AF92BF92CF92DF92EF92FF920F93FE
:100D40001F93CF93DF93EC015B0125E4C22ED12CDE
:100D5000C80ED91EF601E080F180028113810E9445
:100D6000ED0DE61AF70A080B190BF9ECEF16F10472
:100D700001051105A0F00E94ED0DF601608371835D
:100D800082839383E881F9810190F081E02DCE0187
:100D9000B5014FAD09958FAD91E089278FAFDF91F8
:100DA000CF911F910F91FF90EF90DF90CF90BF9068
:100DB000AF9008950F931F93CF93DF93EC018B01B6
:100DC0000E945E06882329F0CE01B8010E94990690
:100DD00004C0CE01B8010E940C01DF91CF911F9198
:100DE0000F910895EF92FF920F931F938C017B0157
:100DF0000E943C03C801B7010E94DA061F910F91BF
:100E0000FF90EF9008950F931F93CF93DF93EC0122
:100E10000E94ED0D8E010F5B1F4FF8012081318183
:100E200042815381621B730B840B950B6C52714092
:100E30008040904040F10E94ED0DF8016083718385
:100E40008283938380E290E00E94BE0BFC014C8978
:100E50005D892C8D3D8D8E899F890196821B930B18
:100E6000558B448B978B868B358F248F81E090E058
:100E7000978F868F8CE291E091838083CE01899653
:100E8000BF010E94D20FDF91CF911F910F91089562
:100E90006F927F928F929F92AF92BF92CF92DF928A
:100EA000EF92FF920F931F93DF93CF93CDB7DEB7EF
:100EB0003C010E9496008EE191E0F30191838083D2
:100EC0008B899C8991A380A389899A8993A382A302
:100ED000B5A2A4A297A286A2C30189960E94CE0FB2
:100EE00081E0F30187AF80E490E0680E791EF301A2
:100EF00011921192119211921192119211921192DA
:100F000011921082118212821382CF91DF911F9170
:100F10000F91FF90EF90DF90CF90BF90AF909F9098
:100F20008F907F906F9008954F925F926F927F9213
:100F30008F929F92AF92BF92CF92DF92EF92FF92E9
:100F40000F931F93DF93CF93CDB7DEB73C012B01F7
:100F500000D000D08D899E89EDB7FEB79283818342
:100F60008F89988D94838383C301BA01A901980165
:100F700087017601650154018B889C880E9448078F
:100F800080E191E0F301918380838DE490E0680E2D
:100F9000791EF301518240820F900F900F900F90B5
:100FA000CF91DF911F910F91FF90EF90DF90CF9045
:100FB000BF90AF909F908F907F906F905F904F9079
:100FC00008956F927F928F929F92AF92BF92CF922D
:100FD000DF92EF92FF920F931F93DF93CF93CDB7E2
:100FE000DEB73C0100D000D089899A89EDB7FEB701
:100FF000928381838B899C8994838383C3010E941C
:10100000480788E491E0F301918380830F900F906B
:101010000F900F90CF91DF911F910F91FF90EF9064
:10102000DF90CF90BF90AF909F908F907F906F9008
:101030000895FC01268937890488F589E02D442329
:1010400031F0CB01B901AF010E9479160895CB01AF
:10105000B901AF010E94951608955F926F927F9239
:101060008F929F92AF92BF92CF92DF92EF92FF92B8
:101070000F931F93CF93DF937C013B01542E81E0AC
:1010800090E0F701228D338D4C01821A930A208D56
:10109000318D5C01A21AB30A0FEF1FEF31C0960128
:1010A00069010894C11CD11C88819981892BF1F0B8
:1010B000F7016689778944895589552061F0680D63
:1010C000791D600F711F4A0D5B1D420F531FC30135
:1010D0000E9479160BC0680D791D600F711F4A0DB3
:1010E0005B1D420F531FC3010E9495162296F2E02A
:1010F000CF16D104A1F60F5F1F4F0230110579F012
:10110000C8010196EC01CC0FDD1FC80FD91F219635
:10111000CC0FDD1FCE0DDF1D2FEF3FEFC1CFDF91D5
:10112000CF911F910F91FF90EF90DF90CF90BF90E4
:10113000AF909F908F907F906F905F90089580E028
:1011400042E050E00E94280D0895CF93DF93EC0118
:101150008A819B81835A9E4F8B5B924050F10E9403
:10116000ED0D2091B4013091B5014091B60150913F
:10117000B701621B730B840B950B643671058105F7
:101180009105B8F00E94ED0D6093B4017093B50124
:101190008093B6019093B7018A819B811816190636
:1011A0001CF421E030E007C0892B19F02FEF3FEF4E
:1011B00002C020E030E0C901DF91CF910895CF93C4
:1011C000DF93EC0188819981835A9E4F8B5B92401B
:1011D00050F10E94ED0D2091B8013091B90140917C
:1011E000BA015091BB01621B730B840B950B6436E3
:1011F000710581059105B8F00E94ED0D6093B8016D
:101200007093B9018093BA019093BB018881998151
:10121000181619061CF421E030E007C0892B19F0DC
:101220002FEF3FEF02C020E030E0C901DF91CF9106
:1012300008950F931F938C018EE00E94820E8B50B5
:101240009240F801918380838FE00E94820E8B5F31
:101250009140F801938382831F910F9108958EE04E
:1012600060E00E94A40E8FE060E00E94A40E82E085
:1012700062E00E94A40E089508951F920F920FB687
:101280000F9211242F933F934F938F939F93EF933C
:10129000FF938091C00082FD1DC04091C600209147
:1012A000FC013091FD012F5F3F4F2F733070809113
:1012B000FE019091FF012817390771F0E091FC01C0
:1012C000F091FD01E454FE4F40833093FD012093E3
:1012D000FC0102C08091C600FF91EF919F918F9118
:1012E0004F913F912F910F900FBE0F901F90189527
:1012F000E0915002F0915102E05CFF4F8191919199
:1013000020813181821B930B8F739070892B11F098
:101310000E943C0908951F920F920FB60F9211245C
:101320002F933F938F939F93EF93FF9320914002CE
:10133000309141028091420290914302281739076F
:1013400031F48091C1008F7D8093C10014C0E09181
:101350004202F0914302E050FE4F20818091420210
:101360009091430201968F73907090934302809303
:1013700042022093C600FF91EF919F918F913F9180
:101380002F910F900FBE0F901F901895AF92BF92A4
:10139000DF92EF92FF920F931F93CF93DF93EC01B5
:1013A0007A018B01DD24403081EE580780E0680728
:1013B00080E0780711F0DD24D39491E0A92EB12CC0
:1013C000EC89FD89DD2069F0C50108A002C0880F05
:1013D000991F0A94E2F7808360E079E08DE390E062
:1013E00005C0108260E874E88EE190E0A8019701E2
:1013F0000E943F172150304040405040569547953D
:101400003795279580E12030380720F0DD2011F056
:10141000DD24D6CFE889F9893083EA89FB892083E6
:1014200019A2EE89FF89408121E030E0C9010C8CCE
:1014300002C0880F991F0A94E2F7482B4083EE8977
:10144000FF894081C9010D8C02C0880F991F0A9441
:10145000E2F7482B4083EE89FF894081C9010E8C59
:1014600002C0880F991F0A94E2F7482B4083EE8947
:10147000FF8980810F8C02C0220F331F0A94E2F78C
:10148000209528232083DF91CF911F910F91FF900A
:10149000EF90DF90BF90AF900895DC011C96ED9126
:1014A000FC911D97E05CFF4F2191319180819181EA
:1014B000281B390B2F733070C9010895DC011C966D
:1014C000ED91FC911D97E05CFF4F20813181E0544C
:1014D000F040DF01AE5BBF4F8D919C9111972817B3
:1014E000390719F42FEF3FEF07C08D919C91E80F5A
:1014F000F91F8081282F30E0C9010895DC011C9676
:10150000ED91FC911D97E05CFF4F20813181E0540B
:10151000F040DF01AE5BBF4F8D919C911197281772
:10152000390719F42FEF3FEF10C08D919C9111975F
:10153000E80FF91F20818D919C91119701968F736F
:10154000907011969C938E9330E0C9010895DC0150
:1015500091968C919197882339F05496ED91FC9156
:101560005597808186FFF9CF91961C920895CF936D
:10157000DF93EC01EE85FF85E05CFF4F2081318138
:10158000E054F0402F5F3F4F2F733070DF01AE5BB0
:10159000BF4F8D919C91119728173907D1F3E05CCB
:1015A000FF4F80819181E054F040E80FF91F608384
:1015B000EE85FF85E05CFF4F31832083EE89FF8954
:1015C000208181E090E00F8C02C0880F991F0A945F
:1015D000E2F7282B208381E089A3EC89FD898081B3
:1015E0008064808381E090E0DF91CF910895109234
:1015F00047021092460288EE93E0A0E0B0E08093AC
:10160000480290934902A0934A02B0934B0286E5A8
:1016100091E090934502809344028CEB91E090938B
:1016200051028093500280E092E0909353028093A5
:10163000520285EC90E0909355028093540284EC22
:1016400090E0909357028093560280EC90E0909344
:1016500059028093580281EC90E090935B02809352
:101660005A0282EC90E090935D0280935C0286ECDB
:1016700090E090935F0280935E0284E0809360022A
:1016800083E08093610287E08093620285E080932B
:10169000630281E080936402089586E691E090936E
:1016A000670280936602109268021092690210929B
:1016B0006A0210926B0208958F929F92AF92BF922E
:1016C000CF92DF92EF92FF920F931F93CF93DF930E
:1016D0004C016B017C01AA24BB24C0E0D0E0C60110
:1016E000F70162814AE050E00E94820C8C01C60141
:1016F0006EE20E94EB0B080F191FA00EB11E21967F
:101700000894E11CF11CC330D10549F7C601F4016E
:1017100065814AE050E00E94820C9501280F391F34
:10172000C901DF91CF911F910F91FF90EF90DF9052
:10173000CF90BF90AF909F908F900895CF93DF93FD
:101740000E94470E0E945B10C8E7D9E00E94561025
:101750002097E1F30E947809F9CFFC0120E030E006
:101760008081882311F421E030E0C9010895FC0153
:1017700081E0808308950E94791808950E94B91726
:101780000895CF92DF92EF92FF920F931F93CF9322
:10179000DF937C016B018A01C0E0D0E00FC0D6016D
:1017A0006D916D01D701ED91FC910190F081E02DDB
:1017B000C7010995C80FD91F015010400115110527
:1017C00071F7CE01DF91CF911F910F91FF90EF90B4
:1017D000DF90CF900895DC01ED91FC910190F081B4
:1017E000E02D09950895CF93DF93EC016115710504
:1017F00019F420E030E00FC0DB010D900020E9F784
:101800001197A61BB70BE881F9810280F381E02DC7
:10181000AD0109959C01C901DF91CF9108954F92C7
:101820005F927F928F929F92AF92BF92CF92DF9200
:10183000EF92FF920F931F93DF93CF93CDB7DEB755
:10184000A1970FB6F894DEBF0FBECDBF2C01742E4A
:10185000CB01223008F42AE019A231E2C32ED12CA8
:10186000CC0EDD1E822E9924AA24BB24672D752F51
:10187000A50194010E943F1779018A01C801B701AF
:10188000A50194010E942017472D461B0894C1080A
:10189000D1084A3014F4405D01C0495CF601408330
:1018A000E114F1040105110521F07E2C5F2DC80122
:1018B000DDCFC201B6010E94F30BA1960FB6F894DA
:1018C000DEBF0FBECDBFCF91DF911F910F91FF9073
:1018D000EF90DF90CF90BF90AF909F908F907F90D0
:1018E0005F904F900895DC012115310541F4ED9191
:1018F000FC910190F081E02D642F099508950E94DC
:101900000F0C0895EF92FF920F931F939A01E62E0A
:10191000FF2400E010E0B801A7010E94730C1F91A2
:101920000F91FF90EF900895813041F0813018F0D1
:101930008230D1F409C010926E00089580916F003A
:101940008D7F80936F000895809170008D7F8093CC
:10195000700081E08093B0008091B100887F846046
:101960008093B1001092B30008951F93182F8091B7
:101970000A01811711F09FEF06C0E8E6F0E09491AC
:101980008FEF80930A01892F0E94940C812F60E0D1
:101990000E94100F1F9108951F920F920FB60F9281
:1019A00011242F933F934F935F936F937F938F9364
:1019B0009F93AF93BF93EF93FF9380916C029091AD
:1019C0006D02A0916E02B0916F020097A105B10562
:1019D00051F1E0917002F091710280819091720258
:1019E0008927808380916C0290916D02A0916E0294
:1019F000B0916F02181619061A061B06C4F48091DE
:101A00006C0290916D02A0916E02B0916F020197ED
:101A1000A109B10980936C0290936D02A0936E02AC
:101A2000B0936F0204C080910A010E94B50CFF912F
:101A3000EF91BF91AF919F918F917F916F915F9146
:101A40004F913F912F910F900FBE0F901F901895BF
:101A5000823000F5E82FF0E0EE0FFF1FED58FD4F4C
:101A600071836083882319F08130A1F408C08091CC
:101A700069008C7F842B80936900E89A0895809197
:101A80006900440F551F440F551F837F842B80939B
:101A90006900E99A08951F920F920FB60F921124D0
:101AA0002F933F934F935F936F937F938F939F9366
:101AB000AF93BF93EF93FF93809173029091740261
:101AC000892B29F0E0917302F09174020995FF913E
:101AD000EF91BF91AF919F918F917F916F915F91A6
:101AE0004F913F912F910F900FBE0F901F9018951F
:101AF0001F920F920FB60F9211242F933F934F9383
:101B00005F936F937F938F939F93AF93BF93EF9365
:101B1000FF938091750290917602892B29F0E091D4
:101B20007502F09176020995FF91EF91BF91AF9107
:101B30009F918F917F916F915F914F913F912F91E5
:101B40000F900FBE0F901F9018951F920F920FB617
:101B50000F9211242F933F938F939F93AF93BF9333
:101B600080917B0290917C02A0917D02B0917E02D7
:101B700030917F020196A11DB11D232F2D5F2D37BE
:101B800020F02D570196A11DB11D20937F02809357
:101B90007B0290937C02A0937D02B0937E028091A1
:101BA000770290917802A0917902B0917A02019621
:101BB000A11DB11D8093770290937802A0937902C2
:101BC000B0937A02BF91AF919F918F913F912F91E6
:101BD0000F900FBE0F901F9018958FB7F89420911B
:101BE0007B0230917C0240917D0250917E028FBF3A
:101BF000B901CA0108959FB7F894209177023091F6
:101C000078024091790250917A0286B5A89B06C06D
:101C10008F3F21F02F5F3F4F4F4F5F4F9FBF542F9C
:101C2000432F322F2227280F311D411D511D82E0E5
:101C3000220F331F441F551F8A95D1F7B901CA01DE
:101C40000895EF92FF920F931F93CF93DF937B0141
:101C50008C010E94FB0DEB010EC00E94FB0D6C1B62
:101C60007D0B685E7340C8F30894E108F108010930
:101C70001109C851DC4FE114F1040105110569F7A0
:101C8000DF91CF911F910F91FF90EF90089578947D
:101C900084B5826084BD84B5816084BD85B5826071
:101CA00085BD85B5816085BDEEE6F0E0808181600F
:101CB0008083E1E8F0E0108280818260808380810F
:101CC00081608083E0E8F0E0808181608083E1EBE7
:101CD000F0E0808184608083E0EBF0E080818160CF
:101CE0008083EAE7F0E08081846080838081826085
:101CF000808380818160808380818068808310926E
:101D0000C1000895982F8E3008F09E5097708091F2
:101D10000B018295880F880F807C892B80937C0033
:101D200080917A00806480937A0080917A0086FDA9
:101D3000FCCF2091780040917900942F80E030E032
:101D4000282B392BC9010895CF93DF93482F50E0FA
:101D5000CA0185569F4FFC01349149575F4FFA01E4
:101D60008491882369F190E0880F991FFC01E7595D
:101D7000FF4FA591B491FC01ED58FF4FC591D4914F
:101D8000662351F42FB7F8948C91932F9095892363
:101D90008C93888189230BC0623061F42FB7F8944B
:101DA0008C91932F909589238C938881832B8883A2
:101DB0002FBF06C09FB7F8948C91832B8C939FBF45
:101DC000DF91CF910895833071F0843028F4813011
:101DD000A1F0823021F514C08630B1F08730D1F007
:101DE0008430E9F404C0809180008F7703C0809133
:101DF00080008F7D80938000089584B58F7702C026
:101E000084B58F7D84BD08958091B0008F778093D5
:101E1000B00008958091B0008F7D8093B000089548
:101E2000FF920F931F93F62E482F50E0CA01815561
:101E30009F4FFC012491CA0185569F4FFC011491CC
:101E400049575F4FFA0104910023C9F0222319F08A
:101E5000822F0E94E30EE02FF0E0EE0FFF1FED58FF
:101E6000FF4FA591B4919FB7F894FF2021F48C9176
:101E70001095812302C08C91812B8C939FBF1F9161
:101E80000F91FF900895BF92CF92DF92EF92FF9251
:101E90000F931F93CF93DF93E82EF62EB42EC7E057
:101EA000D0E0022F10E087E0C82ED12CBB2059F4DF
:101EB000B6016C1B7D0BC80102C0959587956A958C
:101EC000E2F7BC0107C0B8010C2E02C075956795FA
:101ED0000A94E2F7617070708E2D0E94100F8F2DA2
:101EE00061E00E94100F8F2D60E00E94100F21977B
:101EF0009FEFCF3FD907D1F6DF91CF911F910F917F
:101F0000FF90EF90DF90CF90BF900895EF92FF92F7
:101F10000F931F937B018C0161157105810591055C
:101F200029F420E030E040E050E00BC00E9430197E
:101F3000A80197010E946117AC01CB01DA019C0155
:101F4000AD01B901CA011F910F91FF90EF90089563
:101F5000EF92FF920F931F937B018C01621773071F
:101F60008407950764F4261B370B480B590BCA01ED
:101F7000B9010E94860FE60EF71E081F191FB70150
:101F8000C8011F910F91FF90EF900895009729F0DD
:101F9000BC0180E090E00E9434190895FC01158A8C
:101FA000148A0895CF93DF93EC01DB018C899D891E
:101FB0008A3091055CF4FC01EE0FFF1FEC0FFD1F52
:101FC0007183608301969D8B8C8B0AC061157105AE
:101FD00039F0ED91FC910084F185E02DCB0109955C
:101FE000DF91CF910895FC01848995890895FB01C3
:101FF000EE0FFF1FE80FF91F8081918108950F9365
:102000001F93CF93DF938C01EB01FB01EE0FFF1FBA
:10201000E80FF91FA081B181109741F0ED91FC917B
:1020200011970084F185E02DCD010995DE01AA0FFD
:10203000BB1FA00FB11FBE0108C06F5F7F4F12967C
:102040008D919C9113978D939D93F8018489958927
:102050000197681779078CF3958B848BDF91CF916B
:102060001F910F9108958130910541F46F5F7F4F6B
:1020700071F480E892E00E9417140895892B39F4D6
:102080006F5F7F4F21F48AEE92E00E94EA05089587
:1020900080E090E06FEF7FEF0E943310089581E0C1
:1020A00090E06FEF7FEF0E943310089580E892E098
:1020B0000E94F813089584E492E040E855E260E05D
:1020C00070E00E94C6090895AF92BF92DF92EF922E
:1020D000FF920F931F93CF93DF93EC01FC01EF511D
:1020E000FF4FD080D394D0823FECA32EB12CA80E0A
:1020F000B91E6D2D70E080E090E0F5012081318106
:10210000428153810E942017FE01E952FF4F22E3D2
:10211000E22EDE9C700111240027F7FC0095102FA1
:1021200020813181428153812E193F09400B510B8F
:1021300020833183428353836E197F09800B910B77
:10214000F50160837183828393832D2D30E0D0FC71
:1021500010C0FE01EE51FF4F21503040808190E0D1
:10216000AC01249FC001259F900D349F900D112438
:102170008083DF91CF911F910F91FF90EF90DF90BF
:10218000BF90AF9008956F927F928F929F92AF927F
:10219000BF92CF92DF92EF92FF920F931F93CF9354
:1021A000DF93EC0161E070E080E090E023E030E05C
:1021B00040E050E00E94A80F613011F58FE490E0FC
:1021C0000E94BE0B782E692E00D000D000D0EDB753
:1021D000FEB73196BE0166597F4F82E090E0ADB701
:1021E000BEB712969C938E9311971382128283E04E
:1021F00090E095838483872D962D48E651E024C096
:10220000623009F03FC08FE490E00E94BE0B782E50
:10221000692E00D000D000D0EDB7FEB73196BE01D8
:1022200066597F4F82E090E0ADB7BEB712969C939F
:102230008E9311971382128283E090E095838483BA
:10224000872D962D4AE751E02FEF3FEF02E010E097
:10225000A1E0EA2EF12CF1E0CF2ED12CE1E0AE2E60
:10226000B12C882499240E949407FE01E954FF4F61
:10227000708261828DB79EB706960FB6F8949EBFA6
:102280000FBE8DBFCE51DF4F6881AB97888199819A
:1022900070E00E941E01DF91CF911F910F91FF907E
:1022A000EF90DF90CF90BF90AF909F908F907F90F6
:1022B0006F900895AF92BF92CF92DF92EF92FF920C
:1022C0000F931F93CF93DF93EC010E94ED0D2091AC
:1022D0006503309166034091670350916803621B68
:1022E000730B840B950BCD52DF4F288139814A81C6
:1022F0005B81C35DD0406217730784079507C8F1FF
:102300000E94ED0D609365037093660380936703ED
:102310009093680361E070E080E090E028E030E0B6
:1023200040E050E00E94A80F162F80E290E00E944B
:10233000BE0BB82EA92E6CE871E04FEF5FEF212F96
:1023400030E000E010E0E1E0EE2EF12CB1E0CB2E29
:10235000D12C0E94D100CE51DF4F68818B2D9A2D58
:1023600070E00E941E01CE0189976B2D7A2D0E948C
:10237000D20FDF91CF911F910F91FF90EF90DF90DF
:10238000CF90BF90AF900895DF92EF92FF920F939E
:102390001F93CF93DF938C01F9EBEF2EF12CE80E16
:1023A000F91EC7010E94F30FEC012197D02E012FD7
:1023B0000DC0C701BE010E94F70F6D2D702F0E9446
:1023C0001501C701BE010E94FF0F2197D7FFF1CF72
:1023D000DF91CF911F910F91FF90EF90DF900895C3
:1023E0000F931F93CF93DF93EC018C0109541F4F80
:1023F000F801808191810097D1F0BE010E941C03F9
:10240000F80180819181BE010E941501F801A0812F
:10241000B181109741F0ED91FC9111970084F18505
:10242000E02DCD010995C954DF4F19821882DF9143
:10243000CF911F910F910895CF93DF93EC010E94EC
:10244000ED0D2091690330916A0340916B03509127
:102450006C03621B730B840B950BC952DF4F2881F1
:1024600039814A815B81C75DD04062177307840759
:10247000950780F00E94ED0D6093690370936A03E5
:1024800080936B0390936C03C954DF4F88819981CB
:102490000E940307DF91CF910895DF92EF92FF92A0
:1024A0000F931F93CF93DF938C01A9EBEA2EF12CAE
:1024B000E80EF91EC7010E94F30FEC012197D02E00
:1024C000012F09C0C701BE010E94F70F6D2D702FAB
:1024D0000E940C012197D7FFF5CFDF91CF911F917B
:1024E0000F91FF90EF90DF900895BF92CF92DF920F
:1024F000EF92FF920F931F93CF93DF938C0189EBA1
:10250000E82EF12CE00EF11EC7010E94F30FEC0142
:102510002197BAE6CB2ED12CC00ED11EB02E012FA2
:102520002EC0C701BE010E94F70FBC01C6010E9468
:102530004801882361F0C6010E948D02C701BE01D7
:102540000E94F70F6B2D702F0E94150113C0C70159
:10255000BE010E94F70FFC01A081B18112962D915E
:102560003C9113976B2D702F41E050E0F9010995D4
:10257000882321F0C701BE010E94FF0F2197D7FFDA
:10258000D0CFDF91CF911F910F91FF90EF90DF900F
:10259000CF90BF900895CF92DF92EF92FF920F936A
:1025A0001F93CF93DF93EC01C152DF4F8881CF5D42
:1025B000D040813041F4FE01E954FF4F8081918188
:1025C000BE010E945804C152DF4F8881CF5DD040C8
:1025D000882319F4CE010E9475128E010A591F4FEB
:1025E000C8010E941909C8010E94DF087C01C801C6
:1025F0000E94A5086C0181E0E816F10481F4C95439
:10260000DF4F28813981C75BD0408E0107541F4FAF
:10261000CE0186599F4FBE0142E050E016C09FEFA9
:10262000E9169FEFF90611F081E012C0C954DF4F9F
:1026300028813981C75BD0408E0107541F4FCE01DE
:1026400086599F4FBE0143E050E00E941D0580E087
:102650009FEFC9169FEFD90669F4C954DF4F28814F
:102660003981C75BD040CE0186599F4FBE0145E0FE
:1026700050E01FC091E0C916D10469F4C954DF4F7E
:1026800028813981C75BD040CE0186599F4FBE015A
:1026900044E050E00EC0882389F0C954DF4F288100
:1026A0003981C75BD040CE0186599F4FBE0140E0C3
:1026B00050E0C754DF4F8E010E941D05DF91CF917E
:1026C0001F910F91FF90EF90DF90CF900895CF93DF
:1026D000DF93EC01C152DF4F8881CF5DD04088236A
:1026E00031F4CE010E945A11CE010E944D12C15206
:1026F000DF4F8881CF5DD040813059F4CE010E94F8
:102700001C12FE01E954FF4F80819181BE010E949D
:10271000F206CE0186599F4FBE010E94F206DF915C
:10272000CF9108950F931F93CF93DF93EC018659B8
:102730009F4F0E9499028E0101521F4F18161906D1
:1027400054F083E0F8018083CE010E94F011CE01A5
:102750000E94C41148C0F80180818130E9F5FE0172
:10276000E954FF4F808191810E9499021816190641
:102770009CF1CE010E94F011F8011082CE010E945E
:1027800064100E94ED0DC552DF4F688379838A8300
:102790009B8329C00E94ED0DC552DF4F28813981EE
:1027A0004A815B81621B730B840B950B2C972881EC
:1027B00039814A815B81CF5CD040621773078407FF
:1027C000950788F081E0F8018083CE010E94C41152
:1027D000CE010E94C31007C08E0101521F4FF801A5
:1027E00080818823B9F2DF91CF911F910F910895D5
:1027F000CF93DF93EC010E949213C152DF4F888187
:10280000CF5DD0408250823078F0CE010E946713B5
:10281000CE010E94B21664E670E080E090E00E9473
:10282000210ECE010E94CB12DF91CF9108954F92DD
:102830005F926F927F928F929F92AF92BF92CF9250
:10284000DF92EF92FF920F931F933C010E94E016DC
:10285000A6E64A2E512C460C571CC2010E942F0995
:1028600000D000D082E090E0EDB7FEB79283818384
:102870008AE090E094838383C30186599F4F6EE979
:1028800071E041E050E024E030E005E010E0F1E0EC
:10289000EF2EF12CCC24DD24AA24BB24E2E08E2EE2
:1028A000912C0E94E10787EB90E0680E791EF301FE
:1028B0001182108289E49FEF680E791E0F900F90AD
:1028C0000F900F90C30187549F4F0E94CE0FEFECE3
:1028D000F0E06E0E7F1E80E197E2A0E0B0E0F30131
:1028E00081939193A193B19380ED97E0A0E0B0E044
:1028F00081939193A193B19381939193A193B19378
:102900003F010E94ED0DF3016193719381939193C7
:102910001192119281E081933F0180838EE19FEFBC
:10292000680E791E80E00E94820E0E94C60F70928F
:10293000640360926303C2016FEA74E10E949F081E
:102940001F910F91FF90EF90DF90CF90BF90AF90CD
:102950009F908F907F906F905F904F90089580919F
:102960006D038823A1F48DE693E00E94AD0B892BC3
:1029700071F00E94ED0D6093750370937603809360
:102980007703909378038DE693E00E94B70B0E9443
:10299000ED0D2091750330917603409177035091AE
:1029A0007803621B730B840B950B643671058105EC
:1029B000910590F00E94ED0D60937503709376037E
:1029C00080937703909378038091630390916403DD
:1029D00086599F4F0E94030708958F929F92AF924E
:1029E000BF92CF92DF92EF92FF920F931F93DF93EC
:1029F000CF9300D0CDB7DEB77C0149832A83660F21
:102A0000771F86E590E0E80EF91EF701008111813D
:102A10008AEA9FEFE80EF91E000F111F80E090E098
:102A200005C0F701E80FF91F108201968017910782
:102A3000C4F38981F701E60FF71F81838A818083C0
:102A4000F701EC5AFF4F808160E00E94100F0150A7
:102A500010406701C00ED11E0F5F1F4F90E5892EF9
:102A6000912C8E0C9F1C82E5A82EB12CAE0CBF1CA5
:102A70000EC001501040F4018081F501608141E0F9
:102A8000F60120810E94430F0894C108D108101656
:102A900011067CF384E590E0E80EF91EF7018081D1
:102AA00061E00E94100F0F900F90CF91DF911F9166
:102AB0000F91FF90EF90DF90CF90BF90AF909F90DD
:102AC0008F900895DC0177FD1CC0AA5ABF4F8D91ED
:102AD0009C911197A655B0406817790794F4483037
:102AE000510578F4FB0193E0EE0FFF1F9A95E1F793
:102AF000EA0FFB1FE40FF51F208B4F5FCD010E94F3
:102B0000ED140895DF92EF92FF920F931F93CF93EE
:102B1000DF93EC017B0177FD22C0CA5ADF4F888129
:102B20009981C655D04068177907CCF48B010E5FA8
:102B30001F4F53E0000F111F5A95E1F70C0F1D1F97
:102B4000DD24D394F80111928F01CE01B7014D2DF0
:102B500020E00E94ED14D394F9E0DF1699F7DF919D
:102B6000CF911F910F91FF90EF90DF900895FC019E
:102B70009A0177FD10C0EA5AFF4F80819181E65596
:102B8000F040681779073CF44031510520F4CF013B
:102B90004AE00E94ED140895FC019A0177FD10C0EF
:102BA000EA5AFF4F80819181E655F0406817790716
:102BB0003CF44830510520F4CF014BE00E94ED1465
:102BC0000895FC0177FD16C0EA5AFF4F808191817C
:102BD000E655F040681779076CF4442331F0CF01D3
:102BE0004CE020E00E94ED140895CF014CE021E07C
:102BF0000E94ED140895CF92DF92EF92FF920F930F
:102C00001F93CF93DF93EC016B01C05BDF4F6993A0
:102C100079934993599339832883C455D040C80187
:102C20000197089710F008E010E0CA5ADF4F1983A7
:102C30000883C655D0408E01005B1F4FF80180818C
:102C400061E00E94A40EFE01EE5AFF4F808161E018
:102C50000E94A40E74E5E72EF12CEC0EFD1EF70188
:102C6000808161E00E94A40EF701808161E00E94F2
:102C7000100FF801D182C082FE0180E090E0108A3E
:102C80000196319680349105D1F700E010E066E5B9
:102C9000C62ED12CCC0EDD1E1DC0CE01B8014FE0DA
:102CA00020E00E94ED14CE01B80147E050E00E9400
:102CB000CC15CE01B80149E020E00E94ED14CE0110
:102CC000B8010E948215CE01B80141E00E94E115D1
:102CD0000F5F1F4FF6018081918108171907ECF2F1
:102CE000DF91CF911F910F91FF90EF90DF90CF90E8
:102CF0000895FC0177FD18C08081918168177907DC
:102D00009CF457FD11C0828193814817590764F4E0
:102D1000E60FF71F81E090E002C0880F991F4A95E7
:102D2000E2F72681282B26830895FC0177FD19C040
:102D30008081918168177907A4F457FD12C08281C0
:102D40009381481759076CF4E60FF71F81E090E074
:102D500002C0880F991F4A95E2F780952681822349
:102D600086830895CF92DF92EF92FF920F931F9385
:102D7000CF93DF938C018EE0C82ED12CC00ED11ED4
:102D80007801C0E0D0E00AC0F80164817581C60115
:102D9000AE01F70125810E94621521960894E11C7D
:102DA000F11CF80180819181C817D9076CF3DF917C
:102DB000CF911F910F91FF90EF90DF90CF900895EA
:102DC000EF92FF920F931F93CF93DF93EC0188E074
:102DD00090E0998388839B838A831D821C829EE076
:102DE000E92EF12CEC0EFD1EC7016CE070E04BE00B
:102DF00050E02AE030E001E010E00E94FB15FE0107
:102E000020E030E003C015822F5F3F4F319688816C
:102E1000998128173907BCF36C817D81C70140E097
:102E20000E94E1156C817D81C70148E050E00E945D
:102E3000B715DF91CF911F910F91FF90EF900895FB
:102E4000629FD001739FF001829FE00DF11D649F8E
:102E5000E00DF11D929FF00D839FF00D749FF00D1A
:102E6000659FF00D9927729FB00DE11DF91F639FBB
:102E7000B00DE11DF91FBD01CF0111240895A1E29C
:102E80001A2EAA1BBB1BFD010DC0AA1FBB1FEE1FE4
:102E9000FF1FA217B307E407F50720F0A21BB30B2F
:102EA000E40BF50B661F771F881F991F1A9469F7AB
:102EB00060957095809590959B01AC01BD01CF0107
:102EC000089597FB092E05260ED057FD04D0D7DFB5
:102ED0000AD0001C38F450954095309521953F4F0D
:102EE0004F4F5F4F0895F6F79095809570956195D7
:102EF0007F4F8F4F9F4F08952F923F924F925F9237
:102F00006F927F928F929F92AF92BF92CF92DF92F9
:102F1000EF92FF920F931F93CF93DF93CDB7DEB75E
:102F2000CA1BDB0B0FB6F894DEBF0FBECDBF0994F2
:102F30002A88398848885F846E847D848C849B8449
:102F4000AA84B984C884DF80EE80FD800C811B8157
:102F5000AA81B981CE0FD11D0FB6F894DEBF0FBE86
:102F6000CDBFED010895EE0FFF1F0590F491E02D08
:102F70000994CF93DF93682F792F8230910510F455
:102F800062E070E0A0917B03B0917C03CA2FDB2F3D
:102F9000E0E0F0E040E050E026C0888199818617AB
:102FA000970771F48A819B81309719F0938382830C
:102FB00004C090937C0380937B03EC2FFD2F3BC0D8
:102FC0006817790740F44115510519F084179507E2
:102FD00010F4482F592FEC2FFD2F8A819B81282F29
:102FE000392FC22FD32F2097C1F641155105E9F192
:102FF000842F952F861B970B049710F4642F752F41
:10300000E0E0F0E030C08D919C9111978417950716
:1030100011F56417750789F412968D919C91139799
:10302000309719F09383828304C090937C0380933C
:103030007B03EA2FFB2F329657C0842F952F861BD8
:10304000970BEA2FFB2FE80FF91F619371930297FB
:103050008D939C9349C0EA2FFB2F82819381282F67
:10306000392FA22FB32F109771F680917903909189
:103070007A03892B41F4809102019091030190938E
:103080007A03809379034091040150910501411521
:10309000510541F44DB75EB7809100019091010157
:1030A000481B590B2091790330917A032417350777
:1030B000C8F4842F952F821B930B8617970790F0E7
:1030C000462F572F4E5F5F4F8417950758F0420FDA
:1030D000531F50937A0340937903E22FF32F6193A8
:1030E000719302C0E0E0F0E08E2F9F2FDF91CF912F
:1030F0000895CF93DF93009709F456C0C82FD92FB6
:1031000022971B821A82A0917B03B0917C031097B7
:1031100011F140E050E0AC17BD0710F1BB83AA836A
:10312000EC2FFD2F21913191E20FF31FAE17BF0756
:1031300079F48D919C911197280F391F2E5F3F4F85
:103140003983288312968D919C9113979B838A8350
:103150004115510581F4D0937C03C0937B0324C0B7
:1031600012968D919C9113974A2F5B2F009719F01F
:10317000A82FB92FD0CFE42FF52FD383C28321916D
:103180003191E20FF31FCE17DF0771F48881998127
:10319000280F391F2E5F3F4FE42FF52F31832083F7
:1031A0008A819B8193838283DF91CF910895A0E0F0
:1031B000B0E0ECEDF8E1A8CEC82FD92FA880B980F7
:1031C000CA80DB80A114B104C104D10441F484E2BB
:1031D000A82E89EDB82E8BE5C82E87E0D82E9D2D20
:1031E0008C2D7B2D6A2D2DE133EF41E050E069DE1F
:1031F00027EA31E440E050E023DEE62EF72E082FE8
:10320000192F9D2D8C2D7B2D6A2D2DE133EF41E063
:1032100050E057DE952F842F732F622F2CEE34EF62
:103220004FEF5FEF0DDE6E0D7F1D801F911F97FF2B
:1032300004C06150704080409048688379838A83DD
:103240009B83262F372F482F592F5F77622F732F9D
:10325000842F952FCDB7DEB7EAE072CEA8DF0895B0
:1032600086E091E0A4DF0895609306017093070162
:103270008093080190930901089510E0CAECD0E012
:1032800004C0FE010E94B5172296CC3CD107C9F7B5
:04329000F894FFCFE0
:1032940020007D03000001000000FF010000000089
:1032A4002D08F3054801D005BF05000000002D08D6
:1032B4009D0248016D054105000000001908220126
:1032C4001D0204031303000000002D08220148011D
:1032D40090000A03000000002D089D024801EA0541
:1032E400D90500000000B70AC10B4D0A7E0A5E0A28
:1032F400A70A000000005C0B0100010001000000AF
:1033040001000000000000000000000001000000B7
:1033140001000100010000000000000001000100A4
:103324000000010001000000000000000000000097
:103334000100000001000100010001000000010083
:00000001FF
